{
  "_format": "hh-sol-artifact-1",
  "contractName": "AegisCore",
  "sourceName": "contracts/core/AegisCore.sol",
  "abi": [
    {
      "inputs": [
        {
          "internalType": "address",
          "name": "_verifier",
          "type": "address"
        },
        {
          "internalType": "address",
          "name": "_identityRegistry",
          "type": "address"
        },
        {
          "internalType": "address",
          "name": "_backstopPool",
          "type": "address"
        },
        {
          "internalType": "address",
          "name": "_sentinel",
          "type": "address"
        },
        {
          "internalType": "address",
          "name": "_governor",
          "type": "address"
        }
      ],
      "stateMutability": "nonpayable",
      "type": "constructor"
    },
    {
      "inputs": [],
      "name": "AccessControlBadConfirmation",
      "type": "error"
    },
    {
      "inputs": [
        {
          "internalType": "address",
          "name": "account",
          "type": "address"
        },
        {
          "internalType": "bytes32",
          "name": "neededRole",
          "type": "bytes32"
        }
      ],
      "name": "AccessControlUnauthorizedAccount",
      "type": "error"
    },
    {
      "inputs": [],
      "name": "EnforcedPause",
      "type": "error"
    },
    {
      "inputs": [],
      "name": "ExpectedPause",
      "type": "error"
    },
    {
      "anonymous": false,
      "inputs": [
        {
          "indexed": false,
          "internalType": "bool",
          "name": "active",
          "type": "bool"
        },
        {
          "indexed": false,
          "internalType": "uint256",
          "name": "timestamp",
          "type": "uint256"
        },
        {
          "indexed": false,
          "internalType": "uint256",
          "name": "riskScore",
          "type": "uint256"
        }
      ],
      "name": "GlobalRiskCondition",
      "type": "event"
    },
    {
      "anonymous": false,
      "inputs": [
        {
          "indexed": false,
          "internalType": "address",
          "name": "account",
          "type": "address"
        }
      ],
      "name": "Paused",
      "type": "event"
    },
    {
      "anonymous": false,
      "inputs": [
        {
          "indexed": false,
          "internalType": "enum AegisCore.RiskState",
          "name": "oldState",
          "type": "uint8"
        },
        {
          "indexed": false,
          "internalType": "enum AegisCore.RiskState",
          "name": "newState",
          "type": "uint8"
        }
      ],
      "name": "RiskStateChanged",
      "type": "event"
    },
    {
      "anonymous": false,
      "inputs": [
        {
          "indexed": true,
          "internalType": "bytes32",
          "name": "role",
          "type": "bytes32"
        },
        {
          "indexed": true,
          "internalType": "bytes32",
          "name": "previousAdminRole",
          "type": "bytes32"
        },
        {
          "indexed": true,
          "internalType": "bytes32",
          "name": "newAdminRole",
          "type": "bytes32"
        }
      ],
      "name": "RoleAdminChanged",
      "type": "event"
    },
    {
      "anonymous": false,
      "inputs": [
        {
          "indexed": true,
          "internalType": "bytes32",
          "name": "role",
          "type": "bytes32"
        },
        {
          "indexed": true,
          "internalType": "address",
          "name": "account",
          "type": "address"
        },
        {
          "indexed": true,
          "internalType": "address",
          "name": "sender",
          "type": "address"
        }
      ],
      "name": "RoleGranted",
      "type": "event"
    },
    {
      "anonymous": false,
      "inputs": [
        {
          "indexed": true,
          "internalType": "bytes32",
          "name": "role",
          "type": "bytes32"
        },
        {
          "indexed": true,
          "internalType": "address",
          "name": "account",
          "type": "address"
        },
        {
          "indexed": true,
          "internalType": "address",
          "name": "sender",
          "type": "address"
        }
      ],
      "name": "RoleRevoked",
      "type": "event"
    },
    {
      "anonymous": false,
      "inputs": [
        {
          "indexed": false,
          "internalType": "address",
          "name": "account",
          "type": "address"
        }
      ],
      "name": "Unpaused",
      "type": "event"
    },
    {
      "inputs": [],
      "name": "DEFAULT_ADMIN_ROLE",
      "outputs": [
        {
          "internalType": "bytes32",
          "name": "",
          "type": "bytes32"
        }
      ],
      "stateMutability": "view",
      "type": "function"
    },
    {
      "inputs": [],
      "name": "GOVERNOR_ROLE",
      "outputs": [
        {
          "internalType": "bytes32",
          "name": "",
          "type": "bytes32"
        }
      ],
      "stateMutability": "view",
      "type": "function"
    },
    {
      "inputs": [],
      "name": "SENTINEL_ROLE",
      "outputs": [
        {
          "internalType": "bytes32",
          "name": "",
          "type": "bytes32"
        }
      ],
      "stateMutability": "view",
      "type": "function"
    },
    {
      "inputs": [],
      "name": "backstopPool",
      "outputs": [
        {
          "internalType": "contract BackstopPool",
          "name": "",
          "type": "address"
        }
      ],
      "stateMutability": "view",
      "type": "function"
    },
    {
      "inputs": [],
      "name": "currentState",
      "outputs": [
        {
          "internalType": "enum AegisCore.RiskState",
          "name": "",
          "type": "uint8"
        }
      ],
      "stateMutability": "view",
      "type": "function"
    },
    {
      "inputs": [
        {
          "internalType": "bytes32",
          "name": "role",
          "type": "bytes32"
        }
      ],
      "name": "getRoleAdmin",
      "outputs": [
        {
          "internalType": "bytes32",
          "name": "",
          "type": "bytes32"
        }
      ],
      "stateMutability": "view",
      "type": "function"
    },
    {
      "inputs": [
        {
          "internalType": "bytes32",
          "name": "role",
          "type": "bytes32"
        },
        {
          "internalType": "address",
          "name": "account",
          "type": "address"
        }
      ],
      "name": "grantRole",
      "outputs": [],
      "stateMutability": "nonpayable",
      "type": "function"
    },
    {
      "inputs": [
        {
          "internalType": "bytes32",
          "name": "role",
          "type": "bytes32"
        },
        {
          "internalType": "address",
          "name": "account",
          "type": "address"
        }
      ],
      "name": "hasRole",
      "outputs": [
        {
          "internalType": "bool",
          "name": "",
          "type": "bool"
        }
      ],
      "stateMutability": "view",
      "type": "function"
    },
    {
      "inputs": [],
      "name": "identityRegistry",
      "outputs": [
        {
          "internalType": "contract IUnstoppable",
          "name": "",
          "type": "address"
        }
      ],
      "stateMutability": "view",
      "type": "function"
    },
    {
      "inputs": [],
      "name": "paused",
      "outputs": [
        {
          "internalType": "bool",
          "name": "",
          "type": "bool"
        }
      ],
      "stateMutability": "view",
      "type": "function"
    },
    {
      "inputs": [
        {
          "internalType": "bytes32",
          "name": "role",
          "type": "bytes32"
        },
        {
          "internalType": "address",
          "name": "callerConfirmation",
          "type": "address"
        }
      ],
      "name": "renounceRole",
      "outputs": [],
      "stateMutability": "nonpayable",
      "type": "function"
    },
    {
      "inputs": [
        {
          "internalType": "bytes32",
          "name": "role",
          "type": "bytes32"
        },
        {
          "internalType": "address",
          "name": "account",
          "type": "address"
        }
      ],
      "name": "revokeRole",
      "outputs": [],
      "stateMutability": "nonpayable",
      "type": "function"
    },
    {
      "inputs": [
        {
          "internalType": "enum AegisCore.RiskState",
          "name": "_newState",
          "type": "uint8"
        },
        {
          "internalType": "bytes",
          "name": "proof",
          "type": "bytes"
        },
        {
          "internalType": "bytes32",
          "name": "inputHash",
          "type": "bytes32"
        }
      ],
      "name": "setRiskState",
      "outputs": [],
      "stateMutability": "nonpayable",
      "type": "function"
    },
    {
      "inputs": [
        {
          "internalType": "bytes4",
          "name": "interfaceId",
          "type": "bytes4"
        }
      ],
      "name": "supportsInterface",
      "outputs": [
        {
          "internalType": "bool",
          "name": "",
          "type": "bool"
        }
      ],
      "stateMutability": "view",
      "type": "function"
    },
    {
      "inputs": [],
      "name": "verifier",
      "outputs": [
        {
          "internalType": "contract IVerifier",
          "name": "",
          "type": "address"
        }
      ],
      "stateMutability": "view",
      "type": "function"
    }
  ],
  "bytecode": "0x60803461010457601f610c8c38819003918201601f19168301916001600160401b038311848410176101095780849260a09460405283398101031261010457806100e361004e6100e99361011f565b9161005b6020820161011f565b6100676040830161011f565b61007f60806100786060860161011f565b940161011f565b6001805462010000600160b01b03191660109790971b62010000600160b01b031696909617909555600280546001600160a01b03199081166001600160a01b039485161790915560038054909116919092161790556100dd33610133565b506101b1565b50610251565b5061ff00196001541660015560405161097f90816102ed8239f35b600080fd5b634e487b7160e01b600052604160045260246000fd5b51906001600160a01b038216820361010457565b6001600160a01b031660008181527fad3228b676f7d3cd4284a5443f17f1962b36e491b30a40b2405849e597ba5fb5602052604081205490919060ff166101ad57818052816020526040822081835260205260408220600160ff198254161790553391600080516020610c6c8339815191528180a4600190565b5090565b6001600160a01b031660008181527fd033af2fee5b48d9b98402928490257a51aa50fa71979211c323e787483e043c60205260408120549091907f0e58f09080507613e45c927895fdc351ce79a3743ce0a3e127396951be78d0a99060ff1661024c57808352826020526040832082845260205260408320600160ff19825416179055600080516020610c6c833981519152339380a4600190565b505090565b6001600160a01b031660008181527f6f3b488caa0dc03e5f3d9fd6a25fa8755afcfd62ccffb6e436c696bfa6b866de60205260408120549091907f7935bd0ae54bc31f548c14dba4d37c5c64b3f8ca900cb468fb8abd54d5894f559060ff1661024c57808352826020526040832082845260205260408320600160ff19825416179055600080516020610c6c833981519152339380a460019056fe608060408181526004918236101561001657600080fd5b600092833560e01c91826301ffc9a714610739575081630c3f6acf1461070d57816313430d92146106d2578163134e18f4146106a9578163248a9ca31461067f5781632b7ac3f3146106525781632f2ff15d1461063457816336568abe146105f95781635c975abb146105d55781638200bfe6146105ac57816391d1485414610572578163a217fddf14610557578163a271079f1461013b57508063ccc57490146101015763d547741f146100ca57600080fd5b346100fd5760016100f9916100f46100e1366107af565b9390928387528660205286200154610812565b6108d4565b5080f35b5080fd5b50346100fd57816003193601126100fd57602090517f7935bd0ae54bc31f548c14dba4d37c5c64b3f8ca900cb468fb8abd54d5894f558152f35b8383346100fd5760603660031901126100fd5782359060038210156105535760249182359067ffffffffffffffff9384831161054f573660238401121561054f578287013594851161053e578351602095601f19946101a1601f830187168901846107da565b8183523684838301011161053a57818992858a930183860137830101527f0e58f09080507613e45c927895fdc351ce79a3743ce0a3e127396951be78d0a98752868652848720338852865260ff858820541680156104ff575b156104bd5760028314938415610482576001548651636b40634160e01b8152808b0188905283516044820181905290938993859360101c6001600160a01b0316928c92835b828110610467575050848392601f83839660648096860101526044358c850152011681010301925af190811561045d578791610423575b50156103e257507f9294bd3cb2530a4cc51d1b02b5461a29be01bb09c12d4b38847ff8e9e8c0866a60608451600181524287820152606486820152a15b6001918254907f8c98dc70a9db4d2d7245a30a93aba4a8860448770eac93e20f15e7fb3a1d7d958561ff008560081b16948561ff0019861617875561030d8251916103048360ff8960081c1661078c565b8a83019061078c565ba11561037b57505080549460ff8616801561032d575b5050505050905080f35b61036d5750807f62e78cea01bee320cd4e420270b5ea74000d11b0c9f74754ebdbfc544b05a258949560ff191617905551338152a1808280808080610323565b825163d93c066560e01b8152fd5b60ff811680610390575b505050505050905080f35b156103d2577f5db9ee0a495bf2e6ff9c91a7834c1ba4fdd244a5e8aa4e537bd38aeae4b073aa95965061ffff191617905551338152a180828080808080610385565b8351638dfc202b60e01b81528790fd5b86601d6064928787519362461bcd60e51b85528401528201527f496e76616c6964205a4b2070726f6f6620666f7220526564204d6f64650000006044820152fd5b90508581813d8311610456575b61043a81836107da565b81010312610452575180151581036104525788610276565b8680fd5b503d610430565b85513d89823e3d90fd5b808201880151898201606401528d978997508f95500161023f565b5050507f9294bd3cb2530a4cc51d1b02b5461a29be01bb09c12d4b38847ff8e9e8c0866a6060845187815242878201528786820152a16102b3565b845162461bcd60e51b81528089018790526018818401527f43616c6c6572206973206e6f7420617574686f72697a656400000000000000006044820152606490fd5b507f7935bd0ae54bc31f548c14dba4d37c5c64b3f8ca900cb468fb8abd54d5894f558752868652848720338852865260ff85882054166101fa565b8880fd5b634e487b7160e01b86526041875285fd5b8580fd5b8280fd5b5050346100fd57816003193601126100fd5751908152602090f35b5050346100fd5760ff81602093610588366107af565b9082528186528282206001600160a01b039091168252855220549151911615158152f35b5050346100fd57816003193601126100fd5760035490516001600160a01b039091168152602090f35b5050346100fd57816003193601126100fd5760209060ff6001541690519015158152f35b8383346100fd57610609366107af565b91336001600160a01b038416036106255750906100f9916108d4565b5163334bd91960e11b81528490fd5b5050346100fd5760016100f99161064d6100e1366107af565b610856565b5050346100fd57816003193601126100fd57600154905160109190911c6001600160a01b03168152602090f35b90503461055357602036600319011261055357816020936001923581528085522001549051908152f35b5050346100fd57816003193601126100fd5760025490516001600160a01b039091168152602090f35b5050346100fd57816003193601126100fd57602090517f0e58f09080507613e45c927895fdc351ce79a3743ce0a3e127396951be78d0a98152f35b5050346100fd57816003193601126100fd5760209061073760ff60015460081c169151809261078c565bf35b849134610553576020366003190112610553573563ffffffff60e01b81168091036105535760209250637965db0b60e01b811490811561077b575b5015158152f35b6301ffc9a760e01b14905083610774565b9060038210156107995752565b634e487b7160e01b600052602160045260246000fd5b60409060031901126107d557600435906024356001600160a01b03811681036107d55790565b600080fd5b90601f8019910116810190811067ffffffffffffffff8211176107fc57604052565b634e487b7160e01b600052604160045260246000fd5b80600052600060205260406000203360005260205260ff60406000205416156108385750565b6044906040519063e2517d3f60e01b82523360048301526024820152fd5b9060009180835282602052604083209160018060a01b03169182845260205260ff604084205416156000146108cf57808352826020526040832082845260205260408320600160ff198254161790557f2f8788117e7eff1d82e926ec794901d17c78024a50270940304540a733656f0d339380a4600190565b505090565b9060009180835282602052604083209160018060a01b03169182845260205260ff6040842054166000146108cf5780835282602052604083208284526020526040832060ff1981541690557ff6391f5c32d9c69d2a47ea670b442974b53935d1edc7fd64eb21e047a839171b339380a460019056fea264697066735822122012935bb18f4d93746fc8242f1f0fbe69956812b5aad581a18d73f4a3e2f2d14d64736f6c634300081400332f8788117e7eff1d82e926ec794901d17c78024a50270940304540a733656f0d",
  "linkReferences": {},
  "deployedLinkReferences": {}
}