{
  "_format": "hh-sol-artifact-1",
  "contractName": "MockIdentityRegistry",
  "sourceName": "contracts/mocks/MockIdentityRegistry.sol",
  "abi": [
    {
      "inputs": [
        {
          "internalType": "address",
          "name": "user",
          "type": "address"
        }
      ],
      "name": "getRiskParameters",
      "outputs": [
        {
          "components": [
            {
              "internalType": "uint256",
              "name": "ltv",
              "type": "uint256"
            },
            {
              "internalType": "uint256",
              "name": "liquidationPenalty",
              "type": "uint256"
            },
            {
              "internalType": "uint256",
              "name": "gracePeriod",
              "type": "uint256"
            }
          ],
          "internalType": "struct IUnstoppable.RiskParams",
          "name": "",
          "type": "tuple"
        }
      ],
      "stateMutability": "view",
      "type": "function"
    },
    {
      "inputs": [
        {
          "internalType": "address",
          "name": "user",
          "type": "address"
        }
      ],
      "name": "reverseNameOf",
      "outputs": [
        {
          "internalType": "string",
          "name": "",
          "type": "string"
        }
      ],
      "stateMutability": "view",
      "type": "function"
    },
    {
      "inputs": [
        {
          "internalType": "address",
          "name": "user",
          "type": "address"
        },
        {
          "internalType": "string",
          "name": "badgeType",
          "type": "string"
        }
      ],
      "name": "setMockBadge",
      "outputs": [],
      "stateMutability": "nonpayable",
      "type": "function"
    },
    {
      "inputs": [
        {
          "internalType": "address",
          "name": "user",
          "type": "address"
        },
        {
          "internalType": "string",
          "name": "name",
          "type": "string"
        }
      ],
      "name": "setMockName",
      "outputs": [],
      "stateMutability": "nonpayable",
      "type": "function"
    },
    {
      "inputs": [
        {
          "internalType": "address",
          "name": "",
          "type": "address"
        }
      ],
      "name": "userBadges",
      "outputs": [
        {
          "internalType": "string",
          "name": "",
          "type": "string"
        }
      ],
      "stateMutability": "view",
      "type": "function"
    },
    {
      "inputs": [
        {
          "internalType": "address",
          "name": "",
          "type": "address"
        }
      ],
      "name": "userNames",
      "outputs": [
        {
          "internalType": "string",
          "name": "",
          "type": "string"
        }
      ],
      "stateMutability": "view",
      "type": "function"
    }
  ],
  "bytecode": "0x60808060405234610016576107ab908161001c8239f35b600080fdfe604060808152600436101561001357600080fd5b600090813560e01c80637f281635146100ac57806382f01c8514610351578063856e610f1461022657806387b55885146100e6578063bebec6b4146100ac5763f5474e121461006157600080fd5b346100a85760203660031901126100a8576100a4916100999082906001600160a01b0361008c610391565b1681528060205220610456565b9051918291826104fc565b0390f35b5080fd5b50346100a85760203660031901126100a8576100a4916100999082906001600160a01b036100d8610391565b168152600160205220610456565b50346100a8576100f536610545565b9060018060a01b0316835260019060209282845284209281519167ffffffffffffffff83116102125761012885546103ac565b601f81116101cc575b5081601f841160011461016b57509282939183928794610160575b50501b916000199060031b1c191617905580f35b01519250388061014c565b919083601f1981168789528489209489905b888383106101b25750505010610199575b505050811b01905580f35b015160001960f88460031b161c1916905538808061018e565b85870151885590960195948501948793509081019061017d565b858752828720601f850160051c810191848610610208575b601f0160051c019085905b8281106101fd575050610131565b8881550185906101ef565b90915081906101e4565b634e487b7160e01b86526041600452602486fd5b50903461034e5761023636610545565b6001600160a01b03909116825260208281529282208151919390919067ffffffffffffffff821161033a5761026b83546103ac565b601f81116102f7575b5080601f83116001146102af57508394829394926102a4575b50508160011b916000199060031b1c191617905580f35b01519050388061028d565b90601f198316958486528286209286905b8882106102df5750508360019596971061019957505050811b01905580f35b806001859682949686015181550195019301906102c0565b838552818520601f840160051c810191838510610330575b601f0160051c01905b8181106103255750610274565b858155600101610318565b909150819061030f565b634e487b7160e01b84526041600452602484fd5b80fd5b50346100a85760203660031901126100a857606090610376610371610391565b6105cb565b90808051928051845260208101516020850152015190820152f35b600435906001600160a01b03821682036103a757565b600080fd5b90600182811c921680156103dc575b60208310146103c657565b634e487b7160e01b600052602260045260246000fd5b91607f16916103bb565b6060810190811067ffffffffffffffff82111761040257604052565b634e487b7160e01b600052604160045260246000fd5b6040810190811067ffffffffffffffff82111761040257604052565b90601f8019910116810190811067ffffffffffffffff82111761040257604052565b906040519182600082549261046a846103ac565b9081845260019485811690816000146104d95750600114610496575b505061049492500383610434565b565b9093915060005260209081600020936000915b8183106104c157505061049493508201013880610486565b855488840185015294850194879450918301916104a9565b91505061049494506020925060ff191682840152151560051b8201013880610486565b6020808252825181830181905290939260005b82811061053157505060409293506000838284010152601f8019910116010190565b81810186015184820160400152850161050f565b9060406003198301126103a7576004356001600160a01b03811681036103a7579167ffffffffffffffff6024358181116103a757826023820112156103a757806004013591821161040257604051926105a8601f8401601f191660200185610434565b828452602483830101116103a75781600092602460209301838601378301015290565b6040908151916105da836103e6565b60009182845282826020958287820152015260018060a01b03168252818352610604818320610456565b805115610766578051907fdf1bc121578ae56f6dc11a313fe95038647c2df7329befecfab9ee74a1f0ed428582019283206a416e6369656e74204f6e6560a81b87865161065081610418565b600b8152015214610744577ff4ca62760601ab0f07b42f747c9e5dc6df32bae8d8252b33f626de9d2d0d36bf81518320645768616c6560d81b87865161069581610418565b6005815201521461072257907f352837afe4672d70d0d70cb4b09f66e583c8abfbb40ff25fbfa6fefc287234ed915190206a10db19585b8814da19595d60aa1b8584516106e181610418565b600b815201521461070757600a8151936106fa856103e6565b604b855284015282015290565b600a815193610715856103e6565b604d855284015282015290565b505061070891506005815193610737856103e6565b6052855284015282015290565b505061038491506008815193610759856103e6565b6050855284015282015290565b50600a8151936106fa856103e656fea2646970667358221220fc05c7d7ace7c6733c5abe2f7e51d98be52b15a4bfff5e7caa4f93d80798c4f264736f6c63430008140033",
  "linkReferences": {},
  "deployedLinkReferences": {}
}