{
  "_format": "hh-sol-artifact-1",
  "contractName": "AegisPool",
  "sourceName": "contracts/core/AegisPool.sol",
  "abi": [
    {
      "inputs": [
        {
          "internalType": "address",
          "name": "_aegisCore",
          "type": "address"
        },
        {
          "internalType": "address",
          "name": "_usdcToken",
          "type": "address"
        },
        {
          "internalType": "address",
          "name": "_identityRegistry",
          "type": "address"
        },
        {
          "internalType": "address",
          "name": "_oracle",
          "type": "address"
        }
      ],
      "stateMutability": "nonpayable",
      "type": "constructor"
    },
    {
      "inputs": [],
      "name": "ReentrancyGuardReentrantCall",
      "type": "error"
    },
    {
      "anonymous": false,
      "inputs": [
        {
          "indexed": true,
          "internalType": "address",
          "name": "user",
          "type": "address"
        },
        {
          "indexed": false,
          "internalType": "uint256",
          "name": "amount",
          "type": "uint256"
        }
      ],
      "name": "Borrow",
      "type": "event"
    },
    {
      "anonymous": false,
      "inputs": [
        {
          "indexed": true,
          "internalType": "address",
          "name": "user",
          "type": "address"
        },
        {
          "indexed": false,
          "internalType": "uint256",
          "name": "amount",
          "type": "uint256"
        }
      ],
      "name": "Deposit",
      "type": "event"
    },
    {
      "anonymous": false,
      "inputs": [
        {
          "indexed": true,
          "internalType": "address",
          "name": "user",
          "type": "address"
        },
        {
          "indexed": true,
          "internalType": "address",
          "name": "liquidator",
          "type": "address"
        },
        {
          "indexed": false,
          "internalType": "uint256",
          "name": "debtRepaid",
          "type": "uint256"
        },
        {
          "indexed": false,
          "internalType": "uint256",
          "name": "collateralSeized",
          "type": "uint256"
        }
      ],
      "name": "Liquidated",
      "type": "event"
    },
    {
      "anonymous": false,
      "inputs": [
        {
          "indexed": true,
          "internalType": "address",
          "name": "user",
          "type": "address"
        },
        {
          "indexed": false,
          "internalType": "uint256",
          "name": "timestamp",
          "type": "uint256"
        }
      ],
      "name": "ProbationStarted",
      "type": "event"
    },
    {
      "anonymous": false,
      "inputs": [
        {
          "indexed": true,
          "internalType": "address",
          "name": "provider",
          "type": "address"
        },
        {
          "indexed": false,
          "internalType": "uint256",
          "name": "amount",
          "type": "uint256"
        }
      ],
      "name": "ProvideLiquidity",
      "type": "event"
    },
    {
      "anonymous": false,
      "inputs": [
        {
          "indexed": true,
          "internalType": "address",
          "name": "user",
          "type": "address"
        },
        {
          "indexed": false,
          "internalType": "uint256",
          "name": "amount",
          "type": "uint256"
        }
      ],
      "name": "Repay",
      "type": "event"
    },
    {
      "anonymous": false,
      "inputs": [
        {
          "indexed": true,
          "internalType": "address",
          "name": "user",
          "type": "address"
        },
        {
          "indexed": false,
          "internalType": "uint256",
          "name": "amount",
          "type": "uint256"
        }
      ],
      "name": "Withdraw",
      "type": "event"
    },
    {
      "anonymous": false,
      "inputs": [
        {
          "indexed": true,
          "internalType": "address",
          "name": "provider",
          "type": "address"
        },
        {
          "indexed": false,
          "internalType": "uint256",
          "name": "amount",
          "type": "uint256"
        }
      ],
      "name": "WithdrawLiquidity",
      "type": "event"
    },
    {
      "inputs": [],
      "name": "aegisCore",
      "outputs": [
        {
          "internalType": "contract AegisCore",
          "name": "",
          "type": "address"
        }
      ],
      "stateMutability": "view",
      "type": "function"
    },
    {
      "inputs": [
        {
          "internalType": "uint256",
          "name": "amount",
          "type": "uint256"
        }
      ],
      "name": "borrowUSDC",
      "outputs": [],
      "stateMutability": "nonpayable",
      "type": "function"
    },
    {
      "inputs": [],
      "name": "depositETH",
      "outputs": [],
      "stateMutability": "payable",
      "type": "function"
    },
    {
      "inputs": [],
      "name": "identityRegistry",
      "outputs": [
        {
          "internalType": "contract IUnstoppable",
          "name": "",
          "type": "address"
        }
      ],
      "stateMutability": "view",
      "type": "function"
    },
    {
      "inputs": [
        {
          "internalType": "address",
          "name": "user",
          "type": "address"
        },
        {
          "internalType": "uint256",
          "name": "debtToCover",
          "type": "uint256"
        }
      ],
      "name": "liquidate",
      "outputs": [],
      "stateMutability": "nonpayable",
      "type": "function"
    },
    {
      "inputs": [
        {
          "internalType": "address",
          "name": "",
          "type": "address"
        }
      ],
      "name": "liquidityProviderBalance",
      "outputs": [
        {
          "internalType": "uint256",
          "name": "",
          "type": "uint256"
        }
      ],
      "stateMutability": "view",
      "type": "function"
    },
    {
      "inputs": [],
      "name": "oracle",
      "outputs": [
        {
          "internalType": "contract IAegisOracle",
          "name": "",
          "type": "address"
        }
      ],
      "stateMutability": "view",
      "type": "function"
    },
    {
      "inputs": [
        {
          "internalType": "address",
          "name": "",
          "type": "address"
        }
      ],
      "name": "probationStart",
      "outputs": [
        {
          "internalType": "uint256",
          "name": "",
          "type": "uint256"
        }
      ],
      "stateMutability": "view",
      "type": "function"
    },
    {
      "inputs": [
        {
          "internalType": "uint256",
          "name": "amount",
          "type": "uint256"
        }
      ],
      "name": "provideLiquidity",
      "outputs": [],
      "stateMutability": "nonpayable",
      "type": "function"
    },
    {
      "inputs": [
        {
          "internalType": "uint256",
          "name": "amount",
          "type": "uint256"
        }
      ],
      "name": "repayUSDC",
      "outputs": [],
      "stateMutability": "nonpayable",
      "type": "function"
    },
    {
      "inputs": [
        {
          "internalType": "address",
          "name": "user",
          "type": "address"
        },
        {
          "internalType": "uint256",
          "name": "debtRepaid",
          "type": "uint256"
        }
      ],
      "name": "seizeForBackstop",
      "outputs": [],
      "stateMutability": "nonpayable",
      "type": "function"
    },
    {
      "inputs": [],
      "name": "usdcToken",
      "outputs": [
        {
          "internalType": "contract IERC20",
          "name": "",
          "type": "address"
        }
      ],
      "stateMutability": "view",
      "type": "function"
    },
    {
      "inputs": [
        {
          "internalType": "address",
          "name": "",
          "type": "address"
        }
      ],
      "name": "userCollateralETH",
      "outputs": [
        {
          "internalType": "uint256",
          "name": "",
          "type": "uint256"
        }
      ],
      "stateMutability": "view",
      "type": "function"
    },
    {
      "inputs": [
        {
          "internalType": "address",
          "name": "",
          "type": "address"
        }
      ],
      "name": "userDebtUSDC",
      "outputs": [
        {
          "internalType": "uint256",
          "name": "",
          "type": "uint256"
        }
      ],
      "stateMutability": "view",
      "type": "function"
    },
    {
      "inputs": [
        {
          "internalType": "uint256",
          "name": "amount",
          "type": "uint256"
        }
      ],
      "name": "withdrawETH",
      "outputs": [],
      "stateMutability": "nonpayable",
      "type": "function"
    },
    {
      "inputs": [
        {
          "internalType": "uint256",
          "name": "amount",
          "type": "uint256"
        }
      ],
      "name": "withdrawLiquidity",
      "outputs": [],
      "stateMutability": "nonpayable",
      "type": "function"
    }
  ],
  "bytecode": "0x608034620000cb57601f6200159b38819003918201601f19168301916001600160401b03831184841017620000d057808492608094604052833981010312620000cb576200004d81620000e6565b906200005c60208201620000e6565b6200007860606200007060408501620000e6565b9301620000e6565b90600160005560018060a01b03928380928160018060a01b0319971687600154161760015516856002541617600255168360035416176003551690600454161760045560405161149f9081620000fc8239f35b600080fd5b634e487b7160e01b600052604160045260246000fd5b51906001600160a01b0382168203620000cb5756fe608060408181526004918236101561001657600080fd5b600092833560e01c91826302aaa42314610955575081630a861f2a1461079c57816311eac85514610773578163134e18f41461074a57816349bb4eda146107215781635370307c146106e9578163791428ff146106b15781637a9fe9ff1461050d5781637dc0d1d0146104e55781639236a51d146103cf57816393fd83a214610397578163bcbaf48714610360578163c5c056e014610328578163eb521a4c1461021a578163f14210a614610140575063f6326fb3146100d557600080fd5b8160031936011261013c576100e8610b1c565b6100f3341515610ab8565b3382526005602052808220610109348254610af9565b9055513481527fe1fffcc4923d04b559f4d29a8bfc6cda04eb5b0d3c460751c2402c5c5cc9109c60203392a26001815580f35b5080fd5b919050346102165760203660031901126102165781359161015f610b1c565b33845260056020528282852054106101dd57503383526005602052808320610188838254610b3f565b905561019333611414565b6101ac8380808086335af16101a6610b84565b50610bc4565b519081527f884edad9ce6fa2440d8a54cc123490eb96d2768479d49ff9c7366125a942436460203392a26001815580f35b6020606492519162461bcd60e51b83528201526014602482015273496e73756666696369656e742062616c616e636560601b6044820152fd5b8280fd5b9050346102165760208060031936011261032457610289818335809461023e610b1c565b610249821515610ab8565b60025487516323b872dd60e01b8152339281019283523060208401526040830193909352919384926001600160a01b03169183918a918391606090910190565b03925af190811561031a577f94bc5f8d3f578ca770bfc923cd46965317e299f60197d2a9f8c76102334c46149394916102c89187916102ed5750610bc4565b338552600882528085206102dd858254610af9565b9055519283523392a26001815580f35b61030d9150843d8611610313575b6103058183610b4c565b810190610c1a565b386101a6565b503d6102fb565b84513d87823e3d90fd5b8380fd5b50503461013c57602036600319011261013c5760209181906001600160a01b03610350610a9d565b1681526008845220549051908152f35b50503461013c573660031901126103945761038d61037c610a9d565b610384610b1c565b60243590610cec565b6001815580f35b80fd5b50503461013c57602036600319011261013c5760209181906001600160a01b036103bf610a9d565b1681526005845220549051908152f35b90503461021657602080600319360112610324578135916103ee610b1c565b6103f9831515610ab8565b338552600682528284862054106104b65760025484516323b872dd60e01b81523392810192835230602084015260408301859052918391839182900360600190829089906001600160a01b03165af190811561031a577f5c16de4f8b59bd9caf0f49a545f25819a895ed223294290b408242e72a594231939491610484918791610499575b50610c32565b338552600682528085206102dd858254610b3f565b6104b09150843d8611610313576103058183610b4c565b3861047e565b60649184519162461bcd60e51b8352820152600b60248201526a13dd995c9c185e5b595b9d60aa1b6044820152fd5b9050346102165782600319360112610216575490516001600160a01b03909116815260209150f35b905034610216576020806003193601126103245781359161052c610b1c565b6001548451630c3f6acf60e01b81526001600160a01b0391849082908590829086165afa9081156106a757879161067a575b5060038110156106675761061557836105c892849233895260068452878920610588848254610af9565b905561059333611414565b600254885163a9059cbb60e01b815233938101938452602084019490945292948593919091169183918a918391604090910190565b03925af190811561031a577fcbc04eca7e9da35cb1393a6135a199ca52e450d5e9251cbd99f7847d33a367509394916106079187916102ed5750610bc4565b519283523392a26001815580f35b5060849184519162461bcd60e51b8352820152602760248201527f50726f746f636f6c20696e205269736b204d6f64653a20426f72726f77696e676044820152660814185d5cd95960ca1b6064820152fd5b634e487b7160e01b875260218352602487fd5b61069a9150843d86116106a0575b6106928183610b4c565b810190610c02565b3861055e565b503d610688565b86513d89823e3d90fd5b50503461013c57602036600319011261013c5760209181906001600160a01b036106d9610a9d565b1681526006845220549051908152f35b50503461013c57602036600319011261013c5760209181906001600160a01b03610711610a9d565b1681526007845220549051908152f35b50503461013c578160031936011261013c5760015490516001600160a01b039091168152602090f35b50503461013c578160031936011261013c5760035490516001600160a01b039091168152602090f35b50503461013c578160031936011261013c5760025490516001600160a01b039091168152602090f35b90503461021657602080600319360112610324578135916107bb610b1c565b338552600882528284862054106109145760025484516370a0823160e01b815230838201526001600160a01b039184908290602490829086165afa80156106a757859188916108df575b501061089d578361085e92849233895260088452878920610827848254610b3f565b9055600254885163a9059cbb60e01b815233938101938452602084019490945292948593919091169183918a918391604090910190565b03925af190811561031a577f8291c2165fb22f13d0ed7fc85f1f2ac23027102c70d95f9459c42a59e241eaa59394916106079187916102ed5750610bc4565b5060649184519162461bcd60e51b8352820152601960248201527f506f6f6c207574696c697a6174696f6e20746f6f2068696768000000000000006044820152fd5b809250858092503d831161090d575b6108f88183610b4c565b810103126109095784905138610805565b8680fd5b503d6108ee565b60649184519162461bcd60e51b8352820152601760248201527f496e73756666696369656e74204c502062616c616e63650000000000000000006044820152fd5b9092915034610324578160031936011261032457610971610a9d565b926024359360018060a01b03908382600154166341005ff360e11b8252818560209788935afa908115610a93579083918991610a55575b50163303610a12571690818652600683528484872054106109de57506109d992916006918652528320918254610b3f565b905580f35b835162461bcd60e51b8152908101839052600e60248201526d1119589d081d1bdbc81cdb585b1b60921b6044820152606490fd5b845162461bcd60e51b8152808401859052601b60248201527f43616c6c6572206973206e6f74204261636b73746f7020506f6f6c00000000006044820152606490fd5b809250868092503d8311610a8c575b610a6e8183610b4c565b81010312610a8857518281168103610a88578290386109a8565b8780fd5b503d610a64565b86513d8a823e3d90fd5b600435906001600160a01b0382168203610ab357565b600080fd5b15610abf57565b60405162461bcd60e51b81526020600482015260126024820152710416d6f756e74206d757374206265203e20360741b6044820152606490fd5b91908201809211610b0657565b634e487b7160e01b600052601160045260246000fd5b600260005414610b2d576002600055565b604051633ee5aeb560e01b8152600490fd5b91908203918211610b0657565b90601f8019910116810190811067ffffffffffffffff821117610b6e57604052565b634e487b7160e01b600052604160045260246000fd5b3d15610bbf573d9067ffffffffffffffff8211610b6e5760405191610bb3601f8201601f191660200184610b4c565b82523d6000602084013e565b606090565b15610bcb57565b60405162461bcd60e51b815260206004820152600f60248201526e151c985b9cd9995c8819985a5b1959608a1b6044820152606490fd5b90816020910312610ab357516003811015610ab35790565b90816020910312610ab357518015158103610ab35790565b15610c3957565b60405162461bcd60e51b8152602060048201526014602482015273151c985b9cd9995c88119c9bdb4819985a5b195960621b6044820152606490fd5b90816060910312610ab35760405190606082019082821067ffffffffffffffff831117610b6e57604091825280518352602081015160208401520151604082015290565b81810292918115918404141715610b0657565b8115610cd6570490565b634e487b7160e01b600052601260045260246000fd5b60015460408051630c3f6acf60e01b81529394936001600160a01b0393600493602093929084908290879082908a165afa9081156112af57600091611292575b50600381101561127d5760028114611243578582169081600052600685528360002054891161120a57610d60891515610ab8565b6001610d6b846112ba565b5091036111bb57670d2f13f7789f0000111561116e576060949596975b87600354168451968780926382f01c8560e01b8252858b8301526024998a915afa90811561116357600091611135575b508481018051611075575b5060025485516323b872dd60e01b815233818b01908152306020820152604081018590529091889183918d16908290600090829060600103925af190811561106a57879291610e19916000916104995750610c32565b836000526006825285600020610e30848254610b3f565b9055015197606498890190818a116110225788541690866000898b895195869384926302c68be360e31b84528301525afa91821561106a57908a91600093611036575b50610e7e9084610cb9565b04670de0b6b3a7640000908181029181830414901517156110225790610ea391610ccc565b826000526005865280856000205410610fd757826000526005865284600020610ecd828254610b3f565b9055600080808084335af1610ee0610b84565b5015610fa057845191825285820152817f1f0c6615429d1cdae0dfa233abf91d3b31cdbdd82c8081389832a61e1072f1ea853393a360005260068352816000205415610f2f575b505050505050565b60058352816000209081549081610f48575b5050610f27565b6000809392819392828094555af1610f5e610b84565b5015610f6c57808080610f41565b5162461bcd60e51b815292830152601590820152741499599d5b99081d1bc81d5cd95c8819985a5b1959605a1b6044820152fd5b845162461bcd60e51b81528089018790526013818901527211551208151c985b9cd9995c8819985a5b1959606a1b60448201528990fd5b845162461bcd60e51b81528089018790526021818901527f436f6c6c61746572616c20696e73756666696369656e7420666f7220626f6e756044820152607360f81b818b0152608490fd5b8760118a634e487b7160e01b600052526000fd5b9150918782813d8311611063575b61104e8183610b4c565b81010312610394575051908990610e7e610e73565b503d611044565b86513d6000823e3d90fd5b83600099969798959499526007885286600020549081156000146110d35750505050505050827f26cebf317338e2cf649fcda3377df64eba66cfff88183b6e6af43e6ab676405c9394506000526007825242816000205551428152a2565b906110e691999495989796995190610af9565b42111561110157826000526007865260008581205538610dc3565b845162461bcd60e51b8152808901879052600f818901526e125b8811dc9858d94814195c9a5bd9608a1b6044820152606490fd5b611156915060603d811161115c575b61114e8183610b4c565b810190610c75565b38610db8565b503d611144565b85513d6000823e3d90fd5b50505162461bcd60e51b815291820152602160248201527f59656c6c6f77204d6f64653a204e6f7420646565706c7920696e736f6c76656e6044820152601d60fa1b606482015260849150fd5b670de0b6b3a764000011156111d557606094959697610d88565b50505162461bcd60e51b815291820152600f60248201526e55736572206973206865616c74687960881b604482015260649150fd5b835162461bcd60e51b81528087018690526013602482015272105b5bdd5b9d08195e18d959591cc81919589d606a1b6044820152606490fd5b50505162461bcd60e51b8152918201526014602482015273526564204d6f64653a205573652053706f6e676560601b604482015260649150fd5b602185634e487b7160e01b6000525260246000fd5b6112a99150843d86116106a0576106928183610b4c565b38610d2c565b83513d6000823e3d90fd5b6001600160a01b039081166000818152600560209081526040808320546006835281842054949293929085156114055760248588600454168551928380926302c68be360e31b82528960048301525afa95861561031a5785966113d4575b5050606090611331670de0b6b3a7640000968792610cb9565b0496600354169160248451809481936382f01c8560e01b835260048301525afa9182156113cb57509061136d9183916113ad575b505185610cb9565b828102928184041490151715611399576064830292830460640361139957509061139691610ccc565b91565b634e487b7160e01b81526011600452602490fd5b6113c5915060603d811161115c5761114e8183610b4c565b38611365565b513d84823e3d90fd5b9080929650813d83116113fe575b6113ec8183610b4c565b81010312610324575193606038611318565b503d6113e2565b50505093925050506000199190565b611426670de0b6b3a7640000916112ba565b501061142e57565b60405162461bcd60e51b815260206004820152601360248201527204865616c746820466163746f72203c20312e3606c1b6044820152606490fdfea2646970667358221220e855d071224f7bab294ee102261697b707a9763bb09b387f577a4ee5ee0247c564736f6c63430008140033",
  "linkReferences": {},
  "deployedLinkReferences": {}
}