{
  "_format": "hh-sol-artifact-1",
  "contractName": "AegisPool",
  "sourceName": "contracts/core/AegisPool.sol",
  "abi": [
    {
      "inputs": [
        {
          "internalType": "address",
          "name": "_aegisCore",
          "type": "address"
        },
        {
          "internalType": "address",
          "name": "_usdcToken",
          "type": "address"
        },
        {
          "internalType": "address",
          "name": "_identityRegistry",
          "type": "address"
        },
        {
          "internalType": "address",
          "name": "_oracle",
          "type": "address"
        }
      ],
      "stateMutability": "nonpayable",
      "type": "constructor"
    },
    {
      "inputs": [],
      "name": "ReentrancyGuardReentrantCall",
      "type": "error"
    },
    {
      "anonymous": false,
      "inputs": [
        {
          "indexed": true,
          "internalType": "address",
          "name": "user",
          "type": "address"
        },
        {
          "indexed": false,
          "internalType": "uint256",
          "name": "amount",
          "type": "uint256"
        }
      ],
      "name": "Borrow",
      "type": "event"
    },
    {
      "anonymous": false,
      "inputs": [
        {
          "indexed": true,
          "internalType": "address",
          "name": "user",
          "type": "address"
        },
        {
          "indexed": false,
          "internalType": "uint256",
          "name": "amount",
          "type": "uint256"
        }
      ],
      "name": "Deposit",
      "type": "event"
    },
    {
      "anonymous": false,
      "inputs": [
        {
          "indexed": true,
          "internalType": "address",
          "name": "user",
          "type": "address"
        },
        {
          "indexed": true,
          "internalType": "address",
          "name": "liquidator",
          "type": "address"
        },
        {
          "indexed": false,
          "internalType": "uint256",
          "name": "debtRepaid",
          "type": "uint256"
        },
        {
          "indexed": false,
          "internalType": "uint256",
          "name": "collateralSeized",
          "type": "uint256"
        }
      ],
      "name": "Liquidated",
      "type": "event"
    },
    {
      "anonymous": false,
      "inputs": [
        {
          "indexed": true,
          "internalType": "address",
          "name": "user",
          "type": "address"
        },
        {
          "indexed": false,
          "internalType": "uint256",
          "name": "timestamp",
          "type": "uint256"
        }
      ],
      "name": "ProbationStarted",
      "type": "event"
    },
    {
      "anonymous": false,
      "inputs": [
        {
          "indexed": true,
          "internalType": "address",
          "name": "provider",
          "type": "address"
        },
        {
          "indexed": false,
          "internalType": "uint256",
          "name": "amount",
          "type": "uint256"
        }
      ],
      "name": "ProvideLiquidity",
      "type": "event"
    },
    {
      "anonymous": false,
      "inputs": [
        {
          "indexed": true,
          "internalType": "address",
          "name": "user",
          "type": "address"
        },
        {
          "indexed": false,
          "internalType": "uint256",
          "name": "amount",
          "type": "uint256"
        }
      ],
      "name": "Repay",
      "type": "event"
    },
    {
      "anonymous": false,
      "inputs": [
        {
          "indexed": true,
          "internalType": "address",
          "name": "user",
          "type": "address"
        },
        {
          "indexed": false,
          "internalType": "uint256",
          "name": "amount",
          "type": "uint256"
        }
      ],
      "name": "Withdraw",
      "type": "event"
    },
    {
      "anonymous": false,
      "inputs": [
        {
          "indexed": true,
          "internalType": "address",
          "name": "provider",
          "type": "address"
        },
        {
          "indexed": false,
          "internalType": "uint256",
          "name": "amount",
          "type": "uint256"
        }
      ],
      "name": "WithdrawLiquidity",
      "type": "event"
    },
    {
      "inputs": [],
      "name": "aegisCore",
      "outputs": [
        {
          "internalType": "contract AegisCore",
          "name": "",
          "type": "address"
        }
      ],
      "stateMutability": "view",
      "type": "function"
    },
    {
      "inputs": [
        {
          "internalType": "uint256",
          "name": "amount",
          "type": "uint256"
        }
      ],
      "name": "borrowUSDC",
      "outputs": [],
      "stateMutability": "nonpayable",
      "type": "function"
    },
    {
      "inputs": [],
      "name": "depositETH",
      "outputs": [],
      "stateMutability": "payable",
      "type": "function"
    },
    {
      "inputs": [],
      "name": "identityRegistry",
      "outputs": [
        {
          "internalType": "contract IUnstoppable",
          "name": "",
          "type": "address"
        }
      ],
      "stateMutability": "view",
      "type": "function"
    },
    {
      "inputs": [
        {
          "internalType": "address",
          "name": "user",
          "type": "address"
        },
        {
          "internalType": "uint256",
          "name": "debtToCover",
          "type": "uint256"
        }
      ],
      "name": "liquidate",
      "outputs": [],
      "stateMutability": "nonpayable",
      "type": "function"
    },
    {
      "inputs": [
        {
          "internalType": "address",
          "name": "",
          "type": "address"
        }
      ],
      "name": "liquidityProviderBalance",
      "outputs": [
        {
          "internalType": "uint256",
          "name": "",
          "type": "uint256"
        }
      ],
      "stateMutability": "view",
      "type": "function"
    },
    {
      "inputs": [],
      "name": "oracle",
      "outputs": [
        {
          "internalType": "contract IAegisOracle",
          "name": "",
          "type": "address"
        }
      ],
      "stateMutability": "view",
      "type": "function"
    },
    {
      "inputs": [
        {
          "internalType": "address",
          "name": "",
          "type": "address"
        }
      ],
      "name": "probationStart",
      "outputs": [
        {
          "internalType": "uint256",
          "name": "",
          "type": "uint256"
        }
      ],
      "stateMutability": "view",
      "type": "function"
    },
    {
      "inputs": [
        {
          "internalType": "uint256",
          "name": "amount",
          "type": "uint256"
        }
      ],
      "name": "provideLiquidity",
      "outputs": [],
      "stateMutability": "nonpayable",
      "type": "function"
    },
    {
      "inputs": [
        {
          "internalType": "uint256",
          "name": "amount",
          "type": "uint256"
        }
      ],
      "name": "repayUSDC",
      "outputs": [],
      "stateMutability": "nonpayable",
      "type": "function"
    },
    {
      "inputs": [
        {
          "internalType": "address",
          "name": "user",
          "type": "address"
        }
      ],
      "name": "rescuePosition",
      "outputs": [
        {
          "internalType": "uint256",
          "name": "debtPaid",
          "type": "uint256"
        },
        {
          "internalType": "uint256",
          "name": "collateralSeized",
          "type": "uint256"
        }
      ],
      "stateMutability": "nonpayable",
      "type": "function"
    },
    {
      "inputs": [
        {
          "internalType": "address",
          "name": "user",
          "type": "address"
        },
        {
          "internalType": "uint256",
          "name": "debtRepaid",
          "type": "uint256"
        }
      ],
      "name": "seizeForBackstop",
      "outputs": [],
      "stateMutability": "nonpayable",
      "type": "function"
    },
    {
      "inputs": [],
      "name": "usdcToken",
      "outputs": [
        {
          "internalType": "contract IERC20",
          "name": "",
          "type": "address"
        }
      ],
      "stateMutability": "view",
      "type": "function"
    },
    {
      "inputs": [
        {
          "internalType": "address",
          "name": "",
          "type": "address"
        }
      ],
      "name": "userCollateralETH",
      "outputs": [
        {
          "internalType": "uint256",
          "name": "",
          "type": "uint256"
        }
      ],
      "stateMutability": "view",
      "type": "function"
    },
    {
      "inputs": [
        {
          "internalType": "address",
          "name": "",
          "type": "address"
        }
      ],
      "name": "userDebtUSDC",
      "outputs": [
        {
          "internalType": "uint256",
          "name": "",
          "type": "uint256"
        }
      ],
      "stateMutability": "view",
      "type": "function"
    },
    {
      "inputs": [
        {
          "internalType": "uint256",
          "name": "amount",
          "type": "uint256"
        }
      ],
      "name": "withdrawETH",
      "outputs": [],
      "stateMutability": "nonpayable",
      "type": "function"
    },
    {
      "inputs": [
        {
          "internalType": "uint256",
          "name": "amount",
          "type": "uint256"
        }
      ],
      "name": "withdrawLiquidity",
      "outputs": [],
      "stateMutability": "nonpayable",
      "type": "function"
    }
  ],
  "bytecode": "0x608034620000cb57601f620018e638819003918201601f19168301916001600160401b03831184841017620000d057808492608094604052833981010312620000cb576200004d81620000e6565b906200005c60208201620000e6565b6200007860606200007060408501620000e6565b9301620000e6565b90600160005560018060a01b03928380928160018060a01b031997168760015416176001551685600254161760025516836003541617600355169060045416176004556040516117ea9081620000fc8239f35b600080fd5b634e487b7160e01b600052604160045260246000fd5b51906001600160a01b0382168203620000cb5756fe608060408181526004918236101561001657600080fd5b600092833560e01c91826302aaa42314610ca2575081630a861f2a14610ae957816311eac85514610ac0578163134e18f414610a9757816349bb4eda14610a6e5781635370307c14610a3657816374393a93146106f7578163791428ff146106bf5781637a9fe9ff146105185781637dc0d1d0146104f05781639236a51d146103da57816393fd83a2146103a2578163bcbaf4871461036b578163c5c056e014610333578163eb521a4c14610225578163f14210a61461014b575063f6326fb3146100e057600080fd5b81600319360112610147576100f3610e48565b6100fe341515610de4565b3382526005602052808220610114348254610e25565b9055513481527fe1fffcc4923d04b559f4d29a8bfc6cda04eb5b0d3c460751c2402c5c5cc9109c60203392a26001815580f35b5080fd5b919050346102215760203660031901126102215781359161016a610e48565b33845260056020528282852054106101e857503383526005602052808320610193838254610e6b565b905561019e33611740565b6101b78380808086335af16101b1610eb0565b50610ef0565b519081527f884edad9ce6fa2440d8a54cc123490eb96d2768479d49ff9c7366125a942436460203392a26001815580f35b6020606492519162461bcd60e51b83528201526014602482015273496e73756666696369656e742062616c616e636560601b6044820152fd5b8280fd5b9050346102215760208060031936011261032f576102948183358094610249610e48565b610254821515610de4565b60025487516323b872dd60e01b8152339281019283523060208401526040830193909352919384926001600160a01b03169183918a918391606090910190565b03925af1908115610325577f94bc5f8d3f578ca770bfc923cd46965317e299f60197d2a9f8c76102334c46149394916102d39187916102f85750610ef0565b338552600882528085206102e8858254610e25565b9055519283523392a26001815580f35b6103189150843d861161031e575b6103108183610e78565b810190610f46565b386101b1565b503d610306565b84513d87823e3d90fd5b8380fd5b5050346101475760203660031901126101475760209181906001600160a01b0361035b610dc9565b1681526008845220549051908152f35b5050346101475736600319011261039f57610398610387610dc9565b61038f610e48565b60243590611018565b6001815580f35b80fd5b5050346101475760203660031901126101475760209181906001600160a01b036103ca610dc9565b1681526005845220549051908152f35b9050346102215760208060031936011261032f578135916103f9610e48565b610404831515610de4565b338552600682528284862054106104c15760025484516323b872dd60e01b81523392810192835230602084015260408301859052918391839182900360600190829089906001600160a01b03165af1908115610325577f5c16de4f8b59bd9caf0f49a545f25819a895ed223294290b408242e72a59423193949161048f9187916104a4575b50610f5e565b338552600682528085206102e8858254610e6b565b6104bb9150843d861161031e576103108183610e78565b38610489565b60649184519162461bcd60e51b8352820152600b60248201526a13dd995c9c185e5b595b9d60aa1b6044820152fd5b9050346102215782600319360112610221575490516001600160a01b03909116815260209150f35b9050346102215760208060031936011261032f57813591610537610e48565b6001548451630c3f6acf60e01b81526001600160a01b0391849082908590829086165afa9081156106b5578791610688575b5060038110156106755760021461062357836105d692849233895260068452878920610596848254610e25565b90556105a133611740565b600254885163a9059cbb60e01b815233938101938452602084019490945292948593919091169183918a918391604090910190565b03925af1908115610325577fcbc04eca7e9da35cb1393a6135a199ca52e450d5e9251cbd99f7847d33a367509394916106159187916102f85750610ef0565b519283523392a26001815580f35b5060849184519162461bcd60e51b8352820152602760248201527f50726f746f636f6c20696e205269736b204d6f64653a20426f72726f77696e676044820152660814185d5cd95960ca1b6064820152fd5b634e487b7160e01b875260218352602487fd5b6106a89150843d86116106ae575b6106a08183610e78565b810190610f2e565b38610569565b503d610696565b86513d89823e3d90fd5b5050346101475760203660031901126101475760209181906001600160a01b036106e7610dc9565b1681526006845220549051908152f35b839150346101475760208060031936011261022157610714610dc9565b9261071d610e48565b60015485516341005ff360e11b81526001600160a01b03959184908290879082908a165afa90811561093e579086918491610a09575b501633036109d657841680825260068352858220549485156109a95760025487516323b872dd60e01b8152338782019081523060208201526040810189905290918691839185169082908890829060600103925af190811561099f578491610982575b501561094857836024918385526006825284898120558654168851928380926302c68be360e31b8252878a8301525afa90811561093e578391610911575b50670de0b6b3a76400008602670de0b6b3a763ffff19878204016108fe579061081c91610ff8565b606e810290808204606e14901517156108eb5760649004938183526005845286832080548087116108e3575b8661085291610e6b565b90558280808088335af1610864610eb0565b50156108aa57509060019186519086825285858301527f1f0c6615429d1cdae0dfa233abf91d3b31cdbdd82c8081389832a61e1072f1ea883393a3558351928352820152f35b865162461bcd60e51b81529081018490526013602482015272115512081d1c985b9cd9995c8819985a5b1959606a1b6044820152606490fd5b955085610848565b634e487b7160e01b835260118552602483fd5b634e487b7160e01b845260118652602484fd5b90508381813d8311610937575b6109288183610e78565b810103126102215751876107f4565b503d61091e565b87513d85823e3d90fd5b865162461bcd60e51b815280860185905260146024820152731554d110c81d1c985b9cd9995c8819985a5b195960621b6044820152606490fd5b6109999150853d871161031e576103108183610e78565b886107b6565b88513d86823e3d90fd5b865162461bcd60e51b81528086018590526007602482015266139bc81919589d60ca1b6044820152606490fd5b855162461bcd60e51b8152808501849052600d60248201526c04f6e6c79204261636b73746f7609c1b6044820152606490fd5b610a299150853d8711610a2f575b610a218183610e78565b810190611795565b88610753565b503d610a17565b5050346101475760203660031901126101475760209181906001600160a01b03610a5e610dc9565b1681526007845220549051908152f35b50503461014757816003193601126101475760015490516001600160a01b039091168152602090f35b50503461014757816003193601126101475760035490516001600160a01b039091168152602090f35b50503461014757816003193601126101475760025490516001600160a01b039091168152602090f35b9050346102215760208060031936011261032f57813591610b08610e48565b33855260088252828486205410610c615760025484516370a0823160e01b815230838201526001600160a01b039184908290602490829086165afa80156106b55785918891610c2c575b5010610bea5783610bab92849233895260088452878920610b74848254610e6b565b9055600254885163a9059cbb60e01b815233938101938452602084019490945292948593919091169183918a918391604090910190565b03925af1908115610325577f8291c2165fb22f13d0ed7fc85f1f2ac23027102c70d95f9459c42a59e241eaa59394916106159187916102f85750610ef0565b5060649184519162461bcd60e51b8352820152601960248201527f506f6f6c207574696c697a6174696f6e20746f6f2068696768000000000000006044820152fd5b809250858092503d8311610c5a575b610c458183610e78565b81010312610c565784905138610b52565b8680fd5b503d610c3b565b60649184519162461bcd60e51b8352820152601760248201527f496e73756666696369656e74204c502062616c616e63650000000000000000006044820152fd5b909291503461032f578160031936011261032f57610cbe610dc9565b926024359360018060a01b03908382600154166341005ff360e11b8252818560209788935afa908115610dbf579083918991610da2575b50163303610d5f57169081865260068352848487205410610d2b5750610d2692916006918652528320918254610e6b565b905580f35b835162461bcd60e51b8152908101839052600e60248201526d1119589d081d1bdbc81cdb585b1b60921b6044820152606490fd5b845162461bcd60e51b8152808401859052601b60248201527f43616c6c6572206973206e6f74204261636b73746f7020506f6f6c00000000006044820152606490fd5b610db99150863d8811610a2f57610a218183610e78565b38610cf5565b86513d8a823e3d90fd5b600435906001600160a01b0382168203610ddf57565b600080fd5b15610deb57565b60405162461bcd60e51b81526020600482015260126024820152710416d6f756e74206d757374206265203e20360741b6044820152606490fd5b91908201809211610e3257565b634e487b7160e01b600052601160045260246000fd5b600260005414610e59576002600055565b604051633ee5aeb560e01b8152600490fd5b91908203918211610e3257565b90601f8019910116810190811067ffffffffffffffff821117610e9a57604052565b634e487b7160e01b600052604160045260246000fd5b3d15610eeb573d9067ffffffffffffffff8211610e9a5760405191610edf601f8201601f191660200184610e78565b82523d6000602084013e565b606090565b15610ef757565b60405162461bcd60e51b815260206004820152600f60248201526e151c985b9cd9995c8819985a5b1959608a1b6044820152606490fd5b90816020910312610ddf57516003811015610ddf5790565b90816020910312610ddf57518015158103610ddf5790565b15610f6557565b60405162461bcd60e51b8152602060048201526014602482015273151c985b9cd9995c88119c9bdb4819985a5b195960621b6044820152606490fd5b90816060910312610ddf5760405190606082019082821067ffffffffffffffff831117610e9a57604091825280518352602081015160208401520151604082015290565b81810292918115918404141715610e3257565b8115611002570490565b634e487b7160e01b600052601260045260246000fd5b60015460408051630c3f6acf60e01b81529394936001600160a01b0393600493602093929084908290879082908a165afa9081156115db576000916115be575b5060038110156115a9576002811461156f57858216908160005260068552836000205489116115365761108c891515610de4565b6001611097846115e6565b5091036114e757670d2f13f7789f0000111561149a576060949596975b87600354168451968780926382f01c8560e01b8252858b8301526024998a915afa90811561148f57600091611461575b5084810180516113a1575b5060025485516323b872dd60e01b815233818b01908152306020820152604081018590529091889183918d16908290600090829060600103925af190811561139657879291611145916000916104a45750610f5e565b83600052600682528560002061115c848254610e6b565b9055015197606498890190818a1161134e5788541690866000898b895195869384926302c68be360e31b84528301525afa91821561139657908a91600093611362575b506111aa9084610fe5565b04670de0b6b3a76400009081810291818304149015171561134e57906111cf91610ff8565b826000526005865280856000205410611303578260005260058652846000206111f9828254610e6b565b9055600080808084335af161120c610eb0565b50156112cc57845191825285820152817f1f0c6615429d1cdae0dfa233abf91d3b31cdbdd82c8081389832a61e1072f1ea853393a36000526006835281600020541561125b575b505050505050565b60058352816000209081549081611274575b5050611253565b6000809392819392828094555af161128a610eb0565b50156112985780808061126d565b5162461bcd60e51b815292830152601590820152741499599d5b99081d1bc81d5cd95c8819985a5b1959605a1b6044820152fd5b845162461bcd60e51b81528089018790526013818901527211551208151c985b9cd9995c8819985a5b1959606a1b60448201528990fd5b845162461bcd60e51b81528089018790526021818901527f436f6c6c61746572616c20696e73756666696369656e7420666f7220626f6e756044820152607360f81b818b0152608490fd5b8760118a634e487b7160e01b600052526000fd5b9150918782813d831161138f575b61137a8183610e78565b8101031261039f5750519089906111aa61119f565b503d611370565b86513d6000823e3d90fd5b83600099969798959499526007885286600020549081156000146113ff5750505050505050827f26cebf317338e2cf649fcda3377df64eba66cfff88183b6e6af43e6ab676405c9394506000526007825242816000205551428152a2565b9061141291999495989796995190610e25565b42111561142d578260005260078652600085812055386110ef565b845162461bcd60e51b8152808901879052600f818901526e125b8811dc9858d94814195c9a5bd9608a1b6044820152606490fd5b611482915060603d8111611488575b61147a8183610e78565b810190610fa1565b386110e4565b503d611470565b85513d6000823e3d90fd5b50505162461bcd60e51b815291820152602160248201527f59656c6c6f77204d6f64653a204e6f7420646565706c7920696e736f6c76656e6044820152601d60fa1b606482015260849150fd5b670de0b6b3a76400001115611501576060949596976110b4565b50505162461bcd60e51b815291820152600f60248201526e55736572206973206865616c74687960881b604482015260649150fd5b835162461bcd60e51b81528087018690526013602482015272105b5bdd5b9d08195e18d959591cc81919589d606a1b6044820152606490fd5b50505162461bcd60e51b8152918201526014602482015273526564204d6f64653a205573652053706f6e676560601b604482015260649150fd5b602185634e487b7160e01b6000525260246000fd5b6115d59150843d86116106ae576106a08183610e78565b38611058565b83513d6000823e3d90fd5b6001600160a01b039081166000818152600560209081526040808320546006835281842054949293929085156117315760248588600454168551928380926302c68be360e31b82528960048301525afa958615610325578596611700575b505060609061165d670de0b6b3a7640000968792610fe5565b0496600354169160248451809481936382f01c8560e01b835260048301525afa9182156116f75750906116999183916116d9575b505185610fe5565b8281029281840414901517156116c557606483029283046064036116c55750906116c291610ff8565b91565b634e487b7160e01b81526011600452602490fd5b6116f1915060603d81116114885761147a8183610e78565b38611691565b513d84823e3d90fd5b9080929650813d831161172a575b6117188183610e78565b8101031261032f575193606038611644565b503d61170e565b50505093925050506000199190565b611752670de0b6b3a7640000916115e6565b501061175a57565b60405162461bcd60e51b815260206004820152601360248201527204865616c746820466163746f72203c20312e3606c1b6044820152606490fd5b90816020910312610ddf57516001600160a01b0381168103610ddf579056fea2646970667358221220ae2cf6b843b4758f44d5e9345f951c3511a017fa8e5869f23770279c398b3c1b64736f6c63430008140033",
  "linkReferences": {},
  "deployedLinkReferences": {}
}