{
  "_format": "hh-sol-artifact-1",
  "contractName": "BackstopPool",
  "sourceName": "contracts/core/BackstopPool.sol",
  "abi": [
    {
      "inputs": [
        {
          "internalType": "address",
          "name": "_usdcToken",
          "type": "address"
        },
        {
          "internalType": "address",
          "name": "_cowSwap",
          "type": "address"
        },
        {
          "internalType": "address",
          "name": "_identityRegistry",
          "type": "address"
        }
      ],
      "stateMutability": "nonpayable",
      "type": "constructor"
    },
    {
      "inputs": [],
      "name": "ReentrancyGuardReentrantCall",
      "type": "error"
    },
    {
      "anonymous": false,
      "inputs": [
        {
          "indexed": true,
          "internalType": "address",
          "name": "borrower",
          "type": "address"
        },
        {
          "indexed": false,
          "internalType": "uint256",
          "name": "collateralAmount",
          "type": "uint256"
        },
        {
          "indexed": false,
          "internalType": "uint256",
          "name": "debtAbsorbed",
          "type": "uint256"
        }
      ],
      "name": "CollateralSeized",
      "type": "event"
    },
    {
      "anonymous": false,
      "inputs": [
        {
          "indexed": true,
          "internalType": "address",
          "name": "borrower",
          "type": "address"
        },
        {
          "indexed": false,
          "internalType": "uint256",
          "name": "amount",
          "type": "uint256"
        }
      ],
      "name": "DarkPoolRouteActive",
      "type": "event"
    },
    {
      "anonymous": false,
      "inputs": [
        {
          "indexed": true,
          "internalType": "address",
          "name": "borrower",
          "type": "address"
        },
        {
          "indexed": false,
          "internalType": "uint256",
          "name": "timestamp",
          "type": "uint256"
        }
      ],
      "name": "ProbationStarted",
      "type": "event"
    },
    {
      "inputs": [
        {
          "internalType": "address",
          "name": "borrower",
          "type": "address"
        },
        {
          "internalType": "uint256",
          "name": "collateralAmount",
          "type": "uint256"
        },
        {
          "internalType": "uint256",
          "name": "debtAmount",
          "type": "uint256"
        }
      ],
      "name": "absorbPosition",
      "outputs": [],
      "stateMutability": "nonpayable",
      "type": "function"
    },
    {
      "inputs": [],
      "name": "aegisCore",
      "outputs": [
        {
          "internalType": "address",
          "name": "",
          "type": "address"
        }
      ],
      "stateMutability": "view",
      "type": "function"
    },
    {
      "inputs": [],
      "name": "cowSwap",
      "outputs": [
        {
          "internalType": "contract ICoWSwap",
          "name": "",
          "type": "address"
        }
      ],
      "stateMutability": "view",
      "type": "function"
    },
    {
      "inputs": [],
      "name": "identityRegistry",
      "outputs": [
        {
          "internalType": "contract IUnstoppable",
          "name": "",
          "type": "address"
        }
      ],
      "stateMutability": "view",
      "type": "function"
    },
    {
      "inputs": [
        {
          "internalType": "bytes32",
          "name": "_hash",
          "type": "bytes32"
        },
        {
          "internalType": "bytes",
          "name": "_signature",
          "type": "bytes"
        }
      ],
      "name": "isValidSignature",
      "outputs": [
        {
          "internalType": "bytes4",
          "name": "",
          "type": "bytes4"
        }
      ],
      "stateMutability": "view",
      "type": "function"
    },
    {
      "inputs": [
        {
          "internalType": "address",
          "name": "",
          "type": "address"
        }
      ],
      "name": "probationStart",
      "outputs": [
        {
          "internalType": "uint256",
          "name": "",
          "type": "uint256"
        }
      ],
      "stateMutability": "view",
      "type": "function"
    },
    {
      "inputs": [
        {
          "internalType": "address",
          "name": "_aegisCore",
          "type": "address"
        }
      ],
      "name": "setAegisCore",
      "outputs": [],
      "stateMutability": "nonpayable",
      "type": "function"
    },
    {
      "inputs": [
        {
          "internalType": "address",
          "name": "borrower",
          "type": "address"
        }
      ],
      "name": "triggerProbation",
      "outputs": [],
      "stateMutability": "nonpayable",
      "type": "function"
    },
    {
      "inputs": [],
      "name": "usdcToken",
      "outputs": [
        {
          "internalType": "contract IERC20",
          "name": "",
          "type": "address"
        }
      ],
      "stateMutability": "view",
      "type": "function"
    },
    {
      "stateMutability": "payable",
      "type": "receive"
    }
  ],
  "bytecode": "0x6080346100a557601f610c3138819003918201601f19168301916001600160401b038311848410176100aa578084926060946040528339810103126100a557610047816100c0565b906100606040610059602084016100c0565b92016100c0565b600160005560018060a01b0380928160018060a01b031995168560025416176002551683600354161760035516906004541617600455604051610b5c90816100d58239f35b600080fd5b634e487b7160e01b600052604160045260246000fd5b51906001600160a01b03821682036100a55756fe6080604081815260049081361015610022575b505050361561002057600080fd5b005b600092833560e01c90816311eac855146109a157508063134e18f4146109795780631626ba7e1461090357806349bb4eda146108da5780635370307c146108a2578063653a912314610879578063bd9aa77c146107f9578063f004ea9d1461047e5763f02ae5f20361001257346102c65760603660031901126102c6576100a7610a1a565b90602492833590604490813591600288541461046f57600288556001546001600160a01b0392908316330361041f5782606081835416988a8951809481936382f01c8560e01b8352169b8c878301525afa908115610415578a916103e7575b5080518087029087820414871517156103d5576064860290868204606414871517156103c357101561038257860180516102db575b5088836002541693875180956370a0823160e01b82523085830152818c60209889935afa9081156102d157908791849161029c575b5010610214579184939161dead9360025416878a519c8d96879563a9059cbb60e01b87528601528401525af195861561020a577f6f23af14d6a710456375aa91b4f1fcced2632f9c42da2fb1825440b70b20ab1495966101dd575b508351928352820152a25b6001815580f35b6101fc90823d8411610203575b6101f481836109c6565b810190610a9c565b50386101cb565b503d6101ea565b84513d89823e3d90fd5b849795509080939291600354168787519b8c96879563164bc5cd60e31b87528601528401525af1948515610292577fa512f48cf7edcf071e05fffa47294d8e203bb3a8fc426d47e9308bfaf2de66519495610275575b5051908152a26101d6565b61028b90843d8611610203576101f481836109c6565b503861026a565b81513d88823e3d90fd5b809250878092503d83116102ca575b6102b581836109c6565b810103126102c65786905138610170565b8280fd5b503d6102ab565b89513d85823e3d90fd5b878a526005602052868a20549081156103495751810180911161033757421115610305573861013b565b6e125b8811dc9858d94814195c9a5bd9608a1b606492600f8a60208a519562461bcd60e51b8752860152840152820152fd5b634e487b7160e01b8a5260118252888afd5b875162461bcd60e51b81526020818501526015818c015274141c9bd8985d1a5bdb881b9bdd081cdd185c9d1959605a1b81860152606490fd5b507f5573657220697320536f6c7661626c6520284846203e3d20312e302900000000606492601c8a60208a519562461bcd60e51b8752860152840152820152fd5b634e487b7160e01b8c52601184528a8cfd5b634e487b7160e01b8b5260118352898bfd5b610408915060603d811161040e575b61040081836109c6565b810190610a58565b38610106565b503d6103f6565b87513d8c823e3d90fd5b7f4f6e6c7920416567697320436f72652063616e20696e6974696174652061627360849260278a60208a519562461bcd60e51b87528601528401528201526637b9383a34b7b760c91b6064820152fd5b508351633ee5aeb560e01b8152fd5b5091346107f657602092836003193601126107f25761049b610a1a565b83548251632fafb1ad60e21b81523381870152602494926001600160a01b03928316929184818881875afa80156107e85790839291610764575b50606090878751809481936382f01c8560e01b83521696878c8301525afa80156107015790879291610746575b50878160015416865193848092630ef4d84760e41b82525afa9182156107015784918991839461070b575b5060448160025416948851948593849263095ea7b360e01b84521696878d8401526000198c8401525af180156107015791859185936106e4575b50868251809481936374393a9360e01b8352878c8401525af19081849185936106aa575b50610679575050508060033d11610669575b506308c379a0146105d9575b90606493600d92519362461bcd60e51b85528401528201526c14995cd8dd594811985a5b1959609a1b6044820152fd5b6105e1610ab4565b806105ec57506105a9565b90604493928161065b92519061063a602f838a8101976e02932b9b1bab2902330b4b632b21d1608d1b895261062a8c82519283918686019101610a35565b810103600f8101855201836109c6565b5196879562461bcd60e51b8752860152519283809286015285850190610a35565b601f01601f19168101030190fd5b90508381803e5160e01c3861059d565b7f6f23af14d6a710456375aa91b4f1fcced2632f9c42da2fb1825440b70b20ab14918591898351928352820152a280f35b86809294508193503d83116106dd575b6106c481836109c6565b810103126106d957878151910151913861058b565b8380fd5b503d6106ba565b6106fa908a3d8c11610203576101f481836109c6565b5038610567565b85513d86823e3d90fd5b9250925081813d831161073f575b61072381836109c6565b810103126106d9575181811681036106d957878491923861052d565b503d610719565b61075d9060603d811161040e5761040081836109c6565b5038610502565b9091503d8086833e61077681836109c6565b81019089818303126107e45780519067ffffffffffffffff82116107e0570181601f820112156107e4578051916107ac836109fe565b906107b9895192836109c6565b8382528b84840101116107e0576060928594928c806107da94019101610a35565b906104d5565b8680fd5b8580fd5b86513d87823e3d90fd5b5080fd5b80fd5b50346102c65760203660031901126102c657610813610a1a565b600154926001600160a01b039283851661084357505016906bffffffffffffffffffffffff60a01b161760015580f35b906020606492519162461bcd60e51b8352820152601060248201526f10dbdc9948185b1c9958591e481cd95d60821b6044820152fd5b8382346107f257816003193601126107f25760035490516001600160a01b039091168152602090f35b8382346107f25760203660031901126107f25760209181906001600160a01b036108ca610a1a565b1681526005845220549051908152f35b8382346107f257816003193601126107f25760015490516001600160a01b039091168152602090f35b5082346107f657816003193601126107f6576024359267ffffffffffffffff84116107f257366023850112156107f25783013561093f816109fe565b9361094c845195866109c6565b81855236602483830101116102c657906020948160248794018483013701015251630b135d3f60e11b8152f35b5090346102c657826003193601126102c6575490516001600160a01b03909116815260209150f35b8490346107f257816003193601126107f2576002546001600160a01b03168152602090f35b90601f8019910116810190811067ffffffffffffffff8211176109e857604052565b634e487b7160e01b600052604160045260246000fd5b67ffffffffffffffff81116109e857601f01601f191660200190565b600435906001600160a01b0382168203610a3057565b600080fd5b60005b838110610a485750506000910152565b8181015183820152602001610a38565b90816060910312610a305760405190606082019082821067ffffffffffffffff8311176109e857604091825280518352602081015160208401520151604082015290565b90816020910312610a3057518015158103610a305790565b600060443d10610b1257604051600319913d83016004833e815167ffffffffffffffff918282113d602484011117610b1557818401948551938411610b1d573d85010160208487010111610b155750610b12929101602001906109c6565b90565b949350505050565b5094935050505056fea26469706673582212202dbbb9ad26b50941a032b53aa40dd3259b195ebf69cc2465d3eeaa660a23f65964736f6c63430008140033",
  "linkReferences": {},
  "deployedLinkReferences": {}
}