{
  "_format": "hh-sol-artifact-1",
  "contractName": "AegisLens",
  "sourceName": "contracts/core/AegisLens.sol",
  "abi": [
    {
      "inputs": [
        {
          "internalType": "address",
          "name": "_identityRegistry",
          "type": "address"
        },
        {
          "internalType": "address",
          "name": "_oracle",
          "type": "address"
        }
      ],
      "stateMutability": "nonpayable",
      "type": "constructor"
    },
    {
      "inputs": [
        {
          "internalType": "address",
          "name": "user",
          "type": "address"
        },
        {
          "internalType": "uint256",
          "name": "collateralETH",
          "type": "uint256"
        },
        {
          "internalType": "uint256",
          "name": "debtUSDC",
          "type": "uint256"
        }
      ],
      "name": "getUserAccountData",
      "outputs": [
        {
          "components": [
            {
              "internalType": "uint256",
              "name": "totalCollateralUSD",
              "type": "uint256"
            },
            {
              "internalType": "uint256",
              "name": "totalDebtUSD",
              "type": "uint256"
            },
            {
              "internalType": "uint256",
              "name": "availableBorrowsUSD",
              "type": "uint256"
            },
            {
              "internalType": "uint256",
              "name": "currentLiquidationThreshold",
              "type": "uint256"
            },
            {
              "internalType": "uint256",
              "name": "ltv",
              "type": "uint256"
            },
            {
              "internalType": "uint256",
              "name": "healthFactor",
              "type": "uint256"
            },
            {
              "internalType": "uint256",
              "name": "liquidationPrice",
              "type": "uint256"
            }
          ],
          "internalType": "struct AegisLens.UserAccountData",
          "name": "",
          "type": "tuple"
        }
      ],
      "stateMutability": "view",
      "type": "function"
    },
    {
      "inputs": [
        {
          "internalType": "address",
          "name": "pool",
          "type": "address"
        },
        {
          "internalType": "address",
          "name": "user",
          "type": "address"
        }
      ],
      "name": "getUserPosition",
      "outputs": [
        {
          "components": [
            {
              "internalType": "uint256",
              "name": "totalCollateralUSD",
              "type": "uint256"
            },
            {
              "internalType": "uint256",
              "name": "totalDebtUSD",
              "type": "uint256"
            },
            {
              "internalType": "uint256",
              "name": "availableBorrowsUSD",
              "type": "uint256"
            },
            {
              "internalType": "uint256",
              "name": "currentLiquidationThreshold",
              "type": "uint256"
            },
            {
              "internalType": "uint256",
              "name": "ltv",
              "type": "uint256"
            },
            {
              "internalType": "uint256",
              "name": "healthFactor",
              "type": "uint256"
            },
            {
              "internalType": "uint256",
              "name": "liquidationPrice",
              "type": "uint256"
            }
          ],
          "internalType": "struct AegisLens.UserAccountData",
          "name": "",
          "type": "tuple"
        }
      ],
      "stateMutability": "view",
      "type": "function"
    },
    {
      "inputs": [],
      "name": "identityRegistry",
      "outputs": [
        {
          "internalType": "contract IUnstoppable",
          "name": "",
          "type": "address"
        }
      ],
      "stateMutability": "view",
      "type": "function"
    },
    {
      "inputs": [],
      "name": "oracle",
      "outputs": [
        {
          "internalType": "contract IAegisOracle",
          "name": "",
          "type": "address"
        }
      ],
      "stateMutability": "view",
      "type": "function"
    }
  ],
  "bytecode": "0x60803461008d57601f6106eb38819003918201601f19168301916001600160401b0383118484101761009257808492604094855283398101031261008d57610052602061004b836100a8565b92016100a8565b600080546001600160a01b039384166001600160a01b0319918216179091556001805492909316911617905560405161062e90816100bd8239f35b600080fd5b634e487b7160e01b600052604160045260246000fd5b51906001600160a01b038216820361008d5756fe60806040818152600436101561001457600080fd5b600091823560e01c908163134e18f41461021e575080637dc0d1d0146101f657806392a576e6146100d15763f88c90ab1461004e57600080fd5b346100cd5760603660031901126100cd576100c99061007b61006e610242565b6044359060243590610332565b90519182918291909160c08060e0830194805184526020810151602085015260408101516040850152606081015160608501526080810151608085015260a081015160a08501520151910152565b0390f35b5080fd5b50346100cd57806003193601126100cd576100ea610242565b6024356001600160a01b0381811694928583036101f2576101096102b1565b50168351926349fec1d160e11b84528560048501526020958685602481865afa9485156101e85790879183966101b7575b50602487518095819363791428ff60e01b835260048301525afa9586156101ab578196610171575b6100c98661007b898888610332565b909180939650813d83116101a4575b61018a818361028f565b810103126101a157505192816100c961007b610162565b80fd5b503d610180565b508451903d90823e3d90fd5b8281939297503d83116101e1575b6101cf818361028f565b810103126100cd57869051943861013a565b503d6101c5565b86513d84823e3d90fd5b8380fd5b50346100cd57816003193601126100cd5760015490516001600160a01b039091168152602090f35b8390346100cd57816003193601126100cd5790546001600160a01b03168152602090f35b600435906001600160a01b038216820361025857565b600080fd5b60e0810190811067ffffffffffffffff82111761027957604052565b634e487b7160e01b600052604160045260246000fd5b90601f8019910116810190811067ffffffffffffffff82111761027957604052565b604051906102be8261025d565b8160c06000918281528260208201528260408201528260608201528260808201528260a08201520152565b818102929181159184041417156102fc57565b634e487b7160e01b600052601160045260246000fd5b811561031c570490565b634e487b7160e01b600052601260045260246000fd5b909161033c6102b1565b5060018060a01b0360009181835416916040928351809281926382f01c8560e01b8352816004991689840152606094859160249586915afa918215610579579083918893610583575b50602090600154168751928380926302c68be360e31b82528b8d8301525afa8015610579578790610542575b6103c89150670de0b6b3a76400009182918b6102e9565b049860646103d784518c6102e9565b0493889487811161051c575b506000199887159a8b156104b9575b819b841515806104af575b610437575b505050505050519384938151986104188a61025d565b89526020890152870152850152608084015260a083015260c082015290565b9091929394959b506064890290898204606414171561049e5768056bc75e2d63100000890295818704149015171561048e575050509061047c610482928951906102e9565b90610312565b95388080808080610402565b634e487b7160e01b825260119052fd5b50634e487b7160e01b825260119052fd5b50865115156103fd565b99506104c685518d6102e9565b8481029080820486149015171561050b5760648902908982046064148d17156104f957906104f391610312565b996103f2565b5050634e487b7160e01b815260118a52fd5b50634e487b7160e01b815260118a52fd5b9094508681039081116105305793386103e3565b634e487b7160e01b895260118a528489fd5b506020813d8211610571575b8161055b6020938361028f565b8101031261056d576103c890516103b1565b8680fd5b3d915061054e565b86513d89823e3d90fd5b85809294508193503d83116105f1575b61059d818361028f565b8101031261056d5785519084820182811067ffffffffffffffff8211176105df5787528051825260208181015181840152908701518783015290918391610385565b634e487b7160e01b895260418a528489fd5b503d61059356fea26469706673582212209c7e8290b4310de24694e38e9e866dfe2d66a1320f37c2712ae517621c4629d364736f6c63430008140033",
  "linkReferences": {},
  "deployedLinkReferences": {}
}