{"contracts/core/AegisPool.sol":{"AegisPool":{"abi":[{"inputs":[{"internalType":"address","name":"_aegisCore","type":"address"},{"internalType":"address","name":"_usdcToken","type":"address"},{"internalType":"address","name":"_identityRegistry","type":"address"},{"internalType":"address","name":"_oracle","type":"address"}],"stateMutability":"nonpayable","type":"constructor"},{"inputs":[],"name":"ReentrancyGuardReentrantCall","type":"error"},{"anonymous":false,"inputs":[{"indexed":true,"internalType":"address","name":"user","type":"address"},{"indexed":false,"internalType":"uint256","name":"amount","type":"uint256"}],"name":"Borrow","type":"event"},{"anonymous":false,"inputs":[{"indexed":true,"internalType":"address","name":"user","type":"address"},{"indexed":false,"internalType":"uint256","name":"amount","type":"uint256"}],"name":"Deposit","type":"event"},{"anonymous":false,"inputs":[{"indexed":true,"internalType":"address","name":"user","type":"address"},{"indexed":true,"internalType":"address","name":"liquidator","type":"address"},{"indexed":false,"internalType":"uint256","name":"debtRepaid","type":"uint256"},{"indexed":false,"internalType":"uint256","name":"collateralSeized","type":"uint256"}],"name":"Liquidated","type":"event"},{"anonymous":false,"inputs":[{"indexed":true,"internalType":"address","name":"user","type":"address"},{"indexed":false,"internalType":"uint256","name":"timestamp","type":"uint256"}],"name":"ProbationStarted","type":"event"},{"anonymous":false,"inputs":[{"indexed":true,"internalType":"address","name":"provider","type":"address"},{"indexed":false,"internalType":"uint256","name":"amount","type":"uint256"}],"name":"ProvideLiquidity","type":"event"},{"anonymous":false,"inputs":[{"indexed":true,"internalType":"address","name":"user","type":"address"},{"indexed":false,"internalType":"uint256","name":"amount","type":"uint256"}],"name":"Repay","type":"event"},{"anonymous":false,"inputs":[{"indexed":true,"internalType":"address","name":"user","type":"address"},{"indexed":false,"internalType":"uint256","name":"amount","type":"uint256"}],"name":"Withdraw","type":"event"},{"anonymous":false,"inputs":[{"indexed":true,"internalType":"address","name":"provider","type":"address"},{"indexed":false,"internalType":"uint256","name":"amount","type":"uint256"}],"name":"WithdrawLiquidity","type":"event"},{"inputs":[],"name":"aegisCore","outputs":[{"internalType":"contract AegisCore","name":"","type":"address"}],"stateMutability":"view","type":"function"},{"inputs":[{"internalType":"uint256","name":"amount","type":"uint256"}],"name":"borrowUSDC","outputs":[],"stateMutability":"nonpayable","type":"function"},{"inputs":[],"name":"depositETH","outputs":[],"stateMutability":"payable","type":"function"},{"inputs":[],"name":"identityRegistry","outputs":[{"internalType":"contract IUnstoppable","name":"","type":"address"}],"stateMutability":"view","type":"function"},{"inputs":[{"internalType":"address","name":"user","type":"address"},{"internalType":"uint256","name":"debtToCover","type":"uint256"}],"name":"liquidate","outputs":[],"stateMutability":"nonpayable","type":"function"},{"inputs":[{"internalType":"address","name":"","type":"address"}],"name":"liquidityProviderBalance","outputs":[{"internalType":"uint256","name":"","type":"uint256"}],"stateMutability":"view","type":"function"},{"inputs":[],"name":"oracle","outputs":[{"internalType":"contract IAegisOracle","name":"","type":"address"}],"stateMutability":"view","type":"function"},{"inputs":[{"internalType":"address","name":"","type":"address"}],"name":"probationStart","outputs":[{"internalType":"uint256","name":"","type":"uint256"}],"stateMutability":"view","type":"function"},{"inputs":[{"internalType":"uint256","name":"amount","type":"uint256"}],"name":"provideLiquidity","outputs":[],"stateMutability":"nonpayable","type":"function"},{"inputs":[{"internalType":"uint256","name":"amount","type":"uint256"}],"name":"repayUSDC","outputs":[],"stateMutability":"nonpayable","type":"function"},{"inputs":[{"internalType":"address","name":"user","type":"address"},{"internalType":"uint256","name":"debtRepaid","type":"uint256"}],"name":"seizeForBackstop","outputs":[],"stateMutability":"nonpayable","type":"function"},{"inputs":[],"name":"usdcToken","outputs":[{"internalType":"contract IERC20","name":"","type":"address"}],"stateMutability":"view","type":"function"},{"inputs":[{"internalType":"address","name":"","type":"address"}],"name":"userCollateralETH","outputs":[{"internalType":"uint256","name":"","type":"uint256"}],"stateMutability":"view","type":"function"},{"inputs":[{"internalType":"address","name":"","type":"address"}],"name":"userDebtUSDC","outputs":[{"internalType":"uint256","name":"","type":"uint256"}],"stateMutability":"view","type":"function"},{"inputs":[{"internalType":"uint256","name":"amount","type":"uint256"}],"name":"withdrawETH","outputs":[],"stateMutability":"nonpayable","type":"function"},{"inputs":[{"internalType":"uint256","name":"amount","type":"uint256"}],"name":"withdrawLiquidity","outputs":[],"stateMutability":"nonpayable","type":"function"}],"evm":{"bytecode":{"linkReferences":{},"object":"608034620000cb57601f6200159b38819003918201601f19168301916001600160401b03831184841017620000d057808492608094604052833981010312620000cb576200004d81620000e6565b906200005c60208201620000e6565b6200007860606200007060408501620000e6565b9301620000e6565b90600160005560018060a01b03928380928160018060a01b0319971687600154161760015516856002541617600255168360035416176003551690600454161760045560405161149f9081620000fc8239f35b600080fd5b634e487b7160e01b600052604160045260246000fd5b51906001600160a01b0382168203620000cb5756fe608060408181526004918236101561001657600080fd5b600092833560e01c91826302aaa42314610955575081630a861f2a1461079c57816311eac85514610773578163134e18f41461074a57816349bb4eda146107215781635370307c146106e9578163791428ff146106b15781637a9fe9ff1461050d5781637dc0d1d0146104e55781639236a51d146103cf57816393fd83a214610397578163bcbaf48714610360578163c5c056e014610328578163eb521a4c1461021a578163f14210a614610140575063f6326fb3146100d557600080fd5b8160031936011261013c576100e8610b1c565b6100f3341515610ab8565b3382526005602052808220610109348254610af9565b9055513481527fe1fffcc4923d04b559f4d29a8bfc6cda04eb5b0d3c460751c2402c5c5cc9109c60203392a26001815580f35b5080fd5b919050346102165760203660031901126102165781359161015f610b1c565b33845260056020528282852054106101dd57503383526005602052808320610188838254610b3f565b905561019333611414565b6101ac8380808086335af16101a6610b84565b50610bc4565b519081527f884edad9ce6fa2440d8a54cc123490eb96d2768479d49ff9c7366125a942436460203392a26001815580f35b6020606492519162461bcd60e51b83528201526014602482015273496e73756666696369656e742062616c616e636560601b6044820152fd5b8280fd5b9050346102165760208060031936011261032457610289818335809461023e610b1c565b610249821515610ab8565b60025487516323b872dd60e01b8152339281019283523060208401526040830193909352919384926001600160a01b03169183918a918391606090910190565b03925af190811561031a577f94bc5f8d3f578ca770bfc923cd46965317e299f60197d2a9f8c76102334c46149394916102c89187916102ed5750610bc4565b338552600882528085206102dd858254610af9565b9055519283523392a26001815580f35b61030d9150843d8611610313575b6103058183610b4c565b810190610c1a565b386101a6565b503d6102fb565b84513d87823e3d90fd5b8380fd5b50503461013c57602036600319011261013c5760209181906001600160a01b03610350610a9d565b1681526008845220549051908152f35b50503461013c573660031901126103945761038d61037c610a9d565b610384610b1c565b60243590610cec565b6001815580f35b80fd5b50503461013c57602036600319011261013c5760209181906001600160a01b036103bf610a9d565b1681526005845220549051908152f35b90503461021657602080600319360112610324578135916103ee610b1c565b6103f9831515610ab8565b338552600682528284862054106104b65760025484516323b872dd60e01b81523392810192835230602084015260408301859052918391839182900360600190829089906001600160a01b03165af190811561031a577f5c16de4f8b59bd9caf0f49a545f25819a895ed223294290b408242e72a594231939491610484918791610499575b50610c32565b338552600682528085206102dd858254610b3f565b6104b09150843d8611610313576103058183610b4c565b3861047e565b60649184519162461bcd60e51b8352820152600b60248201526a13dd995c9c185e5b595b9d60aa1b6044820152fd5b9050346102165782600319360112610216575490516001600160a01b03909116815260209150f35b905034610216576020806003193601126103245781359161052c610b1c565b6001548451630c3f6acf60e01b81526001600160a01b0391849082908590829086165afa9081156106a757879161067a575b5060038110156106675761061557836105c892849233895260068452878920610588848254610af9565b905561059333611414565b600254885163a9059cbb60e01b815233938101938452602084019490945292948593919091169183918a918391604090910190565b03925af190811561031a577fcbc04eca7e9da35cb1393a6135a199ca52e450d5e9251cbd99f7847d33a367509394916106079187916102ed5750610bc4565b519283523392a26001815580f35b5060849184519162461bcd60e51b8352820152602760248201527f50726f746f636f6c20696e205269736b204d6f64653a20426f72726f77696e676044820152660814185d5cd95960ca1b6064820152fd5b634e487b7160e01b875260218352602487fd5b61069a9150843d86116106a0575b6106928183610b4c565b810190610c02565b3861055e565b503d610688565b86513d89823e3d90fd5b50503461013c57602036600319011261013c5760209181906001600160a01b036106d9610a9d565b1681526006845220549051908152f35b50503461013c57602036600319011261013c5760209181906001600160a01b03610711610a9d565b1681526007845220549051908152f35b50503461013c578160031936011261013c5760015490516001600160a01b039091168152602090f35b50503461013c578160031936011261013c5760035490516001600160a01b039091168152602090f35b50503461013c578160031936011261013c5760025490516001600160a01b039091168152602090f35b90503461021657602080600319360112610324578135916107bb610b1c565b338552600882528284862054106109145760025484516370a0823160e01b815230838201526001600160a01b039184908290602490829086165afa80156106a757859188916108df575b501061089d578361085e92849233895260088452878920610827848254610b3f565b9055600254885163a9059cbb60e01b815233938101938452602084019490945292948593919091169183918a918391604090910190565b03925af190811561031a577f8291c2165fb22f13d0ed7fc85f1f2ac23027102c70d95f9459c42a59e241eaa59394916106079187916102ed5750610bc4565b5060649184519162461bcd60e51b8352820152601960248201527f506f6f6c207574696c697a6174696f6e20746f6f2068696768000000000000006044820152fd5b809250858092503d831161090d575b6108f88183610b4c565b810103126109095784905138610805565b8680fd5b503d6108ee565b60649184519162461bcd60e51b8352820152601760248201527f496e73756666696369656e74204c502062616c616e63650000000000000000006044820152fd5b9092915034610324578160031936011261032457610971610a9d565b926024359360018060a01b03908382600154166341005ff360e11b8252818560209788935afa908115610a93579083918991610a55575b50163303610a12571690818652600683528484872054106109de57506109d992916006918652528320918254610b3f565b905580f35b835162461bcd60e51b8152908101839052600e60248201526d1119589d081d1bdbc81cdb585b1b60921b6044820152606490fd5b845162461bcd60e51b8152808401859052601b60248201527f43616c6c6572206973206e6f74204261636b73746f7020506f6f6c00000000006044820152606490fd5b809250868092503d8311610a8c575b610a6e8183610b4c565b81010312610a8857518281168103610a88578290386109a8565b8780fd5b503d610a64565b86513d8a823e3d90fd5b600435906001600160a01b0382168203610ab357565b600080fd5b15610abf57565b60405162461bcd60e51b81526020600482015260126024820152710416d6f756e74206d757374206265203e20360741b6044820152606490fd5b91908201809211610b0657565b634e487b7160e01b600052601160045260246000fd5b600260005414610b2d576002600055565b604051633ee5aeb560e01b8152600490fd5b91908203918211610b0657565b90601f8019910116810190811067ffffffffffffffff821117610b6e57604052565b634e487b7160e01b600052604160045260246000fd5b3d15610bbf573d9067ffffffffffffffff8211610b6e5760405191610bb3601f8201601f191660200184610b4c565b82523d6000602084013e565b606090565b15610bcb57565b60405162461bcd60e51b815260206004820152600f60248201526e151c985b9cd9995c8819985a5b1959608a1b6044820152606490fd5b90816020910312610ab357516003811015610ab35790565b90816020910312610ab357518015158103610ab35790565b15610c3957565b60405162461bcd60e51b8152602060048201526014602482015273151c985b9cd9995c88119c9bdb4819985a5b195960621b6044820152606490fd5b90816060910312610ab35760405190606082019082821067ffffffffffffffff831117610b6e57604091825280518352602081015160208401520151604082015290565b81810292918115918404141715610b0657565b8115610cd6570490565b634e487b7160e01b600052601260045260246000fd5b60015460408051630c3f6acf60e01b81529394936001600160a01b0393600493602093929084908290879082908a165afa9081156112af57600091611292575b50600381101561127d5760028114611243578582169081600052600685528360002054891161120a57610d60891515610ab8565b6001610d6b846112ba565b5091036111bb57670d2f13f7789f0000111561116e576060949596975b87600354168451968780926382f01c8560e01b8252858b8301526024998a915afa90811561116357600091611135575b508481018051611075575b5060025485516323b872dd60e01b815233818b01908152306020820152604081018590529091889183918d16908290600090829060600103925af190811561106a57879291610e19916000916104995750610c32565b836000526006825285600020610e30848254610b3f565b9055015197606498890190818a116110225788541690866000898b895195869384926302c68be360e31b84528301525afa91821561106a57908a91600093611036575b50610e7e9084610cb9565b04670de0b6b3a7640000908181029181830414901517156110225790610ea391610ccc565b826000526005865280856000205410610fd757826000526005865284600020610ecd828254610b3f565b9055600080808084335af1610ee0610b84565b5015610fa057845191825285820152817f1f0c6615429d1cdae0dfa233abf91d3b31cdbdd82c8081389832a61e1072f1ea853393a360005260068352816000205415610f2f575b505050505050565b60058352816000209081549081610f48575b5050610f27565b6000809392819392828094555af1610f5e610b84565b5015610f6c57808080610f41565b5162461bcd60e51b815292830152601590820152741499599d5b99081d1bc81d5cd95c8819985a5b1959605a1b6044820152fd5b845162461bcd60e51b81528089018790526013818901527211551208151c985b9cd9995c8819985a5b1959606a1b60448201528990fd5b845162461bcd60e51b81528089018790526021818901527f436f6c6c61746572616c20696e73756666696369656e7420666f7220626f6e756044820152607360f81b818b0152608490fd5b8760118a634e487b7160e01b600052526000fd5b9150918782813d8311611063575b61104e8183610b4c565b81010312610394575051908990610e7e610e73565b503d611044565b86513d6000823e3d90fd5b83600099969798959499526007885286600020549081156000146110d35750505050505050827f26cebf317338e2cf649fcda3377df64eba66cfff88183b6e6af43e6ab676405c9394506000526007825242816000205551428152a2565b906110e691999495989796995190610af9565b42111561110157826000526007865260008581205538610dc3565b845162461bcd60e51b8152808901879052600f818901526e125b8811dc9858d94814195c9a5bd9608a1b6044820152606490fd5b611156915060603d811161115c575b61114e8183610b4c565b810190610c75565b38610db8565b503d611144565b85513d6000823e3d90fd5b50505162461bcd60e51b815291820152602160248201527f59656c6c6f77204d6f64653a204e6f7420646565706c7920696e736f6c76656e6044820152601d60fa1b606482015260849150fd5b670de0b6b3a764000011156111d557606094959697610d88565b50505162461bcd60e51b815291820152600f60248201526e55736572206973206865616c74687960881b604482015260649150fd5b835162461bcd60e51b81528087018690526013602482015272105b5bdd5b9d08195e18d959591cc81919589d606a1b6044820152606490fd5b50505162461bcd60e51b8152918201526014602482015273526564204d6f64653a205573652053706f6e676560601b604482015260649150fd5b602185634e487b7160e01b6000525260246000fd5b6112a99150843d86116106a0576106928183610b4c565b38610d2c565b83513d6000823e3d90fd5b6001600160a01b039081166000818152600560209081526040808320546006835281842054949293929085156114055760248588600454168551928380926302c68be360e31b82528960048301525afa95861561031a5785966113d4575b5050606090611331670de0b6b3a7640000968792610cb9565b0496600354169160248451809481936382f01c8560e01b835260048301525afa9182156113cb57509061136d9183916113ad575b505185610cb9565b828102928184041490151715611399576064830292830460640361139957509061139691610ccc565b91565b634e487b7160e01b81526011600452602490fd5b6113c5915060603d811161115c5761114e8183610b4c565b38611365565b513d84823e3d90fd5b9080929650813d83116113fe575b6113ec8183610b4c565b81010312610324575193606038611318565b503d6113e2565b50505093925050506000199190565b611426670de0b6b3a7640000916112ba565b501061142e57565b60405162461bcd60e51b815260206004820152601360248201527204865616c746820466163746f72203c20312e3606c1b6044820152606490fdfea2646970667358221220e855d071224f7bab294ee102261697b707a9763bb09b387f577a4ee5ee0247c564736f6c63430008140033","opcodes":"PUSH1 0x80 CALLVALUE PUSH3 0xCB JUMPI PUSH1 0x1F PUSH3 0x159B CODESIZE DUP2 SWAP1 SUB SWAP2 DUP3 ADD PUSH1 0x1F NOT AND DUP4 ADD SWAP2 PUSH1 0x1 PUSH1 0x1 PUSH1 0x40 SHL SUB DUP4 GT DUP5 DUP5 LT OR PUSH3 0xD0 JUMPI DUP1 DUP5 SWAP3 PUSH1 0x80 SWAP5 PUSH1 0x40 MSTORE DUP4 CODECOPY DUP2 ADD SUB SLT PUSH3 0xCB JUMPI PUSH3 0x4D DUP2 PUSH3 0xE6 JUMP JUMPDEST SWAP1 PUSH3 0x5C PUSH1 0x20 DUP3 ADD PUSH3 0xE6 JUMP JUMPDEST PUSH3 0x78 PUSH1 0x60 PUSH3 0x70 PUSH1 0x40 DUP6 ADD PUSH3 0xE6 JUMP JUMPDEST SWAP4 ADD PUSH3 0xE6 JUMP JUMPDEST SWAP1 PUSH1 0x1 PUSH1 0x0 SSTORE PUSH1 0x1 DUP1 PUSH1 0xA0 SHL SUB SWAP3 DUP4 DUP1 SWAP3 DUP2 PUSH1 0x1 DUP1 PUSH1 0xA0 SHL SUB NOT SWAP8 AND DUP8 PUSH1 0x1 SLOAD AND OR PUSH1 0x1 SSTORE AND DUP6 PUSH1 0x2 SLOAD AND OR PUSH1 0x2 SSTORE AND DUP4 PUSH1 0x3 SLOAD AND OR PUSH1 0x3 SSTORE AND SWAP1 PUSH1 0x4 SLOAD AND OR PUSH1 0x4 SSTORE PUSH1 0x40 MLOAD PUSH2 0x149F SWAP1 DUP2 PUSH3 0xFC DUP3 CODECOPY RETURN JUMPDEST PUSH1 0x0 DUP1 REVERT JUMPDEST PUSH4 0x4E487B71 PUSH1 0xE0 SHL PUSH1 0x0 MSTORE PUSH1 0x41 PUSH1 0x4 MSTORE PUSH1 0x24 PUSH1 0x0 REVERT JUMPDEST MLOAD SWAP1 PUSH1 0x1 PUSH1 0x1 PUSH1 0xA0 SHL SUB DUP3 AND DUP3 SUB PUSH3 0xCB JUMPI JUMP INVALID PUSH1 0x80 PUSH1 0x40 DUP2 DUP2 MSTORE PUSH1 0x4 SWAP2 DUP3 CALLDATASIZE LT ISZERO PUSH2 0x16 JUMPI PUSH1 0x0 DUP1 REVERT JUMPDEST PUSH1 0x0 SWAP3 DUP4 CALLDATALOAD PUSH1 0xE0 SHR SWAP2 DUP3 PUSH4 0x2AAA423 EQ PUSH2 0x955 JUMPI POP DUP2 PUSH4 0xA861F2A EQ PUSH2 0x79C JUMPI DUP2 PUSH4 0x11EAC855 EQ PUSH2 0x773 JUMPI DUP2 PUSH4 0x134E18F4 EQ PUSH2 0x74A JUMPI DUP2 PUSH4 0x49BB4EDA EQ PUSH2 0x721 JUMPI DUP2 PUSH4 0x5370307C EQ PUSH2 0x6E9 JUMPI DUP2 PUSH4 0x791428FF EQ PUSH2 0x6B1 JUMPI DUP2 PUSH4 0x7A9FE9FF EQ PUSH2 0x50D JUMPI DUP2 PUSH4 0x7DC0D1D0 EQ PUSH2 0x4E5 JUMPI DUP2 PUSH4 0x9236A51D EQ PUSH2 0x3CF JUMPI DUP2 PUSH4 0x93FD83A2 EQ PUSH2 0x397 JUMPI DUP2 PUSH4 0xBCBAF487 EQ PUSH2 0x360 JUMPI DUP2 PUSH4 0xC5C056E0 EQ PUSH2 0x328 JUMPI DUP2 PUSH4 0xEB521A4C EQ PUSH2 0x21A JUMPI DUP2 PUSH4 0xF14210A6 EQ PUSH2 0x140 JUMPI POP PUSH4 0xF6326FB3 EQ PUSH2 0xD5 JUMPI PUSH1 0x0 DUP1 REVERT JUMPDEST DUP2 PUSH1 0x3 NOT CALLDATASIZE ADD SLT PUSH2 0x13C JUMPI PUSH2 0xE8 PUSH2 0xB1C JUMP JUMPDEST PUSH2 0xF3 CALLVALUE ISZERO ISZERO PUSH2 0xAB8 JUMP JUMPDEST CALLER DUP3 MSTORE PUSH1 0x5 PUSH1 0x20 MSTORE DUP1 DUP3 KECCAK256 PUSH2 0x109 CALLVALUE DUP3 SLOAD PUSH2 0xAF9 JUMP JUMPDEST SWAP1 SSTORE MLOAD CALLVALUE DUP2 MSTORE PUSH32 0xE1FFFCC4923D04B559F4D29A8BFC6CDA04EB5B0D3C460751C2402C5C5CC9109C PUSH1 0x20 CALLER SWAP3 LOG2 PUSH1 0x1 DUP2 SSTORE DUP1 RETURN JUMPDEST POP DUP1 REVERT JUMPDEST SWAP2 SWAP1 POP CALLVALUE PUSH2 0x216 JUMPI PUSH1 0x20 CALLDATASIZE PUSH1 0x3 NOT ADD SLT PUSH2 0x216 JUMPI DUP2 CALLDATALOAD SWAP2 PUSH2 0x15F PUSH2 0xB1C JUMP JUMPDEST CALLER DUP5 MSTORE PUSH1 0x5 PUSH1 0x20 MSTORE DUP3 DUP3 DUP6 KECCAK256 SLOAD LT PUSH2 0x1DD JUMPI POP CALLER DUP4 MSTORE PUSH1 0x5 PUSH1 0x20 MSTORE DUP1 DUP4 KECCAK256 PUSH2 0x188 DUP4 DUP3 SLOAD PUSH2 0xB3F JUMP JUMPDEST SWAP1 SSTORE PUSH2 0x193 CALLER PUSH2 0x1414 JUMP JUMPDEST PUSH2 0x1AC DUP4 DUP1 DUP1 DUP1 DUP7 CALLER GAS CALL PUSH2 0x1A6 PUSH2 0xB84 JUMP JUMPDEST POP PUSH2 0xBC4 JUMP JUMPDEST MLOAD SWAP1 DUP2 MSTORE PUSH32 0x884EDAD9CE6FA2440D8A54CC123490EB96D2768479D49FF9C7366125A9424364 PUSH1 0x20 CALLER SWAP3 LOG2 PUSH1 0x1 DUP2 SSTORE DUP1 RETURN JUMPDEST PUSH1 0x20 PUSH1 0x64 SWAP3 MLOAD SWAP2 PUSH3 0x461BCD PUSH1 0xE5 SHL DUP4 MSTORE DUP3 ADD MSTORE PUSH1 0x14 PUSH1 0x24 DUP3 ADD MSTORE PUSH20 0x496E73756666696369656E742062616C616E6365 PUSH1 0x60 SHL PUSH1 0x44 DUP3 ADD MSTORE REVERT JUMPDEST DUP3 DUP1 REVERT JUMPDEST SWAP1 POP CALLVALUE PUSH2 0x216 JUMPI PUSH1 0x20 DUP1 PUSH1 0x3 NOT CALLDATASIZE ADD SLT PUSH2 0x324 JUMPI PUSH2 0x289 DUP2 DUP4 CALLDATALOAD DUP1 SWAP5 PUSH2 0x23E PUSH2 0xB1C JUMP JUMPDEST PUSH2 0x249 DUP3 ISZERO ISZERO PUSH2 0xAB8 JUMP JUMPDEST PUSH1 0x2 SLOAD DUP8 MLOAD PUSH4 0x23B872DD PUSH1 0xE0 SHL DUP2 MSTORE CALLER SWAP3 DUP2 ADD SWAP3 DUP4 MSTORE ADDRESS PUSH1 0x20 DUP5 ADD MSTORE PUSH1 0x40 DUP4 ADD SWAP4 SWAP1 SWAP4 MSTORE SWAP2 SWAP4 DUP5 SWAP3 PUSH1 0x1 PUSH1 0x1 PUSH1 0xA0 SHL SUB AND SWAP2 DUP4 SWAP2 DUP11 SWAP2 DUP4 SWAP2 PUSH1 0x60 SWAP1 SWAP2 ADD SWAP1 JUMP JUMPDEST SUB SWAP3 GAS CALL SWAP1 DUP2 ISZERO PUSH2 0x31A JUMPI PUSH32 0x94BC5F8D3F578CA770BFC923CD46965317E299F60197D2A9F8C76102334C4614 SWAP4 SWAP5 SWAP2 PUSH2 0x2C8 SWAP2 DUP8 SWAP2 PUSH2 0x2ED JUMPI POP PUSH2 0xBC4 JUMP JUMPDEST CALLER DUP6 MSTORE PUSH1 0x8 DUP3 MSTORE DUP1 DUP6 KECCAK256 PUSH2 0x2DD DUP6 DUP3 SLOAD PUSH2 0xAF9 JUMP JUMPDEST SWAP1 SSTORE MLOAD SWAP3 DUP4 MSTORE CALLER SWAP3 LOG2 PUSH1 0x1 DUP2 SSTORE DUP1 RETURN JUMPDEST PUSH2 0x30D SWAP2 POP DUP5 RETURNDATASIZE DUP7 GT PUSH2 0x313 JUMPI JUMPDEST PUSH2 0x305 DUP2 DUP4 PUSH2 0xB4C JUMP JUMPDEST DUP2 ADD SWAP1 PUSH2 0xC1A JUMP JUMPDEST CODESIZE PUSH2 0x1A6 JUMP JUMPDEST POP RETURNDATASIZE PUSH2 0x2FB JUMP JUMPDEST DUP5 MLOAD RETURNDATASIZE DUP8 DUP3 RETURNDATACOPY RETURNDATASIZE SWAP1 REVERT JUMPDEST DUP4 DUP1 REVERT JUMPDEST POP POP CALLVALUE PUSH2 0x13C JUMPI PUSH1 0x20 CALLDATASIZE PUSH1 0x3 NOT ADD SLT PUSH2 0x13C JUMPI PUSH1 0x20 SWAP2 DUP2 SWAP1 PUSH1 0x1 PUSH1 0x1 PUSH1 0xA0 SHL SUB PUSH2 0x350 PUSH2 0xA9D JUMP JUMPDEST AND DUP2 MSTORE PUSH1 0x8 DUP5 MSTORE KECCAK256 SLOAD SWAP1 MLOAD SWAP1 DUP2 MSTORE RETURN JUMPDEST POP POP CALLVALUE PUSH2 0x13C JUMPI CALLDATASIZE PUSH1 0x3 NOT ADD SLT PUSH2 0x394 JUMPI PUSH2 0x38D PUSH2 0x37C PUSH2 0xA9D JUMP JUMPDEST PUSH2 0x384 PUSH2 0xB1C JUMP JUMPDEST PUSH1 0x24 CALLDATALOAD SWAP1 PUSH2 0xCEC JUMP JUMPDEST PUSH1 0x1 DUP2 SSTORE DUP1 RETURN JUMPDEST DUP1 REVERT JUMPDEST POP POP CALLVALUE PUSH2 0x13C JUMPI PUSH1 0x20 CALLDATASIZE PUSH1 0x3 NOT ADD SLT PUSH2 0x13C JUMPI PUSH1 0x20 SWAP2 DUP2 SWAP1 PUSH1 0x1 PUSH1 0x1 PUSH1 0xA0 SHL SUB PUSH2 0x3BF PUSH2 0xA9D JUMP JUMPDEST AND DUP2 MSTORE PUSH1 0x5 DUP5 MSTORE KECCAK256 SLOAD SWAP1 MLOAD SWAP1 DUP2 MSTORE RETURN JUMPDEST SWAP1 POP CALLVALUE PUSH2 0x216 JUMPI PUSH1 0x20 DUP1 PUSH1 0x3 NOT CALLDATASIZE ADD SLT PUSH2 0x324 JUMPI DUP2 CALLDATALOAD SWAP2 PUSH2 0x3EE PUSH2 0xB1C JUMP JUMPDEST PUSH2 0x3F9 DUP4 ISZERO ISZERO PUSH2 0xAB8 JUMP JUMPDEST CALLER DUP6 MSTORE PUSH1 0x6 DUP3 MSTORE DUP3 DUP5 DUP7 KECCAK256 SLOAD LT PUSH2 0x4B6 JUMPI PUSH1 0x2 SLOAD DUP5 MLOAD PUSH4 0x23B872DD PUSH1 0xE0 SHL DUP2 MSTORE CALLER SWAP3 DUP2 ADD SWAP3 DUP4 MSTORE ADDRESS PUSH1 0x20 DUP5 ADD MSTORE PUSH1 0x40 DUP4 ADD DUP6 SWAP1 MSTORE SWAP2 DUP4 SWAP2 DUP4 SWAP2 DUP3 SWAP1 SUB PUSH1 0x60 ADD SWAP1 DUP3 SWAP1 DUP10 SWAP1 PUSH1 0x1 PUSH1 0x1 PUSH1 0xA0 SHL SUB AND GAS CALL SWAP1 DUP2 ISZERO PUSH2 0x31A JUMPI PUSH32 0x5C16DE4F8B59BD9CAF0F49A545F25819A895ED223294290B408242E72A594231 SWAP4 SWAP5 SWAP2 PUSH2 0x484 SWAP2 DUP8 SWAP2 PUSH2 0x499 JUMPI JUMPDEST POP PUSH2 0xC32 JUMP JUMPDEST CALLER DUP6 MSTORE PUSH1 0x6 DUP3 MSTORE DUP1 DUP6 KECCAK256 PUSH2 0x2DD DUP6 DUP3 SLOAD PUSH2 0xB3F JUMP JUMPDEST PUSH2 0x4B0 SWAP2 POP DUP5 RETURNDATASIZE DUP7 GT PUSH2 0x313 JUMPI PUSH2 0x305 DUP2 DUP4 PUSH2 0xB4C JUMP JUMPDEST CODESIZE PUSH2 0x47E JUMP JUMPDEST PUSH1 0x64 SWAP2 DUP5 MLOAD SWAP2 PUSH3 0x461BCD PUSH1 0xE5 SHL DUP4 MSTORE DUP3 ADD MSTORE PUSH1 0xB PUSH1 0x24 DUP3 ADD MSTORE PUSH11 0x13DD995C9C185E5B595B9D PUSH1 0xAA SHL PUSH1 0x44 DUP3 ADD MSTORE REVERT JUMPDEST SWAP1 POP CALLVALUE PUSH2 0x216 JUMPI DUP3 PUSH1 0x3 NOT CALLDATASIZE ADD SLT PUSH2 0x216 JUMPI SLOAD SWAP1 MLOAD PUSH1 0x1 PUSH1 0x1 PUSH1 0xA0 SHL SUB SWAP1 SWAP2 AND DUP2 MSTORE PUSH1 0x20 SWAP2 POP RETURN JUMPDEST SWAP1 POP CALLVALUE PUSH2 0x216 JUMPI PUSH1 0x20 DUP1 PUSH1 0x3 NOT CALLDATASIZE ADD SLT PUSH2 0x324 JUMPI DUP2 CALLDATALOAD SWAP2 PUSH2 0x52C PUSH2 0xB1C JUMP JUMPDEST PUSH1 0x1 SLOAD DUP5 MLOAD PUSH4 0xC3F6ACF PUSH1 0xE0 SHL DUP2 MSTORE PUSH1 0x1 PUSH1 0x1 PUSH1 0xA0 SHL SUB SWAP2 DUP5 SWAP1 DUP3 SWAP1 DUP6 SWAP1 DUP3 SWAP1 DUP7 AND GAS STATICCALL SWAP1 DUP2 ISZERO PUSH2 0x6A7 JUMPI DUP8 SWAP2 PUSH2 0x67A JUMPI JUMPDEST POP PUSH1 0x3 DUP2 LT ISZERO PUSH2 0x667 JUMPI PUSH2 0x615 JUMPI DUP4 PUSH2 0x5C8 SWAP3 DUP5 SWAP3 CALLER DUP10 MSTORE PUSH1 0x6 DUP5 MSTORE DUP8 DUP10 KECCAK256 PUSH2 0x588 DUP5 DUP3 SLOAD PUSH2 0xAF9 JUMP JUMPDEST SWAP1 SSTORE PUSH2 0x593 CALLER PUSH2 0x1414 JUMP JUMPDEST PUSH1 0x2 SLOAD DUP9 MLOAD PUSH4 0xA9059CBB PUSH1 0xE0 SHL DUP2 MSTORE CALLER SWAP4 DUP2 ADD SWAP4 DUP5 MSTORE PUSH1 0x20 DUP5 ADD SWAP5 SWAP1 SWAP5 MSTORE SWAP3 SWAP5 DUP6 SWAP4 SWAP2 SWAP1 SWAP2 AND SWAP2 DUP4 SWAP2 DUP11 SWAP2 DUP4 SWAP2 PUSH1 0x40 SWAP1 SWAP2 ADD SWAP1 JUMP JUMPDEST SUB SWAP3 GAS CALL SWAP1 DUP2 ISZERO PUSH2 0x31A JUMPI PUSH32 0xCBC04ECA7E9DA35CB1393A6135A199CA52E450D5E9251CBD99F7847D33A36750 SWAP4 SWAP5 SWAP2 PUSH2 0x607 SWAP2 DUP8 SWAP2 PUSH2 0x2ED JUMPI POP PUSH2 0xBC4 JUMP JUMPDEST MLOAD SWAP3 DUP4 MSTORE CALLER SWAP3 LOG2 PUSH1 0x1 DUP2 SSTORE DUP1 RETURN JUMPDEST POP PUSH1 0x84 SWAP2 DUP5 MLOAD SWAP2 PUSH3 0x461BCD PUSH1 0xE5 SHL DUP4 MSTORE DUP3 ADD MSTORE PUSH1 0x27 PUSH1 0x24 DUP3 ADD MSTORE PUSH32 0x50726F746F636F6C20696E205269736B204D6F64653A20426F72726F77696E67 PUSH1 0x44 DUP3 ADD MSTORE PUSH7 0x814185D5CD959 PUSH1 0xCA SHL PUSH1 0x64 DUP3 ADD MSTORE REVERT JUMPDEST PUSH4 0x4E487B71 PUSH1 0xE0 SHL DUP8 MSTORE PUSH1 0x21 DUP4 MSTORE PUSH1 0x24 DUP8 REVERT JUMPDEST PUSH2 0x69A SWAP2 POP DUP5 RETURNDATASIZE DUP7 GT PUSH2 0x6A0 JUMPI JUMPDEST PUSH2 0x692 DUP2 DUP4 PUSH2 0xB4C JUMP JUMPDEST DUP2 ADD SWAP1 PUSH2 0xC02 JUMP JUMPDEST CODESIZE PUSH2 0x55E JUMP JUMPDEST POP RETURNDATASIZE PUSH2 0x688 JUMP JUMPDEST DUP7 MLOAD RETURNDATASIZE DUP10 DUP3 RETURNDATACOPY RETURNDATASIZE SWAP1 REVERT JUMPDEST POP POP CALLVALUE PUSH2 0x13C JUMPI PUSH1 0x20 CALLDATASIZE PUSH1 0x3 NOT ADD SLT PUSH2 0x13C JUMPI PUSH1 0x20 SWAP2 DUP2 SWAP1 PUSH1 0x1 PUSH1 0x1 PUSH1 0xA0 SHL SUB PUSH2 0x6D9 PUSH2 0xA9D JUMP JUMPDEST AND DUP2 MSTORE PUSH1 0x6 DUP5 MSTORE KECCAK256 SLOAD SWAP1 MLOAD SWAP1 DUP2 MSTORE RETURN JUMPDEST POP POP CALLVALUE PUSH2 0x13C JUMPI PUSH1 0x20 CALLDATASIZE PUSH1 0x3 NOT ADD SLT PUSH2 0x13C JUMPI PUSH1 0x20 SWAP2 DUP2 SWAP1 PUSH1 0x1 PUSH1 0x1 PUSH1 0xA0 SHL SUB PUSH2 0x711 PUSH2 0xA9D JUMP JUMPDEST AND DUP2 MSTORE PUSH1 0x7 DUP5 MSTORE KECCAK256 SLOAD SWAP1 MLOAD SWAP1 DUP2 MSTORE RETURN JUMPDEST POP POP CALLVALUE PUSH2 0x13C JUMPI DUP2 PUSH1 0x3 NOT CALLDATASIZE ADD SLT PUSH2 0x13C JUMPI PUSH1 0x1 SLOAD SWAP1 MLOAD PUSH1 0x1 PUSH1 0x1 PUSH1 0xA0 SHL SUB SWAP1 SWAP2 AND DUP2 MSTORE PUSH1 0x20 SWAP1 RETURN JUMPDEST POP POP CALLVALUE PUSH2 0x13C JUMPI DUP2 PUSH1 0x3 NOT CALLDATASIZE ADD SLT PUSH2 0x13C JUMPI PUSH1 0x3 SLOAD SWAP1 MLOAD PUSH1 0x1 PUSH1 0x1 PUSH1 0xA0 SHL SUB SWAP1 SWAP2 AND DUP2 MSTORE PUSH1 0x20 SWAP1 RETURN JUMPDEST POP POP CALLVALUE PUSH2 0x13C JUMPI DUP2 PUSH1 0x3 NOT CALLDATASIZE ADD SLT PUSH2 0x13C JUMPI PUSH1 0x2 SLOAD SWAP1 MLOAD PUSH1 0x1 PUSH1 0x1 PUSH1 0xA0 SHL SUB SWAP1 SWAP2 AND DUP2 MSTORE PUSH1 0x20 SWAP1 RETURN JUMPDEST SWAP1 POP CALLVALUE PUSH2 0x216 JUMPI PUSH1 0x20 DUP1 PUSH1 0x3 NOT CALLDATASIZE ADD SLT PUSH2 0x324 JUMPI DUP2 CALLDATALOAD SWAP2 PUSH2 0x7BB PUSH2 0xB1C JUMP JUMPDEST CALLER DUP6 MSTORE PUSH1 0x8 DUP3 MSTORE DUP3 DUP5 DUP7 KECCAK256 SLOAD LT PUSH2 0x914 JUMPI PUSH1 0x2 SLOAD DUP5 MLOAD PUSH4 0x70A08231 PUSH1 0xE0 SHL DUP2 MSTORE ADDRESS DUP4 DUP3 ADD MSTORE PUSH1 0x1 PUSH1 0x1 PUSH1 0xA0 SHL SUB SWAP2 DUP5 SWAP1 DUP3 SWAP1 PUSH1 0x24 SWAP1 DUP3 SWAP1 DUP7 AND GAS STATICCALL DUP1 ISZERO PUSH2 0x6A7 JUMPI DUP6 SWAP2 DUP9 SWAP2 PUSH2 0x8DF JUMPI JUMPDEST POP LT PUSH2 0x89D JUMPI DUP4 PUSH2 0x85E SWAP3 DUP5 SWAP3 CALLER DUP10 MSTORE PUSH1 0x8 DUP5 MSTORE DUP8 DUP10 KECCAK256 PUSH2 0x827 DUP5 DUP3 SLOAD PUSH2 0xB3F JUMP JUMPDEST SWAP1 SSTORE PUSH1 0x2 SLOAD DUP9 MLOAD PUSH4 0xA9059CBB PUSH1 0xE0 SHL DUP2 MSTORE CALLER SWAP4 DUP2 ADD SWAP4 DUP5 MSTORE PUSH1 0x20 DUP5 ADD SWAP5 SWAP1 SWAP5 MSTORE SWAP3 SWAP5 DUP6 SWAP4 SWAP2 SWAP1 SWAP2 AND SWAP2 DUP4 SWAP2 DUP11 SWAP2 DUP4 SWAP2 PUSH1 0x40 SWAP1 SWAP2 ADD SWAP1 JUMP JUMPDEST SUB SWAP3 GAS CALL SWAP1 DUP2 ISZERO PUSH2 0x31A JUMPI PUSH32 0x8291C2165FB22F13D0ED7FC85F1F2AC23027102C70D95F9459C42A59E241EAA5 SWAP4 SWAP5 SWAP2 PUSH2 0x607 SWAP2 DUP8 SWAP2 PUSH2 0x2ED JUMPI POP PUSH2 0xBC4 JUMP JUMPDEST POP PUSH1 0x64 SWAP2 DUP5 MLOAD SWAP2 PUSH3 0x461BCD PUSH1 0xE5 SHL DUP4 MSTORE DUP3 ADD MSTORE PUSH1 0x19 PUSH1 0x24 DUP3 ADD MSTORE PUSH32 0x506F6F6C207574696C697A6174696F6E20746F6F206869676800000000000000 PUSH1 0x44 DUP3 ADD MSTORE REVERT JUMPDEST DUP1 SWAP3 POP DUP6 DUP1 SWAP3 POP RETURNDATASIZE DUP4 GT PUSH2 0x90D JUMPI JUMPDEST PUSH2 0x8F8 DUP2 DUP4 PUSH2 0xB4C JUMP JUMPDEST DUP2 ADD SUB SLT PUSH2 0x909 JUMPI DUP5 SWAP1 MLOAD CODESIZE PUSH2 0x805 JUMP JUMPDEST DUP7 DUP1 REVERT JUMPDEST POP RETURNDATASIZE PUSH2 0x8EE JUMP JUMPDEST PUSH1 0x64 SWAP2 DUP5 MLOAD SWAP2 PUSH3 0x461BCD PUSH1 0xE5 SHL DUP4 MSTORE DUP3 ADD MSTORE PUSH1 0x17 PUSH1 0x24 DUP3 ADD MSTORE PUSH32 0x496E73756666696369656E74204C502062616C616E6365000000000000000000 PUSH1 0x44 DUP3 ADD MSTORE REVERT JUMPDEST SWAP1 SWAP3 SWAP2 POP CALLVALUE PUSH2 0x324 JUMPI DUP2 PUSH1 0x3 NOT CALLDATASIZE ADD SLT PUSH2 0x324 JUMPI PUSH2 0x971 PUSH2 0xA9D JUMP JUMPDEST SWAP3 PUSH1 0x24 CALLDATALOAD SWAP4 PUSH1 0x1 DUP1 PUSH1 0xA0 SHL SUB SWAP1 DUP4 DUP3 PUSH1 0x1 SLOAD AND PUSH4 0x41005FF3 PUSH1 0xE1 SHL DUP3 MSTORE DUP2 DUP6 PUSH1 0x20 SWAP8 DUP9 SWAP4 GAS STATICCALL SWAP1 DUP2 ISZERO PUSH2 0xA93 JUMPI SWAP1 DUP4 SWAP2 DUP10 SWAP2 PUSH2 0xA55 JUMPI JUMPDEST POP AND CALLER SUB PUSH2 0xA12 JUMPI AND SWAP1 DUP2 DUP7 MSTORE PUSH1 0x6 DUP4 MSTORE DUP5 DUP5 DUP8 KECCAK256 SLOAD LT PUSH2 0x9DE JUMPI POP PUSH2 0x9D9 SWAP3 SWAP2 PUSH1 0x6 SWAP2 DUP7 MSTORE MSTORE DUP4 KECCAK256 SWAP2 DUP3 SLOAD PUSH2 0xB3F JUMP JUMPDEST SWAP1 SSTORE DUP1 RETURN JUMPDEST DUP4 MLOAD PUSH3 0x461BCD PUSH1 0xE5 SHL DUP2 MSTORE SWAP1 DUP2 ADD DUP4 SWAP1 MSTORE PUSH1 0xE PUSH1 0x24 DUP3 ADD MSTORE PUSH14 0x1119589D081D1BDBC81CDB585B1B PUSH1 0x92 SHL PUSH1 0x44 DUP3 ADD MSTORE PUSH1 0x64 SWAP1 REVERT JUMPDEST DUP5 MLOAD PUSH3 0x461BCD PUSH1 0xE5 SHL DUP2 MSTORE DUP1 DUP5 ADD DUP6 SWAP1 MSTORE PUSH1 0x1B PUSH1 0x24 DUP3 ADD MSTORE PUSH32 0x43616C6C6572206973206E6F74204261636B73746F7020506F6F6C0000000000 PUSH1 0x44 DUP3 ADD MSTORE PUSH1 0x64 SWAP1 REVERT JUMPDEST DUP1 SWAP3 POP DUP7 DUP1 SWAP3 POP RETURNDATASIZE DUP4 GT PUSH2 0xA8C JUMPI JUMPDEST PUSH2 0xA6E DUP2 DUP4 PUSH2 0xB4C JUMP JUMPDEST DUP2 ADD SUB SLT PUSH2 0xA88 JUMPI MLOAD DUP3 DUP2 AND DUP2 SUB PUSH2 0xA88 JUMPI DUP3 SWAP1 CODESIZE PUSH2 0x9A8 JUMP JUMPDEST DUP8 DUP1 REVERT JUMPDEST POP RETURNDATASIZE PUSH2 0xA64 JUMP JUMPDEST DUP7 MLOAD RETURNDATASIZE DUP11 DUP3 RETURNDATACOPY RETURNDATASIZE SWAP1 REVERT JUMPDEST PUSH1 0x4 CALLDATALOAD SWAP1 PUSH1 0x1 PUSH1 0x1 PUSH1 0xA0 SHL SUB DUP3 AND DUP3 SUB PUSH2 0xAB3 JUMPI JUMP JUMPDEST PUSH1 0x0 DUP1 REVERT JUMPDEST ISZERO PUSH2 0xABF JUMPI JUMP JUMPDEST PUSH1 0x40 MLOAD PUSH3 0x461BCD PUSH1 0xE5 SHL DUP2 MSTORE PUSH1 0x20 PUSH1 0x4 DUP3 ADD MSTORE PUSH1 0x12 PUSH1 0x24 DUP3 ADD MSTORE PUSH18 0x416D6F756E74206D757374206265203E203 PUSH1 0x74 SHL PUSH1 0x44 DUP3 ADD MSTORE PUSH1 0x64 SWAP1 REVERT JUMPDEST SWAP2 SWAP1 DUP3 ADD DUP1 SWAP3 GT PUSH2 0xB06 JUMPI JUMP JUMPDEST PUSH4 0x4E487B71 PUSH1 0xE0 SHL PUSH1 0x0 MSTORE PUSH1 0x11 PUSH1 0x4 MSTORE PUSH1 0x24 PUSH1 0x0 REVERT JUMPDEST PUSH1 0x2 PUSH1 0x0 SLOAD EQ PUSH2 0xB2D JUMPI PUSH1 0x2 PUSH1 0x0 SSTORE JUMP JUMPDEST PUSH1 0x40 MLOAD PUSH4 0x3EE5AEB5 PUSH1 0xE0 SHL DUP2 MSTORE PUSH1 0x4 SWAP1 REVERT JUMPDEST SWAP2 SWAP1 DUP3 SUB SWAP2 DUP3 GT PUSH2 0xB06 JUMPI JUMP JUMPDEST SWAP1 PUSH1 0x1F DUP1 NOT SWAP2 ADD AND DUP2 ADD SWAP1 DUP2 LT PUSH8 0xFFFFFFFFFFFFFFFF DUP3 GT OR PUSH2 0xB6E JUMPI PUSH1 0x40 MSTORE JUMP JUMPDEST PUSH4 0x4E487B71 PUSH1 0xE0 SHL PUSH1 0x0 MSTORE PUSH1 0x41 PUSH1 0x4 MSTORE PUSH1 0x24 PUSH1 0x0 REVERT JUMPDEST RETURNDATASIZE ISZERO PUSH2 0xBBF JUMPI RETURNDATASIZE SWAP1 PUSH8 0xFFFFFFFFFFFFFFFF DUP3 GT PUSH2 0xB6E JUMPI PUSH1 0x40 MLOAD SWAP2 PUSH2 0xBB3 PUSH1 0x1F DUP3 ADD PUSH1 0x1F NOT AND PUSH1 0x20 ADD DUP5 PUSH2 0xB4C JUMP JUMPDEST DUP3 MSTORE RETURNDATASIZE PUSH1 0x0 PUSH1 0x20 DUP5 ADD RETURNDATACOPY JUMP JUMPDEST PUSH1 0x60 SWAP1 JUMP JUMPDEST ISZERO PUSH2 0xBCB JUMPI JUMP JUMPDEST PUSH1 0x40 MLOAD PUSH3 0x461BCD PUSH1 0xE5 SHL DUP2 MSTORE PUSH1 0x20 PUSH1 0x4 DUP3 ADD MSTORE PUSH1 0xF PUSH1 0x24 DUP3 ADD MSTORE PUSH15 0x151C985B9CD9995C8819985A5B1959 PUSH1 0x8A SHL PUSH1 0x44 DUP3 ADD MSTORE PUSH1 0x64 SWAP1 REVERT JUMPDEST SWAP1 DUP2 PUSH1 0x20 SWAP2 SUB SLT PUSH2 0xAB3 JUMPI MLOAD PUSH1 0x3 DUP2 LT ISZERO PUSH2 0xAB3 JUMPI SWAP1 JUMP JUMPDEST SWAP1 DUP2 PUSH1 0x20 SWAP2 SUB SLT PUSH2 0xAB3 JUMPI MLOAD DUP1 ISZERO ISZERO DUP2 SUB PUSH2 0xAB3 JUMPI SWAP1 JUMP JUMPDEST ISZERO PUSH2 0xC39 JUMPI JUMP JUMPDEST PUSH1 0x40 MLOAD PUSH3 0x461BCD PUSH1 0xE5 SHL DUP2 MSTORE PUSH1 0x20 PUSH1 0x4 DUP3 ADD MSTORE PUSH1 0x14 PUSH1 0x24 DUP3 ADD MSTORE PUSH20 0x151C985B9CD9995C88119C9BDB4819985A5B1959 PUSH1 0x62 SHL PUSH1 0x44 DUP3 ADD MSTORE PUSH1 0x64 SWAP1 REVERT JUMPDEST SWAP1 DUP2 PUSH1 0x60 SWAP2 SUB SLT PUSH2 0xAB3 JUMPI PUSH1 0x40 MLOAD SWAP1 PUSH1 0x60 DUP3 ADD SWAP1 DUP3 DUP3 LT PUSH8 0xFFFFFFFFFFFFFFFF DUP4 GT OR PUSH2 0xB6E JUMPI PUSH1 0x40 SWAP2 DUP3 MSTORE DUP1 MLOAD DUP4 MSTORE PUSH1 0x20 DUP2 ADD MLOAD PUSH1 0x20 DUP5 ADD MSTORE ADD MLOAD PUSH1 0x40 DUP3 ADD MSTORE SWAP1 JUMP JUMPDEST DUP2 DUP2 MUL SWAP3 SWAP2 DUP2 ISZERO SWAP2 DUP5 DIV EQ OR ISZERO PUSH2 0xB06 JUMPI JUMP JUMPDEST DUP2 ISZERO PUSH2 0xCD6 JUMPI DIV SWAP1 JUMP JUMPDEST PUSH4 0x4E487B71 PUSH1 0xE0 SHL PUSH1 0x0 MSTORE PUSH1 0x12 PUSH1 0x4 MSTORE PUSH1 0x24 PUSH1 0x0 REVERT JUMPDEST PUSH1 0x1 SLOAD PUSH1 0x40 DUP1 MLOAD PUSH4 0xC3F6ACF PUSH1 0xE0 SHL DUP2 MSTORE SWAP4 SWAP5 SWAP4 PUSH1 0x1 PUSH1 0x1 PUSH1 0xA0 SHL SUB SWAP4 PUSH1 0x4 SWAP4 PUSH1 0x20 SWAP4 SWAP3 SWAP1 DUP5 SWAP1 DUP3 SWAP1 DUP8 SWAP1 DUP3 SWAP1 DUP11 AND GAS STATICCALL SWAP1 DUP2 ISZERO PUSH2 0x12AF JUMPI PUSH1 0x0 SWAP2 PUSH2 0x1292 JUMPI JUMPDEST POP PUSH1 0x3 DUP2 LT ISZERO PUSH2 0x127D JUMPI PUSH1 0x2 DUP2 EQ PUSH2 0x1243 JUMPI DUP6 DUP3 AND SWAP1 DUP2 PUSH1 0x0 MSTORE PUSH1 0x6 DUP6 MSTORE DUP4 PUSH1 0x0 KECCAK256 SLOAD DUP10 GT PUSH2 0x120A JUMPI PUSH2 0xD60 DUP10 ISZERO ISZERO PUSH2 0xAB8 JUMP JUMPDEST PUSH1 0x1 PUSH2 0xD6B DUP5 PUSH2 0x12BA JUMP JUMPDEST POP SWAP2 SUB PUSH2 0x11BB JUMPI PUSH8 0xD2F13F7789F0000 GT ISZERO PUSH2 0x116E JUMPI PUSH1 0x60 SWAP5 SWAP6 SWAP7 SWAP8 JUMPDEST DUP8 PUSH1 0x3 SLOAD AND DUP5 MLOAD SWAP7 DUP8 DUP1 SWAP3 PUSH4 0x82F01C85 PUSH1 0xE0 SHL DUP3 MSTORE DUP6 DUP12 DUP4 ADD MSTORE PUSH1 0x24 SWAP10 DUP11 SWAP2 GAS STATICCALL SWAP1 DUP2 ISZERO PUSH2 0x1163 JUMPI PUSH1 0x0 SWAP2 PUSH2 0x1135 JUMPI JUMPDEST POP DUP5 DUP2 ADD DUP1 MLOAD PUSH2 0x1075 JUMPI JUMPDEST POP PUSH1 0x2 SLOAD DUP6 MLOAD PUSH4 0x23B872DD PUSH1 0xE0 SHL DUP2 MSTORE CALLER DUP2 DUP12 ADD SWAP1 DUP2 MSTORE ADDRESS PUSH1 0x20 DUP3 ADD MSTORE PUSH1 0x40 DUP2 ADD DUP6 SWAP1 MSTORE SWAP1 SWAP2 DUP9 SWAP2 DUP4 SWAP2 DUP14 AND SWAP1 DUP3 SWAP1 PUSH1 0x0 SWAP1 DUP3 SWAP1 PUSH1 0x60 ADD SUB SWAP3 GAS CALL SWAP1 DUP2 ISZERO PUSH2 0x106A JUMPI DUP8 SWAP3 SWAP2 PUSH2 0xE19 SWAP2 PUSH1 0x0 SWAP2 PUSH2 0x499 JUMPI POP PUSH2 0xC32 JUMP JUMPDEST DUP4 PUSH1 0x0 MSTORE PUSH1 0x6 DUP3 MSTORE DUP6 PUSH1 0x0 KECCAK256 PUSH2 0xE30 DUP5 DUP3 SLOAD PUSH2 0xB3F JUMP JUMPDEST SWAP1 SSTORE ADD MLOAD SWAP8 PUSH1 0x64 SWAP9 DUP10 ADD SWAP1 DUP2 DUP11 GT PUSH2 0x1022 JUMPI DUP9 SLOAD AND SWAP1 DUP7 PUSH1 0x0 DUP10 DUP12 DUP10 MLOAD SWAP6 DUP7 SWAP4 DUP5 SWAP3 PUSH4 0x2C68BE3 PUSH1 0xE3 SHL DUP5 MSTORE DUP4 ADD MSTORE GAS STATICCALL SWAP2 DUP3 ISZERO PUSH2 0x106A JUMPI SWAP1 DUP11 SWAP2 PUSH1 0x0 SWAP4 PUSH2 0x1036 JUMPI JUMPDEST POP PUSH2 0xE7E SWAP1 DUP5 PUSH2 0xCB9 JUMP JUMPDEST DIV PUSH8 0xDE0B6B3A7640000 SWAP1 DUP2 DUP2 MUL SWAP2 DUP2 DUP4 DIV EQ SWAP1 ISZERO OR ISZERO PUSH2 0x1022 JUMPI SWAP1 PUSH2 0xEA3 SWAP2 PUSH2 0xCCC JUMP JUMPDEST DUP3 PUSH1 0x0 MSTORE PUSH1 0x5 DUP7 MSTORE DUP1 DUP6 PUSH1 0x0 KECCAK256 SLOAD LT PUSH2 0xFD7 JUMPI DUP3 PUSH1 0x0 MSTORE PUSH1 0x5 DUP7 MSTORE DUP5 PUSH1 0x0 KECCAK256 PUSH2 0xECD DUP3 DUP3 SLOAD PUSH2 0xB3F JUMP JUMPDEST SWAP1 SSTORE PUSH1 0x0 DUP1 DUP1 DUP1 DUP5 CALLER GAS CALL PUSH2 0xEE0 PUSH2 0xB84 JUMP JUMPDEST POP ISZERO PUSH2 0xFA0 JUMPI DUP5 MLOAD SWAP2 DUP3 MSTORE DUP6 DUP3 ADD MSTORE DUP2 PUSH32 0x1F0C6615429D1CDAE0DFA233ABF91D3B31CDBDD82C8081389832A61E1072F1EA DUP6 CALLER SWAP4 LOG3 PUSH1 0x0 MSTORE PUSH1 0x6 DUP4 MSTORE DUP2 PUSH1 0x0 KECCAK256 SLOAD ISZERO PUSH2 0xF2F JUMPI JUMPDEST POP POP POP POP POP POP JUMP JUMPDEST PUSH1 0x5 DUP4 MSTORE DUP2 PUSH1 0x0 KECCAK256 SWAP1 DUP2 SLOAD SWAP1 DUP2 PUSH2 0xF48 JUMPI JUMPDEST POP POP PUSH2 0xF27 JUMP JUMPDEST PUSH1 0x0 DUP1 SWAP4 SWAP3 DUP2 SWAP4 SWAP3 DUP3 DUP1 SWAP5 SSTORE GAS CALL PUSH2 0xF5E PUSH2 0xB84 JUMP JUMPDEST POP ISZERO PUSH2 0xF6C JUMPI DUP1 DUP1 DUP1 PUSH2 0xF41 JUMP JUMPDEST MLOAD PUSH3 0x461BCD PUSH1 0xE5 SHL DUP2 MSTORE SWAP3 DUP4 ADD MSTORE PUSH1 0x15 SWAP1 DUP3 ADD MSTORE PUSH21 0x1499599D5B99081D1BC81D5CD95C8819985A5B1959 PUSH1 0x5A SHL PUSH1 0x44 DUP3 ADD MSTORE REVERT JUMPDEST DUP5 MLOAD PUSH3 0x461BCD PUSH1 0xE5 SHL DUP2 MSTORE DUP1 DUP10 ADD DUP8 SWAP1 MSTORE PUSH1 0x13 DUP2 DUP10 ADD MSTORE PUSH19 0x11551208151C985B9CD9995C8819985A5B1959 PUSH1 0x6A SHL PUSH1 0x44 DUP3 ADD MSTORE DUP10 SWAP1 REVERT JUMPDEST DUP5 MLOAD PUSH3 0x461BCD PUSH1 0xE5 SHL DUP2 MSTORE DUP1 DUP10 ADD DUP8 SWAP1 MSTORE PUSH1 0x21 DUP2 DUP10 ADD MSTORE PUSH32 0x436F6C6C61746572616C20696E73756666696369656E7420666F7220626F6E75 PUSH1 0x44 DUP3 ADD MSTORE PUSH1 0x73 PUSH1 0xF8 SHL DUP2 DUP12 ADD MSTORE PUSH1 0x84 SWAP1 REVERT JUMPDEST DUP8 PUSH1 0x11 DUP11 PUSH4 0x4E487B71 PUSH1 0xE0 SHL PUSH1 0x0 MSTORE MSTORE PUSH1 0x0 REVERT JUMPDEST SWAP2 POP SWAP2 DUP8 DUP3 DUP2 RETURNDATASIZE DUP4 GT PUSH2 0x1063 JUMPI JUMPDEST PUSH2 0x104E DUP2 DUP4 PUSH2 0xB4C JUMP JUMPDEST DUP2 ADD SUB SLT PUSH2 0x394 JUMPI POP MLOAD SWAP1 DUP10 SWAP1 PUSH2 0xE7E PUSH2 0xE73 JUMP JUMPDEST POP RETURNDATASIZE PUSH2 0x1044 JUMP JUMPDEST DUP7 MLOAD RETURNDATASIZE PUSH1 0x0 DUP3 RETURNDATACOPY RETURNDATASIZE SWAP1 REVERT JUMPDEST DUP4 PUSH1 0x0 SWAP10 SWAP7 SWAP8 SWAP9 SWAP6 SWAP5 SWAP10 MSTORE PUSH1 0x7 DUP9 MSTORE DUP7 PUSH1 0x0 KECCAK256 SLOAD SWAP1 DUP2 ISZERO PUSH1 0x0 EQ PUSH2 0x10D3 JUMPI POP POP POP POP POP POP POP DUP3 PUSH32 0x26CEBF317338E2CF649FCDA3377DF64EBA66CFFF88183B6E6AF43E6AB676405C SWAP4 SWAP5 POP PUSH1 0x0 MSTORE PUSH1 0x7 DUP3 MSTORE TIMESTAMP DUP2 PUSH1 0x0 KECCAK256 SSTORE MLOAD TIMESTAMP DUP2 MSTORE LOG2 JUMP JUMPDEST SWAP1 PUSH2 0x10E6 SWAP2 SWAP10 SWAP5 SWAP6 SWAP9 SWAP8 SWAP7 SWAP10 MLOAD SWAP1 PUSH2 0xAF9 JUMP JUMPDEST TIMESTAMP GT ISZERO PUSH2 0x1101 JUMPI DUP3 PUSH1 0x0 MSTORE PUSH1 0x7 DUP7 MSTORE PUSH1 0x0 DUP6 DUP2 KECCAK256 SSTORE CODESIZE PUSH2 0xDC3 JUMP JUMPDEST DUP5 MLOAD PUSH3 0x461BCD PUSH1 0xE5 SHL DUP2 MSTORE DUP1 DUP10 ADD DUP8 SWAP1 MSTORE PUSH1 0xF DUP2 DUP10 ADD MSTORE PUSH15 0x125B8811DC9858D94814195C9A5BD9 PUSH1 0x8A SHL PUSH1 0x44 DUP3 ADD MSTORE PUSH1 0x64 SWAP1 REVERT JUMPDEST PUSH2 0x1156 SWAP2 POP PUSH1 0x60 RETURNDATASIZE DUP2 GT PUSH2 0x115C JUMPI JUMPDEST PUSH2 0x114E DUP2 DUP4 PUSH2 0xB4C JUMP JUMPDEST DUP2 ADD SWAP1 PUSH2 0xC75 JUMP JUMPDEST CODESIZE PUSH2 0xDB8 JUMP JUMPDEST POP RETURNDATASIZE PUSH2 0x1144 JUMP JUMPDEST DUP6 MLOAD RETURNDATASIZE PUSH1 0x0 DUP3 RETURNDATACOPY RETURNDATASIZE SWAP1 REVERT JUMPDEST POP POP MLOAD PUSH3 0x461BCD PUSH1 0xE5 SHL DUP2 MSTORE SWAP2 DUP3 ADD MSTORE PUSH1 0x21 PUSH1 0x24 DUP3 ADD MSTORE PUSH32 0x59656C6C6F77204D6F64653A204E6F7420646565706C7920696E736F6C76656E PUSH1 0x44 DUP3 ADD MSTORE PUSH1 0x1D PUSH1 0xFA SHL PUSH1 0x64 DUP3 ADD MSTORE PUSH1 0x84 SWAP2 POP REVERT JUMPDEST PUSH8 0xDE0B6B3A7640000 GT ISZERO PUSH2 0x11D5 JUMPI PUSH1 0x60 SWAP5 SWAP6 SWAP7 SWAP8 PUSH2 0xD88 JUMP JUMPDEST POP POP MLOAD PUSH3 0x461BCD PUSH1 0xE5 SHL DUP2 MSTORE SWAP2 DUP3 ADD MSTORE PUSH1 0xF PUSH1 0x24 DUP3 ADD MSTORE PUSH15 0x55736572206973206865616C746879 PUSH1 0x88 SHL PUSH1 0x44 DUP3 ADD MSTORE PUSH1 0x64 SWAP2 POP REVERT JUMPDEST DUP4 MLOAD PUSH3 0x461BCD PUSH1 0xE5 SHL DUP2 MSTORE DUP1 DUP8 ADD DUP7 SWAP1 MSTORE PUSH1 0x13 PUSH1 0x24 DUP3 ADD MSTORE PUSH19 0x105B5BDD5B9D08195E18D959591CC81919589D PUSH1 0x6A SHL PUSH1 0x44 DUP3 ADD MSTORE PUSH1 0x64 SWAP1 REVERT JUMPDEST POP POP MLOAD PUSH3 0x461BCD PUSH1 0xE5 SHL DUP2 MSTORE SWAP2 DUP3 ADD MSTORE PUSH1 0x14 PUSH1 0x24 DUP3 ADD MSTORE PUSH20 0x526564204D6F64653A205573652053706F6E6765 PUSH1 0x60 SHL PUSH1 0x44 DUP3 ADD MSTORE PUSH1 0x64 SWAP2 POP REVERT JUMPDEST PUSH1 0x21 DUP6 PUSH4 0x4E487B71 PUSH1 0xE0 SHL PUSH1 0x0 MSTORE MSTORE PUSH1 0x24 PUSH1 0x0 REVERT JUMPDEST PUSH2 0x12A9 SWAP2 POP DUP5 RETURNDATASIZE DUP7 GT PUSH2 0x6A0 JUMPI PUSH2 0x692 DUP2 DUP4 PUSH2 0xB4C JUMP JUMPDEST CODESIZE PUSH2 0xD2C JUMP JUMPDEST DUP4 MLOAD RETURNDATASIZE PUSH1 0x0 DUP3 RETURNDATACOPY RETURNDATASIZE SWAP1 REVERT JUMPDEST PUSH1 0x1 PUSH1 0x1 PUSH1 0xA0 SHL SUB SWAP1 DUP2 AND PUSH1 0x0 DUP2 DUP2 MSTORE PUSH1 0x5 PUSH1 0x20 SWAP1 DUP2 MSTORE PUSH1 0x40 DUP1 DUP4 KECCAK256 SLOAD PUSH1 0x6 DUP4 MSTORE DUP2 DUP5 KECCAK256 SLOAD SWAP5 SWAP3 SWAP4 SWAP3 SWAP1 DUP6 ISZERO PUSH2 0x1405 JUMPI PUSH1 0x24 DUP6 DUP9 PUSH1 0x4 SLOAD AND DUP6 MLOAD SWAP3 DUP4 DUP1 SWAP3 PUSH4 0x2C68BE3 PUSH1 0xE3 SHL DUP3 MSTORE DUP10 PUSH1 0x4 DUP4 ADD MSTORE GAS STATICCALL SWAP6 DUP7 ISZERO PUSH2 0x31A JUMPI DUP6 SWAP7 PUSH2 0x13D4 JUMPI JUMPDEST POP POP PUSH1 0x60 SWAP1 PUSH2 0x1331 PUSH8 0xDE0B6B3A7640000 SWAP7 DUP8 SWAP3 PUSH2 0xCB9 JUMP JUMPDEST DIV SWAP7 PUSH1 0x3 SLOAD AND SWAP2 PUSH1 0x24 DUP5 MLOAD DUP1 SWAP5 DUP2 SWAP4 PUSH4 0x82F01C85 PUSH1 0xE0 SHL DUP4 MSTORE PUSH1 0x4 DUP4 ADD MSTORE GAS STATICCALL SWAP2 DUP3 ISZERO PUSH2 0x13CB JUMPI POP SWAP1 PUSH2 0x136D SWAP2 DUP4 SWAP2 PUSH2 0x13AD JUMPI JUMPDEST POP MLOAD DUP6 PUSH2 0xCB9 JUMP JUMPDEST DUP3 DUP2 MUL SWAP3 DUP2 DUP5 DIV EQ SWAP1 ISZERO OR ISZERO PUSH2 0x1399 JUMPI PUSH1 0x64 DUP4 MUL SWAP3 DUP4 DIV PUSH1 0x64 SUB PUSH2 0x1399 JUMPI POP SWAP1 PUSH2 0x1396 SWAP2 PUSH2 0xCCC JUMP JUMPDEST SWAP2 JUMP JUMPDEST PUSH4 0x4E487B71 PUSH1 0xE0 SHL DUP2 MSTORE PUSH1 0x11 PUSH1 0x4 MSTORE PUSH1 0x24 SWAP1 REVERT JUMPDEST PUSH2 0x13C5 SWAP2 POP PUSH1 0x60 RETURNDATASIZE DUP2 GT PUSH2 0x115C JUMPI PUSH2 0x114E DUP2 DUP4 PUSH2 0xB4C JUMP JUMPDEST CODESIZE PUSH2 0x1365 JUMP JUMPDEST MLOAD RETURNDATASIZE DUP5 DUP3 RETURNDATACOPY RETURNDATASIZE SWAP1 REVERT JUMPDEST SWAP1 DUP1 SWAP3 SWAP7 POP DUP2 RETURNDATASIZE DUP4 GT PUSH2 0x13FE JUMPI JUMPDEST PUSH2 0x13EC DUP2 DUP4 PUSH2 0xB4C JUMP JUMPDEST DUP2 ADD SUB SLT PUSH2 0x324 JUMPI MLOAD SWAP4 PUSH1 0x60 CODESIZE PUSH2 0x1318 JUMP JUMPDEST POP RETURNDATASIZE PUSH2 0x13E2 JUMP JUMPDEST POP POP POP SWAP4 SWAP3 POP POP POP PUSH1 0x0 NOT SWAP2 SWAP1 JUMP JUMPDEST PUSH2 0x1426 PUSH8 0xDE0B6B3A7640000 SWAP2 PUSH2 0x12BA JUMP JUMPDEST POP LT PUSH2 0x142E JUMPI JUMP JUMPDEST PUSH1 0x40 MLOAD PUSH3 0x461BCD PUSH1 0xE5 SHL DUP2 MSTORE PUSH1 0x20 PUSH1 0x4 DUP3 ADD MSTORE PUSH1 0x13 PUSH1 0x24 DUP3 ADD MSTORE PUSH19 0x4865616C746820466163746F72203C20312E3 PUSH1 0x6C SHL PUSH1 0x44 DUP3 ADD MSTORE PUSH1 0x64 SWAP1 REVERT INVALID LOG2 PUSH5 0x6970667358 0x22 SLT KECCAK256 0xE8 SSTORE 0xD0 PUSH18 0x224F7BAB294EE102261697B707A9763BB09B CODESIZE PUSH32 0x577A4EE5EE0247C564736F6C6343000814003300000000000000000000000000 "},"methodIdentifiers":{"aegisCore()":"49bb4eda","borrowUSDC(uint256)":"7a9fe9ff","depositETH()":"f6326fb3","identityRegistry()":"134e18f4","liquidate(address,uint256)":"bcbaf487","liquidityProviderBalance(address)":"c5c056e0","oracle()":"7dc0d1d0","probationStart(address)":"5370307c","provideLiquidity(uint256)":"eb521a4c","repayUSDC(uint256)":"9236a51d","seizeForBackstop(address,uint256)":"02aaa423","usdcToken()":"11eac855","userCollateralETH(address)":"93fd83a2","userDebtUSDC(address)":"791428ff","withdrawETH(uint256)":"f14210a6","withdrawLiquidity(uint256)":"0a861f2a"}}}}}