{"contracts/mocks/MockCoWSwap.sol":{"MockCoWSwap":{"abi":[{"anonymous":false,"inputs":[{"indexed":true,"internalType":"address","name":"tokenSell","type":"address"},{"indexed":false,"internalType":"uint256","name":"amount","type":"uint256"}],"name":"OrderPlaced","type":"event"},{"inputs":[{"internalType":"address","name":"tokenSell","type":"address"},{"internalType":"uint256","name":"amount","type":"uint256"}],"name":"placeOrder","outputs":[{"internalType":"bool","name":"","type":"bool"}],"stateMutability":"nonpayable","type":"function"}],"evm":{"bytecode":{"linkReferences":{},"object":"608080604052346100155760bf908161001b8239f35b600080fdfe6080806040526004361015601257600080fd5b600090813560e01c63b25e2e6814602857600080fd5b3460855760403660031901126085576004356001600160a01b03811692908390036082575060207ff6f21bda482268b6851cb7d134c9ef42acd2e610afc2ce82688cd2799adacca3916024358152a2602060405160018152f35b80fd5b5080fdfea2646970667358221220a8f1940c8e6083a803f2edb4dfd371b2482ac85b8a8b671fc39ef64aed8309b664736f6c63430008140033","opcodes":"PUSH1 0x80 DUP1 PUSH1 0x40 MSTORE CALLVALUE PUSH2 0x15 JUMPI PUSH1 0xBF SWAP1 DUP2 PUSH2 0x1B DUP3 CODECOPY RETURN JUMPDEST PUSH1 0x0 DUP1 REVERT INVALID PUSH1 0x80 DUP1 PUSH1 0x40 MSTORE PUSH1 0x4 CALLDATASIZE LT ISZERO PUSH1 0x12 JUMPI PUSH1 0x0 DUP1 REVERT JUMPDEST PUSH1 0x0 SWAP1 DUP2 CALLDATALOAD PUSH1 0xE0 SHR PUSH4 0xB25E2E68 EQ PUSH1 0x28 JUMPI PUSH1 0x0 DUP1 REVERT JUMPDEST CALLVALUE PUSH1 0x85 JUMPI PUSH1 0x40 CALLDATASIZE PUSH1 0x3 NOT ADD SLT PUSH1 0x85 JUMPI PUSH1 0x4 CALLDATALOAD PUSH1 0x1 PUSH1 0x1 PUSH1 0xA0 SHL SUB DUP2 AND SWAP3 SWAP1 DUP4 SWAP1 SUB PUSH1 0x82 JUMPI POP PUSH1 0x20 PUSH32 0xF6F21BDA482268B6851CB7D134C9EF42ACD2E610AFC2CE82688CD2799ADACCA3 SWAP2 PUSH1 0x24 CALLDATALOAD DUP2 MSTORE LOG2 PUSH1 0x20 PUSH1 0x40 MLOAD PUSH1 0x1 DUP2 MSTORE RETURN JUMPDEST DUP1 REVERT JUMPDEST POP DUP1 REVERT INVALID LOG2 PUSH5 0x6970667358 0x22 SLT KECCAK256 0xA8 CALL SWAP5 0xC DUP15 PUSH1 0x83 0xA8 SUB CALLCODE 0xED 0xB4 0xDF 0xD3 PUSH18 0xB2482AC85B8A8B671FC39EF64AED8309B664 PUSH20 0x6F6C634300081400330000000000000000000000 "},"methodIdentifiers":{"placeOrder(address,uint256)":"b25e2e68"}}}}}