{"contracts/core/AegisLens.sol":{"AegisLens":{"abi":[{"inputs":[{"internalType":"address","name":"_identityRegistry","type":"address"},{"internalType":"address","name":"_oracle","type":"address"}],"stateMutability":"nonpayable","type":"constructor"},{"inputs":[{"internalType":"address","name":"user","type":"address"},{"internalType":"uint256","name":"collateralETH","type":"uint256"},{"internalType":"uint256","name":"debtUSDC","type":"uint256"}],"name":"getUserAccountData","outputs":[{"components":[{"internalType":"uint256","name":"totalCollateralUSD","type":"uint256"},{"internalType":"uint256","name":"totalDebtUSD","type":"uint256"},{"internalType":"uint256","name":"availableBorrowsUSD","type":"uint256"},{"internalType":"uint256","name":"currentLiquidationThreshold","type":"uint256"},{"internalType":"uint256","name":"ltv","type":"uint256"},{"internalType":"uint256","name":"healthFactor","type":"uint256"},{"internalType":"uint256","name":"liquidationPrice","type":"uint256"}],"internalType":"struct AegisLens.UserAccountData","name":"","type":"tuple"}],"stateMutability":"view","type":"function"},{"inputs":[{"internalType":"address","name":"pool","type":"address"},{"internalType":"address","name":"user","type":"address"}],"name":"getUserPosition","outputs":[{"components":[{"internalType":"uint256","name":"totalCollateralUSD","type":"uint256"},{"internalType":"uint256","name":"totalDebtUSD","type":"uint256"},{"internalType":"uint256","name":"availableBorrowsUSD","type":"uint256"},{"internalType":"uint256","name":"currentLiquidationThreshold","type":"uint256"},{"internalType":"uint256","name":"ltv","type":"uint256"},{"internalType":"uint256","name":"healthFactor","type":"uint256"},{"internalType":"uint256","name":"liquidationPrice","type":"uint256"}],"internalType":"struct AegisLens.UserAccountData","name":"","type":"tuple"}],"stateMutability":"view","type":"function"},{"inputs":[],"name":"identityRegistry","outputs":[{"internalType":"contract IUnstoppable","name":"","type":"address"}],"stateMutability":"view","type":"function"},{"inputs":[],"name":"oracle","outputs":[{"internalType":"contract IAegisOracle","name":"","type":"address"}],"stateMutability":"view","type":"function"}],"evm":{"bytecode":{"linkReferences":{},"object":"60803461008d57601f6106eb38819003918201601f19168301916001600160401b0383118484101761009257808492604094855283398101031261008d57610052602061004b836100a8565b92016100a8565b600080546001600160a01b039384166001600160a01b0319918216179091556001805492909316911617905560405161062e90816100bd8239f35b600080fd5b634e487b7160e01b600052604160045260246000fd5b51906001600160a01b038216820361008d5756fe60806040818152600436101561001457600080fd5b600091823560e01c908163134e18f41461021e575080637dc0d1d0146101f657806392a576e6146100d15763f88c90ab1461004e57600080fd5b346100cd5760603660031901126100cd576100c99061007b61006e610242565b6044359060243590610332565b90519182918291909160c08060e0830194805184526020810151602085015260408101516040850152606081015160608501526080810151608085015260a081015160a08501520151910152565b0390f35b5080fd5b50346100cd57806003193601126100cd576100ea610242565b6024356001600160a01b0381811694928583036101f2576101096102b1565b50168351926349fec1d160e11b84528560048501526020958685602481865afa9485156101e85790879183966101b7575b50602487518095819363791428ff60e01b835260048301525afa9586156101ab578196610171575b6100c98661007b898888610332565b909180939650813d83116101a4575b61018a818361028f565b810103126101a157505192816100c961007b610162565b80fd5b503d610180565b508451903d90823e3d90fd5b8281939297503d83116101e1575b6101cf818361028f565b810103126100cd57869051943861013a565b503d6101c5565b86513d84823e3d90fd5b8380fd5b50346100cd57816003193601126100cd5760015490516001600160a01b039091168152602090f35b8390346100cd57816003193601126100cd5790546001600160a01b03168152602090f35b600435906001600160a01b038216820361025857565b600080fd5b60e0810190811067ffffffffffffffff82111761027957604052565b634e487b7160e01b600052604160045260246000fd5b90601f8019910116810190811067ffffffffffffffff82111761027957604052565b604051906102be8261025d565b8160c06000918281528260208201528260408201528260608201528260808201528260a08201520152565b818102929181159184041417156102fc57565b634e487b7160e01b600052601160045260246000fd5b811561031c570490565b634e487b7160e01b600052601260045260246000fd5b909161033c6102b1565b5060018060a01b0360009181835416916040928351809281926382f01c8560e01b8352816004991689840152606094859160249586915afa918215610579579083918893610583575b50602090600154168751928380926302c68be360e31b82528b8d8301525afa8015610579578790610542575b6103c89150670de0b6b3a76400009182918b6102e9565b049860646103d784518c6102e9565b0493889487811161051c575b506000199887159a8b156104b9575b819b841515806104af575b610437575b505050505050519384938151986104188a61025d565b89526020890152870152850152608084015260a083015260c082015290565b9091929394959b506064890290898204606414171561049e5768056bc75e2d63100000890295818704149015171561048e575050509061047c610482928951906102e9565b90610312565b95388080808080610402565b634e487b7160e01b825260119052fd5b50634e487b7160e01b825260119052fd5b50865115156103fd565b99506104c685518d6102e9565b8481029080820486149015171561050b5760648902908982046064148d17156104f957906104f391610312565b996103f2565b5050634e487b7160e01b815260118a52fd5b50634e487b7160e01b815260118a52fd5b9094508681039081116105305793386103e3565b634e487b7160e01b895260118a528489fd5b506020813d8211610571575b8161055b6020938361028f565b8101031261056d576103c890516103b1565b8680fd5b3d915061054e565b86513d89823e3d90fd5b85809294508193503d83116105f1575b61059d818361028f565b8101031261056d5785519084820182811067ffffffffffffffff8211176105df5787528051825260208181015181840152908701518783015290918391610385565b634e487b7160e01b895260418a528489fd5b503d61059356fea26469706673582212201280eb1c58daedd4a10e580c61eb449731550df8e3cc619886e3a5b3f3fde19164736f6c63430008140033","opcodes":"PUSH1 0x80 CALLVALUE PUSH2 0x8D JUMPI PUSH1 0x1F PUSH2 0x6EB CODESIZE DUP2 SWAP1 SUB SWAP2 DUP3 ADD PUSH1 0x1F NOT AND DUP4 ADD SWAP2 PUSH1 0x1 PUSH1 0x1 PUSH1 0x40 SHL SUB DUP4 GT DUP5 DUP5 LT OR PUSH2 0x92 JUMPI DUP1 DUP5 SWAP3 PUSH1 0x40 SWAP5 DUP6 MSTORE DUP4 CODECOPY DUP2 ADD SUB SLT PUSH2 0x8D JUMPI PUSH2 0x52 PUSH1 0x20 PUSH2 0x4B DUP4 PUSH2 0xA8 JUMP JUMPDEST SWAP3 ADD PUSH2 0xA8 JUMP JUMPDEST PUSH1 0x0 DUP1 SLOAD PUSH1 0x1 PUSH1 0x1 PUSH1 0xA0 SHL SUB SWAP4 DUP5 AND PUSH1 0x1 PUSH1 0x1 PUSH1 0xA0 SHL SUB NOT SWAP2 DUP3 AND OR SWAP1 SWAP2 SSTORE PUSH1 0x1 DUP1 SLOAD SWAP3 SWAP1 SWAP4 AND SWAP2 AND OR SWAP1 SSTORE PUSH1 0x40 MLOAD PUSH2 0x62E SWAP1 DUP2 PUSH2 0xBD DUP3 CODECOPY RETURN JUMPDEST PUSH1 0x0 DUP1 REVERT JUMPDEST PUSH4 0x4E487B71 PUSH1 0xE0 SHL PUSH1 0x0 MSTORE PUSH1 0x41 PUSH1 0x4 MSTORE PUSH1 0x24 PUSH1 0x0 REVERT JUMPDEST MLOAD SWAP1 PUSH1 0x1 PUSH1 0x1 PUSH1 0xA0 SHL SUB DUP3 AND DUP3 SUB PUSH2 0x8D JUMPI JUMP INVALID PUSH1 0x80 PUSH1 0x40 DUP2 DUP2 MSTORE PUSH1 0x4 CALLDATASIZE LT ISZERO PUSH2 0x14 JUMPI PUSH1 0x0 DUP1 REVERT JUMPDEST PUSH1 0x0 SWAP2 DUP3 CALLDATALOAD PUSH1 0xE0 SHR SWAP1 DUP2 PUSH4 0x134E18F4 EQ PUSH2 0x21E JUMPI POP DUP1 PUSH4 0x7DC0D1D0 EQ PUSH2 0x1F6 JUMPI DUP1 PUSH4 0x92A576E6 EQ PUSH2 0xD1 JUMPI PUSH4 0xF88C90AB EQ PUSH2 0x4E JUMPI PUSH1 0x0 DUP1 REVERT JUMPDEST CALLVALUE PUSH2 0xCD JUMPI PUSH1 0x60 CALLDATASIZE PUSH1 0x3 NOT ADD SLT PUSH2 0xCD JUMPI PUSH2 0xC9 SWAP1 PUSH2 0x7B PUSH2 0x6E PUSH2 0x242 JUMP JUMPDEST PUSH1 0x44 CALLDATALOAD SWAP1 PUSH1 0x24 CALLDATALOAD SWAP1 PUSH2 0x332 JUMP JUMPDEST SWAP1 MLOAD SWAP2 DUP3 SWAP2 DUP3 SWAP2 SWAP1 SWAP2 PUSH1 0xC0 DUP1 PUSH1 0xE0 DUP4 ADD SWAP5 DUP1 MLOAD DUP5 MSTORE PUSH1 0x20 DUP2 ADD MLOAD PUSH1 0x20 DUP6 ADD MSTORE PUSH1 0x40 DUP2 ADD MLOAD PUSH1 0x40 DUP6 ADD MSTORE PUSH1 0x60 DUP2 ADD MLOAD PUSH1 0x60 DUP6 ADD MSTORE PUSH1 0x80 DUP2 ADD MLOAD PUSH1 0x80 DUP6 ADD MSTORE PUSH1 0xA0 DUP2 ADD MLOAD PUSH1 0xA0 DUP6 ADD MSTORE ADD MLOAD SWAP2 ADD MSTORE JUMP JUMPDEST SUB SWAP1 RETURN JUMPDEST POP DUP1 REVERT JUMPDEST POP CALLVALUE PUSH2 0xCD JUMPI DUP1 PUSH1 0x3 NOT CALLDATASIZE ADD SLT PUSH2 0xCD JUMPI PUSH2 0xEA PUSH2 0x242 JUMP JUMPDEST PUSH1 0x24 CALLDATALOAD PUSH1 0x1 PUSH1 0x1 PUSH1 0xA0 SHL SUB DUP2 DUP2 AND SWAP5 SWAP3 DUP6 DUP4 SUB PUSH2 0x1F2 JUMPI PUSH2 0x109 PUSH2 0x2B1 JUMP JUMPDEST POP AND DUP4 MLOAD SWAP3 PUSH4 0x49FEC1D1 PUSH1 0xE1 SHL DUP5 MSTORE DUP6 PUSH1 0x4 DUP6 ADD MSTORE PUSH1 0x20 SWAP6 DUP7 DUP6 PUSH1 0x24 DUP2 DUP7 GAS STATICCALL SWAP5 DUP6 ISZERO PUSH2 0x1E8 JUMPI SWAP1 DUP8 SWAP2 DUP4 SWAP7 PUSH2 0x1B7 JUMPI JUMPDEST POP PUSH1 0x24 DUP8 MLOAD DUP1 SWAP6 DUP2 SWAP4 PUSH4 0x791428FF PUSH1 0xE0 SHL DUP4 MSTORE PUSH1 0x4 DUP4 ADD MSTORE GAS STATICCALL SWAP6 DUP7 ISZERO PUSH2 0x1AB JUMPI DUP2 SWAP7 PUSH2 0x171 JUMPI JUMPDEST PUSH2 0xC9 DUP7 PUSH2 0x7B DUP10 DUP9 DUP9 PUSH2 0x332 JUMP JUMPDEST SWAP1 SWAP2 DUP1 SWAP4 SWAP7 POP DUP2 RETURNDATASIZE DUP4 GT PUSH2 0x1A4 JUMPI JUMPDEST PUSH2 0x18A DUP2 DUP4 PUSH2 0x28F JUMP JUMPDEST DUP2 ADD SUB SLT PUSH2 0x1A1 JUMPI POP MLOAD SWAP3 DUP2 PUSH2 0xC9 PUSH2 0x7B PUSH2 0x162 JUMP JUMPDEST DUP1 REVERT JUMPDEST POP RETURNDATASIZE PUSH2 0x180 JUMP JUMPDEST POP DUP5 MLOAD SWAP1 RETURNDATASIZE SWAP1 DUP3 RETURNDATACOPY RETURNDATASIZE SWAP1 REVERT JUMPDEST DUP3 DUP2 SWAP4 SWAP3 SWAP8 POP RETURNDATASIZE DUP4 GT PUSH2 0x1E1 JUMPI JUMPDEST PUSH2 0x1CF DUP2 DUP4 PUSH2 0x28F JUMP JUMPDEST DUP2 ADD SUB SLT PUSH2 0xCD JUMPI DUP7 SWAP1 MLOAD SWAP5 CODESIZE PUSH2 0x13A JUMP JUMPDEST POP RETURNDATASIZE PUSH2 0x1C5 JUMP JUMPDEST DUP7 MLOAD RETURNDATASIZE DUP5 DUP3 RETURNDATACOPY RETURNDATASIZE SWAP1 REVERT JUMPDEST DUP4 DUP1 REVERT JUMPDEST POP CALLVALUE PUSH2 0xCD JUMPI DUP2 PUSH1 0x3 NOT CALLDATASIZE ADD SLT PUSH2 0xCD JUMPI PUSH1 0x1 SLOAD SWAP1 MLOAD PUSH1 0x1 PUSH1 0x1 PUSH1 0xA0 SHL SUB SWAP1 SWAP2 AND DUP2 MSTORE PUSH1 0x20 SWAP1 RETURN JUMPDEST DUP4 SWAP1 CALLVALUE PUSH2 0xCD JUMPI DUP2 PUSH1 0x3 NOT CALLDATASIZE ADD SLT PUSH2 0xCD JUMPI SWAP1 SLOAD PUSH1 0x1 PUSH1 0x1 PUSH1 0xA0 SHL SUB AND DUP2 MSTORE PUSH1 0x20 SWAP1 RETURN JUMPDEST PUSH1 0x4 CALLDATALOAD SWAP1 PUSH1 0x1 PUSH1 0x1 PUSH1 0xA0 SHL SUB DUP3 AND DUP3 SUB PUSH2 0x258 JUMPI JUMP JUMPDEST PUSH1 0x0 DUP1 REVERT JUMPDEST PUSH1 0xE0 DUP2 ADD SWAP1 DUP2 LT PUSH8 0xFFFFFFFFFFFFFFFF DUP3 GT OR PUSH2 0x279 JUMPI PUSH1 0x40 MSTORE JUMP JUMPDEST PUSH4 0x4E487B71 PUSH1 0xE0 SHL PUSH1 0x0 MSTORE PUSH1 0x41 PUSH1 0x4 MSTORE PUSH1 0x24 PUSH1 0x0 REVERT JUMPDEST SWAP1 PUSH1 0x1F DUP1 NOT SWAP2 ADD AND DUP2 ADD SWAP1 DUP2 LT PUSH8 0xFFFFFFFFFFFFFFFF DUP3 GT OR PUSH2 0x279 JUMPI PUSH1 0x40 MSTORE JUMP JUMPDEST PUSH1 0x40 MLOAD SWAP1 PUSH2 0x2BE DUP3 PUSH2 0x25D JUMP JUMPDEST DUP2 PUSH1 0xC0 PUSH1 0x0 SWAP2 DUP3 DUP2 MSTORE DUP3 PUSH1 0x20 DUP3 ADD MSTORE DUP3 PUSH1 0x40 DUP3 ADD MSTORE DUP3 PUSH1 0x60 DUP3 ADD MSTORE DUP3 PUSH1 0x80 DUP3 ADD MSTORE DUP3 PUSH1 0xA0 DUP3 ADD MSTORE ADD MSTORE JUMP JUMPDEST DUP2 DUP2 MUL SWAP3 SWAP2 DUP2 ISZERO SWAP2 DUP5 DIV EQ OR ISZERO PUSH2 0x2FC JUMPI JUMP JUMPDEST PUSH4 0x4E487B71 PUSH1 0xE0 SHL PUSH1 0x0 MSTORE PUSH1 0x11 PUSH1 0x4 MSTORE PUSH1 0x24 PUSH1 0x0 REVERT JUMPDEST DUP2 ISZERO PUSH2 0x31C JUMPI DIV SWAP1 JUMP JUMPDEST PUSH4 0x4E487B71 PUSH1 0xE0 SHL PUSH1 0x0 MSTORE PUSH1 0x12 PUSH1 0x4 MSTORE PUSH1 0x24 PUSH1 0x0 REVERT JUMPDEST SWAP1 SWAP2 PUSH2 0x33C PUSH2 0x2B1 JUMP JUMPDEST POP PUSH1 0x1 DUP1 PUSH1 0xA0 SHL SUB PUSH1 0x0 SWAP2 DUP2 DUP4 SLOAD AND SWAP2 PUSH1 0x40 SWAP3 DUP4 MLOAD DUP1 SWAP3 DUP2 SWAP3 PUSH4 0x82F01C85 PUSH1 0xE0 SHL DUP4 MSTORE DUP2 PUSH1 0x4 SWAP10 AND DUP10 DUP5 ADD MSTORE PUSH1 0x60 SWAP5 DUP6 SWAP2 PUSH1 0x24 SWAP6 DUP7 SWAP2 GAS STATICCALL SWAP2 DUP3 ISZERO PUSH2 0x579 JUMPI SWAP1 DUP4 SWAP2 DUP9 SWAP4 PUSH2 0x583 JUMPI JUMPDEST POP PUSH1 0x20 SWAP1 PUSH1 0x1 SLOAD AND DUP8 MLOAD SWAP3 DUP4 DUP1 SWAP3 PUSH4 0x2C68BE3 PUSH1 0xE3 SHL DUP3 MSTORE DUP12 DUP14 DUP4 ADD MSTORE GAS STATICCALL DUP1 ISZERO PUSH2 0x579 JUMPI DUP8 SWAP1 PUSH2 0x542 JUMPI JUMPDEST PUSH2 0x3C8 SWAP2 POP PUSH8 0xDE0B6B3A7640000 SWAP2 DUP3 SWAP2 DUP12 PUSH2 0x2E9 JUMP JUMPDEST DIV SWAP9 PUSH1 0x64 PUSH2 0x3D7 DUP5 MLOAD DUP13 PUSH2 0x2E9 JUMP JUMPDEST DIV SWAP4 DUP9 SWAP5 DUP8 DUP2 GT PUSH2 0x51C JUMPI JUMPDEST POP PUSH1 0x0 NOT SWAP9 DUP8 ISZERO SWAP11 DUP12 ISZERO PUSH2 0x4B9 JUMPI JUMPDEST DUP2 SWAP12 DUP5 ISZERO ISZERO DUP1 PUSH2 0x4AF JUMPI JUMPDEST PUSH2 0x437 JUMPI JUMPDEST POP POP POP POP POP POP MLOAD SWAP4 DUP5 SWAP4 DUP2 MLOAD SWAP9 PUSH2 0x418 DUP11 PUSH2 0x25D JUMP JUMPDEST DUP10 MSTORE PUSH1 0x20 DUP10 ADD MSTORE DUP8 ADD MSTORE DUP6 ADD MSTORE PUSH1 0x80 DUP5 ADD MSTORE PUSH1 0xA0 DUP4 ADD MSTORE PUSH1 0xC0 DUP3 ADD MSTORE SWAP1 JUMP JUMPDEST SWAP1 SWAP2 SWAP3 SWAP4 SWAP5 SWAP6 SWAP12 POP PUSH1 0x64 DUP10 MUL SWAP1 DUP10 DUP3 DIV PUSH1 0x64 EQ OR ISZERO PUSH2 0x49E JUMPI PUSH9 0x56BC75E2D63100000 DUP10 MUL SWAP6 DUP2 DUP8 DIV EQ SWAP1 ISZERO OR ISZERO PUSH2 0x48E JUMPI POP POP POP SWAP1 PUSH2 0x47C PUSH2 0x482 SWAP3 DUP10 MLOAD SWAP1 PUSH2 0x2E9 JUMP JUMPDEST SWAP1 PUSH2 0x312 JUMP JUMPDEST SWAP6 CODESIZE DUP1 DUP1 DUP1 DUP1 DUP1 PUSH2 0x402 JUMP JUMPDEST PUSH4 0x4E487B71 PUSH1 0xE0 SHL DUP3 MSTORE PUSH1 0x11 SWAP1 MSTORE REVERT JUMPDEST POP PUSH4 0x4E487B71 PUSH1 0xE0 SHL DUP3 MSTORE PUSH1 0x11 SWAP1 MSTORE REVERT JUMPDEST POP DUP7 MLOAD ISZERO ISZERO PUSH2 0x3FD JUMP JUMPDEST SWAP10 POP PUSH2 0x4C6 DUP6 MLOAD DUP14 PUSH2 0x2E9 JUMP JUMPDEST DUP5 DUP2 MUL SWAP1 DUP1 DUP3 DIV DUP7 EQ SWAP1 ISZERO OR ISZERO PUSH2 0x50B JUMPI PUSH1 0x64 DUP10 MUL SWAP1 DUP10 DUP3 DIV PUSH1 0x64 EQ DUP14 OR ISZERO PUSH2 0x4F9 JUMPI SWAP1 PUSH2 0x4F3 SWAP2 PUSH2 0x312 JUMP JUMPDEST SWAP10 PUSH2 0x3F2 JUMP JUMPDEST POP POP PUSH4 0x4E487B71 PUSH1 0xE0 SHL DUP2 MSTORE PUSH1 0x11 DUP11 MSTORE REVERT JUMPDEST POP PUSH4 0x4E487B71 PUSH1 0xE0 SHL DUP2 MSTORE PUSH1 0x11 DUP11 MSTORE REVERT JUMPDEST SWAP1 SWAP5 POP DUP7 DUP2 SUB SWAP1 DUP2 GT PUSH2 0x530 JUMPI SWAP4 CODESIZE PUSH2 0x3E3 JUMP JUMPDEST PUSH4 0x4E487B71 PUSH1 0xE0 SHL DUP10 MSTORE PUSH1 0x11 DUP11 MSTORE DUP5 DUP10 REVERT JUMPDEST POP PUSH1 0x20 DUP2 RETURNDATASIZE DUP3 GT PUSH2 0x571 JUMPI JUMPDEST DUP2 PUSH2 0x55B PUSH1 0x20 SWAP4 DUP4 PUSH2 0x28F JUMP JUMPDEST DUP2 ADD SUB SLT PUSH2 0x56D JUMPI PUSH2 0x3C8 SWAP1 MLOAD PUSH2 0x3B1 JUMP JUMPDEST DUP7 DUP1 REVERT JUMPDEST RETURNDATASIZE SWAP2 POP PUSH2 0x54E JUMP JUMPDEST DUP7 MLOAD RETURNDATASIZE DUP10 DUP3 RETURNDATACOPY RETURNDATASIZE SWAP1 REVERT JUMPDEST DUP6 DUP1 SWAP3 SWAP5 POP DUP2 SWAP4 POP RETURNDATASIZE DUP4 GT PUSH2 0x5F1 JUMPI JUMPDEST PUSH2 0x59D DUP2 DUP4 PUSH2 0x28F JUMP JUMPDEST DUP2 ADD SUB SLT PUSH2 0x56D JUMPI DUP6 MLOAD SWAP1 DUP5 DUP3 ADD DUP3 DUP2 LT PUSH8 0xFFFFFFFFFFFFFFFF DUP3 GT OR PUSH2 0x5DF JUMPI DUP8 MSTORE DUP1 MLOAD DUP3 MSTORE PUSH1 0x20 DUP2 DUP2 ADD MLOAD DUP2 DUP5 ADD MSTORE SWAP1 DUP8 ADD MLOAD DUP8 DUP4 ADD MSTORE SWAP1 SWAP2 DUP4 SWAP2 PUSH2 0x385 JUMP JUMPDEST PUSH4 0x4E487B71 PUSH1 0xE0 SHL DUP10 MSTORE PUSH1 0x41 DUP11 MSTORE DUP5 DUP10 REVERT JUMPDEST POP RETURNDATASIZE PUSH2 0x593 JUMP INVALID LOG2 PUSH5 0x6970667358 0x22 SLT KECCAK256 SLT DUP1 0xEB SHR PC 0xDA 0xED 0xD4 LOG1 0xE PC 0xC PUSH2 0xEB44 SWAP8 BALANCE SSTORE 0xD 0xF8 0xE3 0xCC PUSH2 0x9886 0xE3 0xA5 0xB3 RETURN REVERT 0xE1 SWAP2 PUSH5 0x736F6C6343 STOP ADDMOD EQ STOP CALLER "},"methodIdentifiers":{"getUserAccountData(address,uint256,uint256)":"f88c90ab","getUserPosition(address,address)":"92a576e6","identityRegistry()":"134e18f4","oracle()":"7dc0d1d0"}}}}}