{"contracts/core/AegisPool.sol":{"AegisPool":{"abi":[{"inputs":[{"internalType":"address","name":"_aegisCore","type":"address"},{"internalType":"address","name":"_usdcToken","type":"address"},{"internalType":"address","name":"_identityRegistry","type":"address"},{"internalType":"address","name":"_oracle","type":"address"}],"stateMutability":"nonpayable","type":"constructor"},{"inputs":[],"name":"ReentrancyGuardReentrantCall","type":"error"},{"anonymous":false,"inputs":[{"indexed":true,"internalType":"address","name":"user","type":"address"},{"indexed":false,"internalType":"uint256","name":"amount","type":"uint256"}],"name":"Borrow","type":"event"},{"anonymous":false,"inputs":[{"indexed":true,"internalType":"address","name":"user","type":"address"},{"indexed":false,"internalType":"uint256","name":"amount","type":"uint256"}],"name":"Deposit","type":"event"},{"anonymous":false,"inputs":[{"indexed":true,"internalType":"address","name":"user","type":"address"},{"indexed":true,"internalType":"address","name":"liquidator","type":"address"},{"indexed":false,"internalType":"uint256","name":"debtRepaid","type":"uint256"},{"indexed":false,"internalType":"uint256","name":"collateralSeized","type":"uint256"}],"name":"Liquidated","type":"event"},{"anonymous":false,"inputs":[{"indexed":true,"internalType":"address","name":"user","type":"address"},{"indexed":false,"internalType":"uint256","name":"timestamp","type":"uint256"}],"name":"ProbationStarted","type":"event"},{"anonymous":false,"inputs":[{"indexed":true,"internalType":"address","name":"provider","type":"address"},{"indexed":false,"internalType":"uint256","name":"amount","type":"uint256"}],"name":"ProvideLiquidity","type":"event"},{"anonymous":false,"inputs":[{"indexed":true,"internalType":"address","name":"user","type":"address"},{"indexed":false,"internalType":"uint256","name":"amount","type":"uint256"}],"name":"Repay","type":"event"},{"anonymous":false,"inputs":[{"indexed":true,"internalType":"address","name":"user","type":"address"},{"indexed":false,"internalType":"uint256","name":"amount","type":"uint256"}],"name":"Withdraw","type":"event"},{"anonymous":false,"inputs":[{"indexed":true,"internalType":"address","name":"provider","type":"address"},{"indexed":false,"internalType":"uint256","name":"amount","type":"uint256"}],"name":"WithdrawLiquidity","type":"event"},{"inputs":[],"name":"aegisCore","outputs":[{"internalType":"contract AegisCore","name":"","type":"address"}],"stateMutability":"view","type":"function"},{"inputs":[{"internalType":"uint256","name":"amount","type":"uint256"}],"name":"borrowUSDC","outputs":[],"stateMutability":"nonpayable","type":"function"},{"inputs":[],"name":"depositETH","outputs":[],"stateMutability":"payable","type":"function"},{"inputs":[],"name":"identityRegistry","outputs":[{"internalType":"contract IUnstoppable","name":"","type":"address"}],"stateMutability":"view","type":"function"},{"inputs":[{"internalType":"address","name":"user","type":"address"},{"internalType":"uint256","name":"debtToCover","type":"uint256"}],"name":"liquidate","outputs":[],"stateMutability":"nonpayable","type":"function"},{"inputs":[{"internalType":"address","name":"","type":"address"}],"name":"liquidityProviderBalance","outputs":[{"internalType":"uint256","name":"","type":"uint256"}],"stateMutability":"view","type":"function"},{"inputs":[],"name":"oracle","outputs":[{"internalType":"contract IAegisOracle","name":"","type":"address"}],"stateMutability":"view","type":"function"},{"inputs":[{"internalType":"address","name":"","type":"address"}],"name":"probationStart","outputs":[{"internalType":"uint256","name":"","type":"uint256"}],"stateMutability":"view","type":"function"},{"inputs":[{"internalType":"uint256","name":"amount","type":"uint256"}],"name":"repayUSDC","outputs":[],"stateMutability":"nonpayable","type":"function"},{"inputs":[{"internalType":"address","name":"user","type":"address"},{"internalType":"uint256","name":"debtRepaid","type":"uint256"}],"name":"seizeForBackstop","outputs":[],"stateMutability":"nonpayable","type":"function"},{"inputs":[],"name":"usdcToken","outputs":[{"internalType":"contract IERC20","name":"","type":"address"}],"stateMutability":"view","type":"function"},{"inputs":[{"internalType":"address","name":"","type":"address"}],"name":"userCollateralETH","outputs":[{"internalType":"uint256","name":"","type":"uint256"}],"stateMutability":"view","type":"function"},{"inputs":[{"internalType":"address","name":"","type":"address"}],"name":"userDebtUSDC","outputs":[{"internalType":"uint256","name":"","type":"uint256"}],"stateMutability":"view","type":"function"},{"inputs":[{"internalType":"uint256","name":"amount","type":"uint256"}],"name":"withdrawETH","outputs":[],"stateMutability":"nonpayable","type":"function"},{"inputs":[{"internalType":"uint256","name":"amount","type":"uint256"}],"name":"withdrawLiquidity","outputs":[],"stateMutability":"nonpayable","type":"function"}],"evm":{"bytecode":{"linkReferences":{},"object":"6080346100c057601f620014c138819003918201601f19168301916001600160401b038311848410176100c5578084926080946040528339810103126100c057610048816100db565b90610055602082016100db565b61006d6060610066604085016100db565b93016100db565b90600160005560018060a01b03928380928160018060a01b031997168760015416176001551685600254161760025516836003541617600355169060045416176004556040516113d19081620000f08239f35b600080fd5b634e487b7160e01b600052604160045260246000fd5b51906001600160a01b03821682036100c05756fe608060408181526004918236101561001657600080fd5b600092833560e01c91826302aaa42314610887575081630a861f2a146106ce57816311eac855146106a5578163134e18f41461067c57816349bb4eda146106535781635370307c1461061b578163791428ff146105e35781637a9fe9ff146104225781637dc0d1d0146103fa5781639236a51d146102b657816393fd83a21461027e578163bcbaf48714610247578163c5c056e01461020f578163f14210a614610135575063f6326fb3146100ca57600080fd5b81600319360112610131576100dd610a4e565b6100e83415156109ea565b33825260056020528082206100fe348254610a2b565b9055513481527fe1fffcc4923d04b559f4d29a8bfc6cda04eb5b0d3c460751c2402c5c5cc9109c60203392a26001815580f35b5080fd5b9190503461020b57602036600319011261020b57813591610154610a4e565b33845260056020528282852054106101d25750338352600560205280832061017d838254610a71565b905561018833611346565b6101a18380808086335af161019b610ab6565b50610af6565b519081527f884edad9ce6fa2440d8a54cc123490eb96d2768479d49ff9c7366125a942436460203392a26001815580f35b6020606492519162461bcd60e51b83528201526014602482015273496e73756666696369656e742062616c616e636560601b6044820152fd5b8280fd5b5050346101315760203660031901126101315760209181906001600160a01b036102376109cf565b1681526008845220549051908152f35b5050346101315736600319011261027b576102746102636109cf565b61026b610a4e565b60243590610c1e565b6001815580f35b80fd5b5050346101315760203660031901126101315760209181906001600160a01b036102a66109cf565b1681526005845220549051908152f35b90503461020b576020806003193601126103f6578135916102d5610a4e565b6102e08315156109ea565b338552600682528284862054106103c75760025484516323b872dd60e01b81523392810192835230602084015260408301859052918391839182900360600190829089906001600160a01b03165af19081156103bd577f5c16de4f8b59bd9caf0f49a545f25819a895ed223294290b408242e72a59423193949161036b918791610390575b50610b64565b33855260068252808520610380858254610a71565b9055519283523392a26001815580f35b6103b09150843d86116103b6575b6103a88183610a7e565b810190610b4c565b38610365565b503d61039e565b84513d87823e3d90fd5b60649184519162461bcd60e51b8352820152600b60248201526a13dd995c9c185e5b595b9d60aa1b6044820152fd5b8380fd5b90503461020b578260031936011261020b575490516001600160a01b03909116815260209150f35b90503461020b576020806003193601126103f657813591610441610a4e565b6001548451630c3f6acf60e01b81526001600160a01b0391849082908590829086165afa9081156105d95787916105ac575b5060038110156105995761054757836104dd9284923389526006845287892061049d848254610a2b565b90556104a833611346565b600254885163a9059cbb60e01b815233938101938452602084019490945292948593919091169183918a918391604090910190565b03925af19081156103bd577fcbc04eca7e9da35cb1393a6135a199ca52e450d5e9251cbd99f7847d33a3675093949161051c91879161052a5750610af6565b519283523392a26001815580f35b6105419150843d86116103b6576103a88183610a7e565b3861019b565b5060849184519162461bcd60e51b8352820152602760248201527f50726f746f636f6c20696e205269736b204d6f64653a20426f72726f77696e676044820152660814185d5cd95960ca1b6064820152fd5b634e487b7160e01b875260218352602487fd5b6105cc9150843d86116105d2575b6105c48183610a7e565b810190610b34565b38610473565b503d6105ba565b86513d89823e3d90fd5b5050346101315760203660031901126101315760209181906001600160a01b0361060b6109cf565b1681526006845220549051908152f35b5050346101315760203660031901126101315760209181906001600160a01b036106436109cf565b1681526007845220549051908152f35b50503461013157816003193601126101315760015490516001600160a01b039091168152602090f35b50503461013157816003193601126101315760035490516001600160a01b039091168152602090f35b50503461013157816003193601126101315760025490516001600160a01b039091168152602090f35b90503461020b576020806003193601126103f6578135916106ed610a4e565b338552600882528284862054106108465760025484516370a0823160e01b815230838201526001600160a01b039184908290602490829086165afa80156105d95785918891610811575b50106107cf578361079092849233895260088452878920610759848254610a71565b9055600254885163a9059cbb60e01b815233938101938452602084019490945292948593919091169183918a918391604090910190565b03925af19081156103bd577f8291c2165fb22f13d0ed7fc85f1f2ac23027102c70d95f9459c42a59e241eaa593949161051c91879161052a5750610af6565b5060649184519162461bcd60e51b8352820152601960248201527f506f6f6c207574696c697a6174696f6e20746f6f2068696768000000000000006044820152fd5b809250858092503d831161083f575b61082a8183610a7e565b8101031261083b5784905138610737565b8680fd5b503d610820565b60649184519162461bcd60e51b8352820152601760248201527f496e73756666696369656e74204c502062616c616e63650000000000000000006044820152fd5b90929150346103f657816003193601126103f6576108a36109cf565b926024359360018060a01b03908382600154166341005ff360e11b8252818560209788935afa9081156109c5579083918991610987575b5016330361094457169081865260068352848487205410610910575061090b92916006918652528320918254610a71565b905580f35b835162461bcd60e51b8152908101839052600e60248201526d1119589d081d1bdbc81cdb585b1b60921b6044820152606490fd5b845162461bcd60e51b8152808401859052601b60248201527f43616c6c6572206973206e6f74204261636b73746f7020506f6f6c00000000006044820152606490fd5b809250868092503d83116109be575b6109a08183610a7e565b810103126109ba575182811681036109ba578290386108da565b8780fd5b503d610996565b86513d8a823e3d90fd5b600435906001600160a01b03821682036109e557565b600080fd5b156109f157565b60405162461bcd60e51b81526020600482015260126024820152710416d6f756e74206d757374206265203e20360741b6044820152606490fd5b91908201809211610a3857565b634e487b7160e01b600052601160045260246000fd5b600260005414610a5f576002600055565b604051633ee5aeb560e01b8152600490fd5b91908203918211610a3857565b90601f8019910116810190811067ffffffffffffffff821117610aa057604052565b634e487b7160e01b600052604160045260246000fd5b3d15610af1573d9067ffffffffffffffff8211610aa05760405191610ae5601f8201601f191660200184610a7e565b82523d6000602084013e565b606090565b15610afd57565b60405162461bcd60e51b815260206004820152600f60248201526e151c985b9cd9995c8819985a5b1959608a1b6044820152606490fd5b908160209103126109e5575160038110156109e55790565b908160209103126109e5575180151581036109e55790565b15610b6b57565b60405162461bcd60e51b8152602060048201526014602482015273151c985b9cd9995c88119c9bdb4819985a5b195960621b6044820152606490fd5b908160609103126109e55760405190606082019082821067ffffffffffffffff831117610aa057604091825280518352602081015160208401520151604082015290565b81810292918115918404141715610a3857565b8115610c08570490565b634e487b7160e01b600052601260045260246000fd5b60015460408051630c3f6acf60e01b81529394936001600160a01b0393600493602093929084908290879082908a165afa9081156111e1576000916111c4575b5060038110156111af5760028114611175578582169081600052600685528360002054891161113c57610c928915156109ea565b6001610c9d846111ec565b5091036110ed57670d2f13f7789f000011156110a0576060949596975b87600354168451968780926382f01c8560e01b8252858b8301526024998a915afa90811561109557600091611067575b508481018051610fa7575b5060025485516323b872dd60e01b815233818b01908152306020820152604081018590529091889183918d16908290600090829060600103925af1908115610f9c57879291610d4b916000916103905750610b64565b836000526006825285600020610d62848254610a71565b9055015197606498890190818a11610f545788541690866000898b895195869384926302c68be360e31b84528301525afa918215610f9c57908a91600093610f68575b50610db09084610beb565b04670de0b6b3a764000090818102918183041490151715610f545790610dd591610bfe565b826000526005865280856000205410610f0957826000526005865284600020610dff828254610a71565b9055600080808084335af1610e12610ab6565b5015610ed257845191825285820152817f1f0c6615429d1cdae0dfa233abf91d3b31cdbdd82c8081389832a61e1072f1ea853393a360005260068352816000205415610e61575b505050505050565b60058352816000209081549081610e7a575b5050610e59565b6000809392819392828094555af1610e90610ab6565b5015610e9e57808080610e73565b5162461bcd60e51b815292830152601590820152741499599d5b99081d1bc81d5cd95c8819985a5b1959605a1b6044820152fd5b845162461bcd60e51b81528089018790526013818901527211551208151c985b9cd9995c8819985a5b1959606a1b60448201528990fd5b845162461bcd60e51b81528089018790526021818901527f436f6c6c61746572616c20696e73756666696369656e7420666f7220626f6e756044820152607360f81b818b0152608490fd5b8760118a634e487b7160e01b600052526000fd5b9150918782813d8311610f95575b610f808183610a7e565b8101031261027b575051908990610db0610da5565b503d610f76565b86513d6000823e3d90fd5b83600099969798959499526007885286600020549081156000146110055750505050505050827f26cebf317338e2cf649fcda3377df64eba66cfff88183b6e6af43e6ab676405c9394506000526007825242816000205551428152a2565b9061101891999495989796995190610a2b565b42111561103357826000526007865260008581205538610cf5565b845162461bcd60e51b8152808901879052600f818901526e125b8811dc9858d94814195c9a5bd9608a1b6044820152606490fd5b611088915060603d811161108e575b6110808183610a7e565b810190610ba7565b38610cea565b503d611076565b85513d6000823e3d90fd5b50505162461bcd60e51b815291820152602160248201527f59656c6c6f77204d6f64653a204e6f7420646565706c7920696e736f6c76656e6044820152601d60fa1b606482015260849150fd5b670de0b6b3a7640000111561110757606094959697610cba565b50505162461bcd60e51b815291820152600f60248201526e55736572206973206865616c74687960881b604482015260649150fd5b835162461bcd60e51b81528087018690526013602482015272105b5bdd5b9d08195e18d959591cc81919589d606a1b6044820152606490fd5b50505162461bcd60e51b8152918201526014602482015273526564204d6f64653a205573652053706f6e676560601b604482015260649150fd5b602185634e487b7160e01b6000525260246000fd5b6111db9150843d86116105d2576105c48183610a7e565b38610c5e565b83513d6000823e3d90fd5b6001600160a01b039081166000818152600560209081526040808320546006835281842054949293929085156113375760248588600454168551928380926302c68be360e31b82528960048301525afa9586156103bd578596611306575b5050606090611263670de0b6b3a7640000968792610beb565b0496600354169160248451809481936382f01c8560e01b835260048301525afa9182156112fd57509061129f9183916112df575b505185610beb565b8281029281840414901517156112cb57606483029283046064036112cb5750906112c891610bfe565b91565b634e487b7160e01b81526011600452602490fd5b6112f7915060603d811161108e576110808183610a7e565b38611297565b513d84823e3d90fd5b9080929650813d8311611330575b61131e8183610a7e565b810103126103f657519360603861124a565b503d611314565b50505093925050506000199190565b611358670de0b6b3a7640000916111ec565b501061136057565b60405162461bcd60e51b815260206004820152601360248201527204865616c746820466163746f72203c20312e3606c1b6044820152606490fdfea2646970667358221220b25cdada58392b9cefef1f5a6d2b139fade4b75cdbee0a5f157432023d866c4164736f6c63430008140033","opcodes":"PUSH1 0x80 CALLVALUE PUSH2 0xC0 JUMPI PUSH1 0x1F PUSH3 0x14C1 CODESIZE DUP2 SWAP1 SUB SWAP2 DUP3 ADD PUSH1 0x1F NOT AND DUP4 ADD SWAP2 PUSH1 0x1 PUSH1 0x1 PUSH1 0x40 SHL SUB DUP4 GT DUP5 DUP5 LT OR PUSH2 0xC5 JUMPI DUP1 DUP5 SWAP3 PUSH1 0x80 SWAP5 PUSH1 0x40 MSTORE DUP4 CODECOPY DUP2 ADD SUB SLT PUSH2 0xC0 JUMPI PUSH2 0x48 DUP2 PUSH2 0xDB JUMP JUMPDEST SWAP1 PUSH2 0x55 PUSH1 0x20 DUP3 ADD PUSH2 0xDB JUMP JUMPDEST PUSH2 0x6D PUSH1 0x60 PUSH2 0x66 PUSH1 0x40 DUP6 ADD PUSH2 0xDB JUMP JUMPDEST SWAP4 ADD PUSH2 0xDB JUMP JUMPDEST SWAP1 PUSH1 0x1 PUSH1 0x0 SSTORE PUSH1 0x1 DUP1 PUSH1 0xA0 SHL SUB SWAP3 DUP4 DUP1 SWAP3 DUP2 PUSH1 0x1 DUP1 PUSH1 0xA0 SHL SUB NOT SWAP8 AND DUP8 PUSH1 0x1 SLOAD AND OR PUSH1 0x1 SSTORE AND DUP6 PUSH1 0x2 SLOAD AND OR PUSH1 0x2 SSTORE AND DUP4 PUSH1 0x3 SLOAD AND OR PUSH1 0x3 SSTORE AND SWAP1 PUSH1 0x4 SLOAD AND OR PUSH1 0x4 SSTORE PUSH1 0x40 MLOAD PUSH2 0x13D1 SWAP1 DUP2 PUSH3 0xF0 DUP3 CODECOPY RETURN JUMPDEST PUSH1 0x0 DUP1 REVERT JUMPDEST PUSH4 0x4E487B71 PUSH1 0xE0 SHL PUSH1 0x0 MSTORE PUSH1 0x41 PUSH1 0x4 MSTORE PUSH1 0x24 PUSH1 0x0 REVERT JUMPDEST MLOAD SWAP1 PUSH1 0x1 PUSH1 0x1 PUSH1 0xA0 SHL SUB DUP3 AND DUP3 SUB PUSH2 0xC0 JUMPI JUMP INVALID PUSH1 0x80 PUSH1 0x40 DUP2 DUP2 MSTORE PUSH1 0x4 SWAP2 DUP3 CALLDATASIZE LT ISZERO PUSH2 0x16 JUMPI PUSH1 0x0 DUP1 REVERT JUMPDEST PUSH1 0x0 SWAP3 DUP4 CALLDATALOAD PUSH1 0xE0 SHR SWAP2 DUP3 PUSH4 0x2AAA423 EQ PUSH2 0x887 JUMPI POP DUP2 PUSH4 0xA861F2A EQ PUSH2 0x6CE JUMPI DUP2 PUSH4 0x11EAC855 EQ PUSH2 0x6A5 JUMPI DUP2 PUSH4 0x134E18F4 EQ PUSH2 0x67C JUMPI DUP2 PUSH4 0x49BB4EDA EQ PUSH2 0x653 JUMPI DUP2 PUSH4 0x5370307C EQ PUSH2 0x61B JUMPI DUP2 PUSH4 0x791428FF EQ PUSH2 0x5E3 JUMPI DUP2 PUSH4 0x7A9FE9FF EQ PUSH2 0x422 JUMPI DUP2 PUSH4 0x7DC0D1D0 EQ PUSH2 0x3FA JUMPI DUP2 PUSH4 0x9236A51D EQ PUSH2 0x2B6 JUMPI DUP2 PUSH4 0x93FD83A2 EQ PUSH2 0x27E JUMPI DUP2 PUSH4 0xBCBAF487 EQ PUSH2 0x247 JUMPI DUP2 PUSH4 0xC5C056E0 EQ PUSH2 0x20F JUMPI DUP2 PUSH4 0xF14210A6 EQ PUSH2 0x135 JUMPI POP PUSH4 0xF6326FB3 EQ PUSH2 0xCA JUMPI PUSH1 0x0 DUP1 REVERT JUMPDEST DUP2 PUSH1 0x3 NOT CALLDATASIZE ADD SLT PUSH2 0x131 JUMPI PUSH2 0xDD PUSH2 0xA4E JUMP JUMPDEST PUSH2 0xE8 CALLVALUE ISZERO ISZERO PUSH2 0x9EA JUMP JUMPDEST CALLER DUP3 MSTORE PUSH1 0x5 PUSH1 0x20 MSTORE DUP1 DUP3 KECCAK256 PUSH2 0xFE CALLVALUE DUP3 SLOAD PUSH2 0xA2B JUMP JUMPDEST SWAP1 SSTORE MLOAD CALLVALUE DUP2 MSTORE PUSH32 0xE1FFFCC4923D04B559F4D29A8BFC6CDA04EB5B0D3C460751C2402C5C5CC9109C PUSH1 0x20 CALLER SWAP3 LOG2 PUSH1 0x1 DUP2 SSTORE DUP1 RETURN JUMPDEST POP DUP1 REVERT JUMPDEST SWAP2 SWAP1 POP CALLVALUE PUSH2 0x20B JUMPI PUSH1 0x20 CALLDATASIZE PUSH1 0x3 NOT ADD SLT PUSH2 0x20B JUMPI DUP2 CALLDATALOAD SWAP2 PUSH2 0x154 PUSH2 0xA4E JUMP JUMPDEST CALLER DUP5 MSTORE PUSH1 0x5 PUSH1 0x20 MSTORE DUP3 DUP3 DUP6 KECCAK256 SLOAD LT PUSH2 0x1D2 JUMPI POP CALLER DUP4 MSTORE PUSH1 0x5 PUSH1 0x20 MSTORE DUP1 DUP4 KECCAK256 PUSH2 0x17D DUP4 DUP3 SLOAD PUSH2 0xA71 JUMP JUMPDEST SWAP1 SSTORE PUSH2 0x188 CALLER PUSH2 0x1346 JUMP JUMPDEST PUSH2 0x1A1 DUP4 DUP1 DUP1 DUP1 DUP7 CALLER GAS CALL PUSH2 0x19B PUSH2 0xAB6 JUMP JUMPDEST POP PUSH2 0xAF6 JUMP JUMPDEST MLOAD SWAP1 DUP2 MSTORE PUSH32 0x884EDAD9CE6FA2440D8A54CC123490EB96D2768479D49FF9C7366125A9424364 PUSH1 0x20 CALLER SWAP3 LOG2 PUSH1 0x1 DUP2 SSTORE DUP1 RETURN JUMPDEST PUSH1 0x20 PUSH1 0x64 SWAP3 MLOAD SWAP2 PUSH3 0x461BCD PUSH1 0xE5 SHL DUP4 MSTORE DUP3 ADD MSTORE PUSH1 0x14 PUSH1 0x24 DUP3 ADD MSTORE PUSH20 0x496E73756666696369656E742062616C616E6365 PUSH1 0x60 SHL PUSH1 0x44 DUP3 ADD MSTORE REVERT JUMPDEST DUP3 DUP1 REVERT JUMPDEST POP POP CALLVALUE PUSH2 0x131 JUMPI PUSH1 0x20 CALLDATASIZE PUSH1 0x3 NOT ADD SLT PUSH2 0x131 JUMPI PUSH1 0x20 SWAP2 DUP2 SWAP1 PUSH1 0x1 PUSH1 0x1 PUSH1 0xA0 SHL SUB PUSH2 0x237 PUSH2 0x9CF JUMP JUMPDEST AND DUP2 MSTORE PUSH1 0x8 DUP5 MSTORE KECCAK256 SLOAD SWAP1 MLOAD SWAP1 DUP2 MSTORE RETURN JUMPDEST POP POP CALLVALUE PUSH2 0x131 JUMPI CALLDATASIZE PUSH1 0x3 NOT ADD SLT PUSH2 0x27B JUMPI PUSH2 0x274 PUSH2 0x263 PUSH2 0x9CF JUMP JUMPDEST PUSH2 0x26B PUSH2 0xA4E JUMP JUMPDEST PUSH1 0x24 CALLDATALOAD SWAP1 PUSH2 0xC1E JUMP JUMPDEST PUSH1 0x1 DUP2 SSTORE DUP1 RETURN JUMPDEST DUP1 REVERT JUMPDEST POP POP CALLVALUE PUSH2 0x131 JUMPI PUSH1 0x20 CALLDATASIZE PUSH1 0x3 NOT ADD SLT PUSH2 0x131 JUMPI PUSH1 0x20 SWAP2 DUP2 SWAP1 PUSH1 0x1 PUSH1 0x1 PUSH1 0xA0 SHL SUB PUSH2 0x2A6 PUSH2 0x9CF JUMP JUMPDEST AND DUP2 MSTORE PUSH1 0x5 DUP5 MSTORE KECCAK256 SLOAD SWAP1 MLOAD SWAP1 DUP2 MSTORE RETURN JUMPDEST SWAP1 POP CALLVALUE PUSH2 0x20B JUMPI PUSH1 0x20 DUP1 PUSH1 0x3 NOT CALLDATASIZE ADD SLT PUSH2 0x3F6 JUMPI DUP2 CALLDATALOAD SWAP2 PUSH2 0x2D5 PUSH2 0xA4E JUMP JUMPDEST PUSH2 0x2E0 DUP4 ISZERO ISZERO PUSH2 0x9EA JUMP JUMPDEST CALLER DUP6 MSTORE PUSH1 0x6 DUP3 MSTORE DUP3 DUP5 DUP7 KECCAK256 SLOAD LT PUSH2 0x3C7 JUMPI PUSH1 0x2 SLOAD DUP5 MLOAD PUSH4 0x23B872DD PUSH1 0xE0 SHL DUP2 MSTORE CALLER SWAP3 DUP2 ADD SWAP3 DUP4 MSTORE ADDRESS PUSH1 0x20 DUP5 ADD MSTORE PUSH1 0x40 DUP4 ADD DUP6 SWAP1 MSTORE SWAP2 DUP4 SWAP2 DUP4 SWAP2 DUP3 SWAP1 SUB PUSH1 0x60 ADD SWAP1 DUP3 SWAP1 DUP10 SWAP1 PUSH1 0x1 PUSH1 0x1 PUSH1 0xA0 SHL SUB AND GAS CALL SWAP1 DUP2 ISZERO PUSH2 0x3BD JUMPI PUSH32 0x5C16DE4F8B59BD9CAF0F49A545F25819A895ED223294290B408242E72A594231 SWAP4 SWAP5 SWAP2 PUSH2 0x36B SWAP2 DUP8 SWAP2 PUSH2 0x390 JUMPI JUMPDEST POP PUSH2 0xB64 JUMP JUMPDEST CALLER DUP6 MSTORE PUSH1 0x6 DUP3 MSTORE DUP1 DUP6 KECCAK256 PUSH2 0x380 DUP6 DUP3 SLOAD PUSH2 0xA71 JUMP JUMPDEST SWAP1 SSTORE MLOAD SWAP3 DUP4 MSTORE CALLER SWAP3 LOG2 PUSH1 0x1 DUP2 SSTORE DUP1 RETURN JUMPDEST PUSH2 0x3B0 SWAP2 POP DUP5 RETURNDATASIZE DUP7 GT PUSH2 0x3B6 JUMPI JUMPDEST PUSH2 0x3A8 DUP2 DUP4 PUSH2 0xA7E JUMP JUMPDEST DUP2 ADD SWAP1 PUSH2 0xB4C JUMP JUMPDEST CODESIZE PUSH2 0x365 JUMP JUMPDEST POP RETURNDATASIZE PUSH2 0x39E JUMP JUMPDEST DUP5 MLOAD RETURNDATASIZE DUP8 DUP3 RETURNDATACOPY RETURNDATASIZE SWAP1 REVERT JUMPDEST PUSH1 0x64 SWAP2 DUP5 MLOAD SWAP2 PUSH3 0x461BCD PUSH1 0xE5 SHL DUP4 MSTORE DUP3 ADD MSTORE PUSH1 0xB PUSH1 0x24 DUP3 ADD MSTORE PUSH11 0x13DD995C9C185E5B595B9D PUSH1 0xAA SHL PUSH1 0x44 DUP3 ADD MSTORE REVERT JUMPDEST DUP4 DUP1 REVERT JUMPDEST SWAP1 POP CALLVALUE PUSH2 0x20B JUMPI DUP3 PUSH1 0x3 NOT CALLDATASIZE ADD SLT PUSH2 0x20B JUMPI SLOAD SWAP1 MLOAD PUSH1 0x1 PUSH1 0x1 PUSH1 0xA0 SHL SUB SWAP1 SWAP2 AND DUP2 MSTORE PUSH1 0x20 SWAP2 POP RETURN JUMPDEST SWAP1 POP CALLVALUE PUSH2 0x20B JUMPI PUSH1 0x20 DUP1 PUSH1 0x3 NOT CALLDATASIZE ADD SLT PUSH2 0x3F6 JUMPI DUP2 CALLDATALOAD SWAP2 PUSH2 0x441 PUSH2 0xA4E JUMP JUMPDEST PUSH1 0x1 SLOAD DUP5 MLOAD PUSH4 0xC3F6ACF PUSH1 0xE0 SHL DUP2 MSTORE PUSH1 0x1 PUSH1 0x1 PUSH1 0xA0 SHL SUB SWAP2 DUP5 SWAP1 DUP3 SWAP1 DUP6 SWAP1 DUP3 SWAP1 DUP7 AND GAS STATICCALL SWAP1 DUP2 ISZERO PUSH2 0x5D9 JUMPI DUP8 SWAP2 PUSH2 0x5AC JUMPI JUMPDEST POP PUSH1 0x3 DUP2 LT ISZERO PUSH2 0x599 JUMPI PUSH2 0x547 JUMPI DUP4 PUSH2 0x4DD SWAP3 DUP5 SWAP3 CALLER DUP10 MSTORE PUSH1 0x6 DUP5 MSTORE DUP8 DUP10 KECCAK256 PUSH2 0x49D DUP5 DUP3 SLOAD PUSH2 0xA2B JUMP JUMPDEST SWAP1 SSTORE PUSH2 0x4A8 CALLER PUSH2 0x1346 JUMP JUMPDEST PUSH1 0x2 SLOAD DUP9 MLOAD PUSH4 0xA9059CBB PUSH1 0xE0 SHL DUP2 MSTORE CALLER SWAP4 DUP2 ADD SWAP4 DUP5 MSTORE PUSH1 0x20 DUP5 ADD SWAP5 SWAP1 SWAP5 MSTORE SWAP3 SWAP5 DUP6 SWAP4 SWAP2 SWAP1 SWAP2 AND SWAP2 DUP4 SWAP2 DUP11 SWAP2 DUP4 SWAP2 PUSH1 0x40 SWAP1 SWAP2 ADD SWAP1 JUMP JUMPDEST SUB SWAP3 GAS CALL SWAP1 DUP2 ISZERO PUSH2 0x3BD JUMPI PUSH32 0xCBC04ECA7E9DA35CB1393A6135A199CA52E450D5E9251CBD99F7847D33A36750 SWAP4 SWAP5 SWAP2 PUSH2 0x51C SWAP2 DUP8 SWAP2 PUSH2 0x52A JUMPI POP PUSH2 0xAF6 JUMP JUMPDEST MLOAD SWAP3 DUP4 MSTORE CALLER SWAP3 LOG2 PUSH1 0x1 DUP2 SSTORE DUP1 RETURN JUMPDEST PUSH2 0x541 SWAP2 POP DUP5 RETURNDATASIZE DUP7 GT PUSH2 0x3B6 JUMPI PUSH2 0x3A8 DUP2 DUP4 PUSH2 0xA7E JUMP JUMPDEST CODESIZE PUSH2 0x19B JUMP JUMPDEST POP PUSH1 0x84 SWAP2 DUP5 MLOAD SWAP2 PUSH3 0x461BCD PUSH1 0xE5 SHL DUP4 MSTORE DUP3 ADD MSTORE PUSH1 0x27 PUSH1 0x24 DUP3 ADD MSTORE PUSH32 0x50726F746F636F6C20696E205269736B204D6F64653A20426F72726F77696E67 PUSH1 0x44 DUP3 ADD MSTORE PUSH7 0x814185D5CD959 PUSH1 0xCA SHL PUSH1 0x64 DUP3 ADD MSTORE REVERT JUMPDEST PUSH4 0x4E487B71 PUSH1 0xE0 SHL DUP8 MSTORE PUSH1 0x21 DUP4 MSTORE PUSH1 0x24 DUP8 REVERT JUMPDEST PUSH2 0x5CC SWAP2 POP DUP5 RETURNDATASIZE DUP7 GT PUSH2 0x5D2 JUMPI JUMPDEST PUSH2 0x5C4 DUP2 DUP4 PUSH2 0xA7E JUMP JUMPDEST DUP2 ADD SWAP1 PUSH2 0xB34 JUMP JUMPDEST CODESIZE PUSH2 0x473 JUMP JUMPDEST POP RETURNDATASIZE PUSH2 0x5BA JUMP JUMPDEST DUP7 MLOAD RETURNDATASIZE DUP10 DUP3 RETURNDATACOPY RETURNDATASIZE SWAP1 REVERT JUMPDEST POP POP CALLVALUE PUSH2 0x131 JUMPI PUSH1 0x20 CALLDATASIZE PUSH1 0x3 NOT ADD SLT PUSH2 0x131 JUMPI PUSH1 0x20 SWAP2 DUP2 SWAP1 PUSH1 0x1 PUSH1 0x1 PUSH1 0xA0 SHL SUB PUSH2 0x60B PUSH2 0x9CF JUMP JUMPDEST AND DUP2 MSTORE PUSH1 0x6 DUP5 MSTORE KECCAK256 SLOAD SWAP1 MLOAD SWAP1 DUP2 MSTORE RETURN JUMPDEST POP POP CALLVALUE PUSH2 0x131 JUMPI PUSH1 0x20 CALLDATASIZE PUSH1 0x3 NOT ADD SLT PUSH2 0x131 JUMPI PUSH1 0x20 SWAP2 DUP2 SWAP1 PUSH1 0x1 PUSH1 0x1 PUSH1 0xA0 SHL SUB PUSH2 0x643 PUSH2 0x9CF JUMP JUMPDEST AND DUP2 MSTORE PUSH1 0x7 DUP5 MSTORE KECCAK256 SLOAD SWAP1 MLOAD SWAP1 DUP2 MSTORE RETURN JUMPDEST POP POP CALLVALUE PUSH2 0x131 JUMPI DUP2 PUSH1 0x3 NOT CALLDATASIZE ADD SLT PUSH2 0x131 JUMPI PUSH1 0x1 SLOAD SWAP1 MLOAD PUSH1 0x1 PUSH1 0x1 PUSH1 0xA0 SHL SUB SWAP1 SWAP2 AND DUP2 MSTORE PUSH1 0x20 SWAP1 RETURN JUMPDEST POP POP CALLVALUE PUSH2 0x131 JUMPI DUP2 PUSH1 0x3 NOT CALLDATASIZE ADD SLT PUSH2 0x131 JUMPI PUSH1 0x3 SLOAD SWAP1 MLOAD PUSH1 0x1 PUSH1 0x1 PUSH1 0xA0 SHL SUB SWAP1 SWAP2 AND DUP2 MSTORE PUSH1 0x20 SWAP1 RETURN JUMPDEST POP POP CALLVALUE PUSH2 0x131 JUMPI DUP2 PUSH1 0x3 NOT CALLDATASIZE ADD SLT PUSH2 0x131 JUMPI PUSH1 0x2 SLOAD SWAP1 MLOAD PUSH1 0x1 PUSH1 0x1 PUSH1 0xA0 SHL SUB SWAP1 SWAP2 AND DUP2 MSTORE PUSH1 0x20 SWAP1 RETURN JUMPDEST SWAP1 POP CALLVALUE PUSH2 0x20B JUMPI PUSH1 0x20 DUP1 PUSH1 0x3 NOT CALLDATASIZE ADD SLT PUSH2 0x3F6 JUMPI DUP2 CALLDATALOAD SWAP2 PUSH2 0x6ED PUSH2 0xA4E JUMP JUMPDEST CALLER DUP6 MSTORE PUSH1 0x8 DUP3 MSTORE DUP3 DUP5 DUP7 KECCAK256 SLOAD LT PUSH2 0x846 JUMPI PUSH1 0x2 SLOAD DUP5 MLOAD PUSH4 0x70A08231 PUSH1 0xE0 SHL DUP2 MSTORE ADDRESS DUP4 DUP3 ADD MSTORE PUSH1 0x1 PUSH1 0x1 PUSH1 0xA0 SHL SUB SWAP2 DUP5 SWAP1 DUP3 SWAP1 PUSH1 0x24 SWAP1 DUP3 SWAP1 DUP7 AND GAS STATICCALL DUP1 ISZERO PUSH2 0x5D9 JUMPI DUP6 SWAP2 DUP9 SWAP2 PUSH2 0x811 JUMPI JUMPDEST POP LT PUSH2 0x7CF JUMPI DUP4 PUSH2 0x790 SWAP3 DUP5 SWAP3 CALLER DUP10 MSTORE PUSH1 0x8 DUP5 MSTORE DUP8 DUP10 KECCAK256 PUSH2 0x759 DUP5 DUP3 SLOAD PUSH2 0xA71 JUMP JUMPDEST SWAP1 SSTORE PUSH1 0x2 SLOAD DUP9 MLOAD PUSH4 0xA9059CBB PUSH1 0xE0 SHL DUP2 MSTORE CALLER SWAP4 DUP2 ADD SWAP4 DUP5 MSTORE PUSH1 0x20 DUP5 ADD SWAP5 SWAP1 SWAP5 MSTORE SWAP3 SWAP5 DUP6 SWAP4 SWAP2 SWAP1 SWAP2 AND SWAP2 DUP4 SWAP2 DUP11 SWAP2 DUP4 SWAP2 PUSH1 0x40 SWAP1 SWAP2 ADD SWAP1 JUMP JUMPDEST SUB SWAP3 GAS CALL SWAP1 DUP2 ISZERO PUSH2 0x3BD JUMPI PUSH32 0x8291C2165FB22F13D0ED7FC85F1F2AC23027102C70D95F9459C42A59E241EAA5 SWAP4 SWAP5 SWAP2 PUSH2 0x51C SWAP2 DUP8 SWAP2 PUSH2 0x52A JUMPI POP PUSH2 0xAF6 JUMP JUMPDEST POP PUSH1 0x64 SWAP2 DUP5 MLOAD SWAP2 PUSH3 0x461BCD PUSH1 0xE5 SHL DUP4 MSTORE DUP3 ADD MSTORE PUSH1 0x19 PUSH1 0x24 DUP3 ADD MSTORE PUSH32 0x506F6F6C207574696C697A6174696F6E20746F6F206869676800000000000000 PUSH1 0x44 DUP3 ADD MSTORE REVERT JUMPDEST DUP1 SWAP3 POP DUP6 DUP1 SWAP3 POP RETURNDATASIZE DUP4 GT PUSH2 0x83F JUMPI JUMPDEST PUSH2 0x82A DUP2 DUP4 PUSH2 0xA7E JUMP JUMPDEST DUP2 ADD SUB SLT PUSH2 0x83B JUMPI DUP5 SWAP1 MLOAD CODESIZE PUSH2 0x737 JUMP JUMPDEST DUP7 DUP1 REVERT JUMPDEST POP RETURNDATASIZE PUSH2 0x820 JUMP JUMPDEST PUSH1 0x64 SWAP2 DUP5 MLOAD SWAP2 PUSH3 0x461BCD PUSH1 0xE5 SHL DUP4 MSTORE DUP3 ADD MSTORE PUSH1 0x17 PUSH1 0x24 DUP3 ADD MSTORE PUSH32 0x496E73756666696369656E74204C502062616C616E6365000000000000000000 PUSH1 0x44 DUP3 ADD MSTORE REVERT JUMPDEST SWAP1 SWAP3 SWAP2 POP CALLVALUE PUSH2 0x3F6 JUMPI DUP2 PUSH1 0x3 NOT CALLDATASIZE ADD SLT PUSH2 0x3F6 JUMPI PUSH2 0x8A3 PUSH2 0x9CF JUMP JUMPDEST SWAP3 PUSH1 0x24 CALLDATALOAD SWAP4 PUSH1 0x1 DUP1 PUSH1 0xA0 SHL SUB SWAP1 DUP4 DUP3 PUSH1 0x1 SLOAD AND PUSH4 0x41005FF3 PUSH1 0xE1 SHL DUP3 MSTORE DUP2 DUP6 PUSH1 0x20 SWAP8 DUP9 SWAP4 GAS STATICCALL SWAP1 DUP2 ISZERO PUSH2 0x9C5 JUMPI SWAP1 DUP4 SWAP2 DUP10 SWAP2 PUSH2 0x987 JUMPI JUMPDEST POP AND CALLER SUB PUSH2 0x944 JUMPI AND SWAP1 DUP2 DUP7 MSTORE PUSH1 0x6 DUP4 MSTORE DUP5 DUP5 DUP8 KECCAK256 SLOAD LT PUSH2 0x910 JUMPI POP PUSH2 0x90B SWAP3 SWAP2 PUSH1 0x6 SWAP2 DUP7 MSTORE MSTORE DUP4 KECCAK256 SWAP2 DUP3 SLOAD PUSH2 0xA71 JUMP JUMPDEST SWAP1 SSTORE DUP1 RETURN JUMPDEST DUP4 MLOAD PUSH3 0x461BCD PUSH1 0xE5 SHL DUP2 MSTORE SWAP1 DUP2 ADD DUP4 SWAP1 MSTORE PUSH1 0xE PUSH1 0x24 DUP3 ADD MSTORE PUSH14 0x1119589D081D1BDBC81CDB585B1B PUSH1 0x92 SHL PUSH1 0x44 DUP3 ADD MSTORE PUSH1 0x64 SWAP1 REVERT JUMPDEST DUP5 MLOAD PUSH3 0x461BCD PUSH1 0xE5 SHL DUP2 MSTORE DUP1 DUP5 ADD DUP6 SWAP1 MSTORE PUSH1 0x1B PUSH1 0x24 DUP3 ADD MSTORE PUSH32 0x43616C6C6572206973206E6F74204261636B73746F7020506F6F6C0000000000 PUSH1 0x44 DUP3 ADD MSTORE PUSH1 0x64 SWAP1 REVERT JUMPDEST DUP1 SWAP3 POP DUP7 DUP1 SWAP3 POP RETURNDATASIZE DUP4 GT PUSH2 0x9BE JUMPI JUMPDEST PUSH2 0x9A0 DUP2 DUP4 PUSH2 0xA7E JUMP JUMPDEST DUP2 ADD SUB SLT PUSH2 0x9BA JUMPI MLOAD DUP3 DUP2 AND DUP2 SUB PUSH2 0x9BA JUMPI DUP3 SWAP1 CODESIZE PUSH2 0x8DA JUMP JUMPDEST DUP8 DUP1 REVERT JUMPDEST POP RETURNDATASIZE PUSH2 0x996 JUMP JUMPDEST DUP7 MLOAD RETURNDATASIZE DUP11 DUP3 RETURNDATACOPY RETURNDATASIZE SWAP1 REVERT JUMPDEST PUSH1 0x4 CALLDATALOAD SWAP1 PUSH1 0x1 PUSH1 0x1 PUSH1 0xA0 SHL SUB DUP3 AND DUP3 SUB PUSH2 0x9E5 JUMPI JUMP JUMPDEST PUSH1 0x0 DUP1 REVERT JUMPDEST ISZERO PUSH2 0x9F1 JUMPI JUMP JUMPDEST PUSH1 0x40 MLOAD PUSH3 0x461BCD PUSH1 0xE5 SHL DUP2 MSTORE PUSH1 0x20 PUSH1 0x4 DUP3 ADD MSTORE PUSH1 0x12 PUSH1 0x24 DUP3 ADD MSTORE PUSH18 0x416D6F756E74206D757374206265203E203 PUSH1 0x74 SHL PUSH1 0x44 DUP3 ADD MSTORE PUSH1 0x64 SWAP1 REVERT JUMPDEST SWAP2 SWAP1 DUP3 ADD DUP1 SWAP3 GT PUSH2 0xA38 JUMPI JUMP JUMPDEST PUSH4 0x4E487B71 PUSH1 0xE0 SHL PUSH1 0x0 MSTORE PUSH1 0x11 PUSH1 0x4 MSTORE PUSH1 0x24 PUSH1 0x0 REVERT JUMPDEST PUSH1 0x2 PUSH1 0x0 SLOAD EQ PUSH2 0xA5F JUMPI PUSH1 0x2 PUSH1 0x0 SSTORE JUMP JUMPDEST PUSH1 0x40 MLOAD PUSH4 0x3EE5AEB5 PUSH1 0xE0 SHL DUP2 MSTORE PUSH1 0x4 SWAP1 REVERT JUMPDEST SWAP2 SWAP1 DUP3 SUB SWAP2 DUP3 GT PUSH2 0xA38 JUMPI JUMP JUMPDEST SWAP1 PUSH1 0x1F DUP1 NOT SWAP2 ADD AND DUP2 ADD SWAP1 DUP2 LT PUSH8 0xFFFFFFFFFFFFFFFF DUP3 GT OR PUSH2 0xAA0 JUMPI PUSH1 0x40 MSTORE JUMP JUMPDEST PUSH4 0x4E487B71 PUSH1 0xE0 SHL PUSH1 0x0 MSTORE PUSH1 0x41 PUSH1 0x4 MSTORE PUSH1 0x24 PUSH1 0x0 REVERT JUMPDEST RETURNDATASIZE ISZERO PUSH2 0xAF1 JUMPI RETURNDATASIZE SWAP1 PUSH8 0xFFFFFFFFFFFFFFFF DUP3 GT PUSH2 0xAA0 JUMPI PUSH1 0x40 MLOAD SWAP2 PUSH2 0xAE5 PUSH1 0x1F DUP3 ADD PUSH1 0x1F NOT AND PUSH1 0x20 ADD DUP5 PUSH2 0xA7E JUMP JUMPDEST DUP3 MSTORE RETURNDATASIZE PUSH1 0x0 PUSH1 0x20 DUP5 ADD RETURNDATACOPY JUMP JUMPDEST PUSH1 0x60 SWAP1 JUMP JUMPDEST ISZERO PUSH2 0xAFD JUMPI JUMP JUMPDEST PUSH1 0x40 MLOAD PUSH3 0x461BCD PUSH1 0xE5 SHL DUP2 MSTORE PUSH1 0x20 PUSH1 0x4 DUP3 ADD MSTORE PUSH1 0xF PUSH1 0x24 DUP3 ADD MSTORE PUSH15 0x151C985B9CD9995C8819985A5B1959 PUSH1 0x8A SHL PUSH1 0x44 DUP3 ADD MSTORE PUSH1 0x64 SWAP1 REVERT JUMPDEST SWAP1 DUP2 PUSH1 0x20 SWAP2 SUB SLT PUSH2 0x9E5 JUMPI MLOAD PUSH1 0x3 DUP2 LT ISZERO PUSH2 0x9E5 JUMPI SWAP1 JUMP JUMPDEST SWAP1 DUP2 PUSH1 0x20 SWAP2 SUB SLT PUSH2 0x9E5 JUMPI MLOAD DUP1 ISZERO ISZERO DUP2 SUB PUSH2 0x9E5 JUMPI SWAP1 JUMP JUMPDEST ISZERO PUSH2 0xB6B JUMPI JUMP JUMPDEST PUSH1 0x40 MLOAD PUSH3 0x461BCD PUSH1 0xE5 SHL DUP2 MSTORE PUSH1 0x20 PUSH1 0x4 DUP3 ADD MSTORE PUSH1 0x14 PUSH1 0x24 DUP3 ADD MSTORE PUSH20 0x151C985B9CD9995C88119C9BDB4819985A5B1959 PUSH1 0x62 SHL PUSH1 0x44 DUP3 ADD MSTORE PUSH1 0x64 SWAP1 REVERT JUMPDEST SWAP1 DUP2 PUSH1 0x60 SWAP2 SUB SLT PUSH2 0x9E5 JUMPI PUSH1 0x40 MLOAD SWAP1 PUSH1 0x60 DUP3 ADD SWAP1 DUP3 DUP3 LT PUSH8 0xFFFFFFFFFFFFFFFF DUP4 GT OR PUSH2 0xAA0 JUMPI PUSH1 0x40 SWAP2 DUP3 MSTORE DUP1 MLOAD DUP4 MSTORE PUSH1 0x20 DUP2 ADD MLOAD PUSH1 0x20 DUP5 ADD MSTORE ADD MLOAD PUSH1 0x40 DUP3 ADD MSTORE SWAP1 JUMP JUMPDEST DUP2 DUP2 MUL SWAP3 SWAP2 DUP2 ISZERO SWAP2 DUP5 DIV EQ OR ISZERO PUSH2 0xA38 JUMPI JUMP JUMPDEST DUP2 ISZERO PUSH2 0xC08 JUMPI DIV SWAP1 JUMP JUMPDEST PUSH4 0x4E487B71 PUSH1 0xE0 SHL PUSH1 0x0 MSTORE PUSH1 0x12 PUSH1 0x4 MSTORE PUSH1 0x24 PUSH1 0x0 REVERT JUMPDEST PUSH1 0x1 SLOAD PUSH1 0x40 DUP1 MLOAD PUSH4 0xC3F6ACF PUSH1 0xE0 SHL DUP2 MSTORE SWAP4 SWAP5 SWAP4 PUSH1 0x1 PUSH1 0x1 PUSH1 0xA0 SHL SUB SWAP4 PUSH1 0x4 SWAP4 PUSH1 0x20 SWAP4 SWAP3 SWAP1 DUP5 SWAP1 DUP3 SWAP1 DUP8 SWAP1 DUP3 SWAP1 DUP11 AND GAS STATICCALL SWAP1 DUP2 ISZERO PUSH2 0x11E1 JUMPI PUSH1 0x0 SWAP2 PUSH2 0x11C4 JUMPI JUMPDEST POP PUSH1 0x3 DUP2 LT ISZERO PUSH2 0x11AF JUMPI PUSH1 0x2 DUP2 EQ PUSH2 0x1175 JUMPI DUP6 DUP3 AND SWAP1 DUP2 PUSH1 0x0 MSTORE PUSH1 0x6 DUP6 MSTORE DUP4 PUSH1 0x0 KECCAK256 SLOAD DUP10 GT PUSH2 0x113C JUMPI PUSH2 0xC92 DUP10 ISZERO ISZERO PUSH2 0x9EA JUMP JUMPDEST PUSH1 0x1 PUSH2 0xC9D DUP5 PUSH2 0x11EC JUMP JUMPDEST POP SWAP2 SUB PUSH2 0x10ED JUMPI PUSH8 0xD2F13F7789F0000 GT ISZERO PUSH2 0x10A0 JUMPI PUSH1 0x60 SWAP5 SWAP6 SWAP7 SWAP8 JUMPDEST DUP8 PUSH1 0x3 SLOAD AND DUP5 MLOAD SWAP7 DUP8 DUP1 SWAP3 PUSH4 0x82F01C85 PUSH1 0xE0 SHL DUP3 MSTORE DUP6 DUP12 DUP4 ADD MSTORE PUSH1 0x24 SWAP10 DUP11 SWAP2 GAS STATICCALL SWAP1 DUP2 ISZERO PUSH2 0x1095 JUMPI PUSH1 0x0 SWAP2 PUSH2 0x1067 JUMPI JUMPDEST POP DUP5 DUP2 ADD DUP1 MLOAD PUSH2 0xFA7 JUMPI JUMPDEST POP PUSH1 0x2 SLOAD DUP6 MLOAD PUSH4 0x23B872DD PUSH1 0xE0 SHL DUP2 MSTORE CALLER DUP2 DUP12 ADD SWAP1 DUP2 MSTORE ADDRESS PUSH1 0x20 DUP3 ADD MSTORE PUSH1 0x40 DUP2 ADD DUP6 SWAP1 MSTORE SWAP1 SWAP2 DUP9 SWAP2 DUP4 SWAP2 DUP14 AND SWAP1 DUP3 SWAP1 PUSH1 0x0 SWAP1 DUP3 SWAP1 PUSH1 0x60 ADD SUB SWAP3 GAS CALL SWAP1 DUP2 ISZERO PUSH2 0xF9C JUMPI DUP8 SWAP3 SWAP2 PUSH2 0xD4B SWAP2 PUSH1 0x0 SWAP2 PUSH2 0x390 JUMPI POP PUSH2 0xB64 JUMP JUMPDEST DUP4 PUSH1 0x0 MSTORE PUSH1 0x6 DUP3 MSTORE DUP6 PUSH1 0x0 KECCAK256 PUSH2 0xD62 DUP5 DUP3 SLOAD PUSH2 0xA71 JUMP JUMPDEST SWAP1 SSTORE ADD MLOAD SWAP8 PUSH1 0x64 SWAP9 DUP10 ADD SWAP1 DUP2 DUP11 GT PUSH2 0xF54 JUMPI DUP9 SLOAD AND SWAP1 DUP7 PUSH1 0x0 DUP10 DUP12 DUP10 MLOAD SWAP6 DUP7 SWAP4 DUP5 SWAP3 PUSH4 0x2C68BE3 PUSH1 0xE3 SHL DUP5 MSTORE DUP4 ADD MSTORE GAS STATICCALL SWAP2 DUP3 ISZERO PUSH2 0xF9C JUMPI SWAP1 DUP11 SWAP2 PUSH1 0x0 SWAP4 PUSH2 0xF68 JUMPI JUMPDEST POP PUSH2 0xDB0 SWAP1 DUP5 PUSH2 0xBEB JUMP JUMPDEST DIV PUSH8 0xDE0B6B3A7640000 SWAP1 DUP2 DUP2 MUL SWAP2 DUP2 DUP4 DIV EQ SWAP1 ISZERO OR ISZERO PUSH2 0xF54 JUMPI SWAP1 PUSH2 0xDD5 SWAP2 PUSH2 0xBFE JUMP JUMPDEST DUP3 PUSH1 0x0 MSTORE PUSH1 0x5 DUP7 MSTORE DUP1 DUP6 PUSH1 0x0 KECCAK256 SLOAD LT PUSH2 0xF09 JUMPI DUP3 PUSH1 0x0 MSTORE PUSH1 0x5 DUP7 MSTORE DUP5 PUSH1 0x0 KECCAK256 PUSH2 0xDFF DUP3 DUP3 SLOAD PUSH2 0xA71 JUMP JUMPDEST SWAP1 SSTORE PUSH1 0x0 DUP1 DUP1 DUP1 DUP5 CALLER GAS CALL PUSH2 0xE12 PUSH2 0xAB6 JUMP JUMPDEST POP ISZERO PUSH2 0xED2 JUMPI DUP5 MLOAD SWAP2 DUP3 MSTORE DUP6 DUP3 ADD MSTORE DUP2 PUSH32 0x1F0C6615429D1CDAE0DFA233ABF91D3B31CDBDD82C8081389832A61E1072F1EA DUP6 CALLER SWAP4 LOG3 PUSH1 0x0 MSTORE PUSH1 0x6 DUP4 MSTORE DUP2 PUSH1 0x0 KECCAK256 SLOAD ISZERO PUSH2 0xE61 JUMPI JUMPDEST POP POP POP POP POP POP JUMP JUMPDEST PUSH1 0x5 DUP4 MSTORE DUP2 PUSH1 0x0 KECCAK256 SWAP1 DUP2 SLOAD SWAP1 DUP2 PUSH2 0xE7A JUMPI JUMPDEST POP POP PUSH2 0xE59 JUMP JUMPDEST PUSH1 0x0 DUP1 SWAP4 SWAP3 DUP2 SWAP4 SWAP3 DUP3 DUP1 SWAP5 SSTORE GAS CALL PUSH2 0xE90 PUSH2 0xAB6 JUMP JUMPDEST POP ISZERO PUSH2 0xE9E JUMPI DUP1 DUP1 DUP1 PUSH2 0xE73 JUMP JUMPDEST MLOAD PUSH3 0x461BCD PUSH1 0xE5 SHL DUP2 MSTORE SWAP3 DUP4 ADD MSTORE PUSH1 0x15 SWAP1 DUP3 ADD MSTORE PUSH21 0x1499599D5B99081D1BC81D5CD95C8819985A5B1959 PUSH1 0x5A SHL PUSH1 0x44 DUP3 ADD MSTORE REVERT JUMPDEST DUP5 MLOAD PUSH3 0x461BCD PUSH1 0xE5 SHL DUP2 MSTORE DUP1 DUP10 ADD DUP8 SWAP1 MSTORE PUSH1 0x13 DUP2 DUP10 ADD MSTORE PUSH19 0x11551208151C985B9CD9995C8819985A5B1959 PUSH1 0x6A SHL PUSH1 0x44 DUP3 ADD MSTORE DUP10 SWAP1 REVERT JUMPDEST DUP5 MLOAD PUSH3 0x461BCD PUSH1 0xE5 SHL DUP2 MSTORE DUP1 DUP10 ADD DUP8 SWAP1 MSTORE PUSH1 0x21 DUP2 DUP10 ADD MSTORE PUSH32 0x436F6C6C61746572616C20696E73756666696369656E7420666F7220626F6E75 PUSH1 0x44 DUP3 ADD MSTORE PUSH1 0x73 PUSH1 0xF8 SHL DUP2 DUP12 ADD MSTORE PUSH1 0x84 SWAP1 REVERT JUMPDEST DUP8 PUSH1 0x11 DUP11 PUSH4 0x4E487B71 PUSH1 0xE0 SHL PUSH1 0x0 MSTORE MSTORE PUSH1 0x0 REVERT JUMPDEST SWAP2 POP SWAP2 DUP8 DUP3 DUP2 RETURNDATASIZE DUP4 GT PUSH2 0xF95 JUMPI JUMPDEST PUSH2 0xF80 DUP2 DUP4 PUSH2 0xA7E JUMP JUMPDEST DUP2 ADD SUB SLT PUSH2 0x27B JUMPI POP MLOAD SWAP1 DUP10 SWAP1 PUSH2 0xDB0 PUSH2 0xDA5 JUMP JUMPDEST POP RETURNDATASIZE PUSH2 0xF76 JUMP JUMPDEST DUP7 MLOAD RETURNDATASIZE PUSH1 0x0 DUP3 RETURNDATACOPY RETURNDATASIZE SWAP1 REVERT JUMPDEST DUP4 PUSH1 0x0 SWAP10 SWAP7 SWAP8 SWAP9 SWAP6 SWAP5 SWAP10 MSTORE PUSH1 0x7 DUP9 MSTORE DUP7 PUSH1 0x0 KECCAK256 SLOAD SWAP1 DUP2 ISZERO PUSH1 0x0 EQ PUSH2 0x1005 JUMPI POP POP POP POP POP POP POP DUP3 PUSH32 0x26CEBF317338E2CF649FCDA3377DF64EBA66CFFF88183B6E6AF43E6AB676405C SWAP4 SWAP5 POP PUSH1 0x0 MSTORE PUSH1 0x7 DUP3 MSTORE TIMESTAMP DUP2 PUSH1 0x0 KECCAK256 SSTORE MLOAD TIMESTAMP DUP2 MSTORE LOG2 JUMP JUMPDEST SWAP1 PUSH2 0x1018 SWAP2 SWAP10 SWAP5 SWAP6 SWAP9 SWAP8 SWAP7 SWAP10 MLOAD SWAP1 PUSH2 0xA2B JUMP JUMPDEST TIMESTAMP GT ISZERO PUSH2 0x1033 JUMPI DUP3 PUSH1 0x0 MSTORE PUSH1 0x7 DUP7 MSTORE PUSH1 0x0 DUP6 DUP2 KECCAK256 SSTORE CODESIZE PUSH2 0xCF5 JUMP JUMPDEST DUP5 MLOAD PUSH3 0x461BCD PUSH1 0xE5 SHL DUP2 MSTORE DUP1 DUP10 ADD DUP8 SWAP1 MSTORE PUSH1 0xF DUP2 DUP10 ADD MSTORE PUSH15 0x125B8811DC9858D94814195C9A5BD9 PUSH1 0x8A SHL PUSH1 0x44 DUP3 ADD MSTORE PUSH1 0x64 SWAP1 REVERT JUMPDEST PUSH2 0x1088 SWAP2 POP PUSH1 0x60 RETURNDATASIZE DUP2 GT PUSH2 0x108E JUMPI JUMPDEST PUSH2 0x1080 DUP2 DUP4 PUSH2 0xA7E JUMP JUMPDEST DUP2 ADD SWAP1 PUSH2 0xBA7 JUMP JUMPDEST CODESIZE PUSH2 0xCEA JUMP JUMPDEST POP RETURNDATASIZE PUSH2 0x1076 JUMP JUMPDEST DUP6 MLOAD RETURNDATASIZE PUSH1 0x0 DUP3 RETURNDATACOPY RETURNDATASIZE SWAP1 REVERT JUMPDEST POP POP MLOAD PUSH3 0x461BCD PUSH1 0xE5 SHL DUP2 MSTORE SWAP2 DUP3 ADD MSTORE PUSH1 0x21 PUSH1 0x24 DUP3 ADD MSTORE PUSH32 0x59656C6C6F77204D6F64653A204E6F7420646565706C7920696E736F6C76656E PUSH1 0x44 DUP3 ADD MSTORE PUSH1 0x1D PUSH1 0xFA SHL PUSH1 0x64 DUP3 ADD MSTORE PUSH1 0x84 SWAP2 POP REVERT JUMPDEST PUSH8 0xDE0B6B3A7640000 GT ISZERO PUSH2 0x1107 JUMPI PUSH1 0x60 SWAP5 SWAP6 SWAP7 SWAP8 PUSH2 0xCBA JUMP JUMPDEST POP POP MLOAD PUSH3 0x461BCD PUSH1 0xE5 SHL DUP2 MSTORE SWAP2 DUP3 ADD MSTORE PUSH1 0xF PUSH1 0x24 DUP3 ADD MSTORE PUSH15 0x55736572206973206865616C746879 PUSH1 0x88 SHL PUSH1 0x44 DUP3 ADD MSTORE PUSH1 0x64 SWAP2 POP REVERT JUMPDEST DUP4 MLOAD PUSH3 0x461BCD PUSH1 0xE5 SHL DUP2 MSTORE DUP1 DUP8 ADD DUP7 SWAP1 MSTORE PUSH1 0x13 PUSH1 0x24 DUP3 ADD MSTORE PUSH19 0x105B5BDD5B9D08195E18D959591CC81919589D PUSH1 0x6A SHL PUSH1 0x44 DUP3 ADD MSTORE PUSH1 0x64 SWAP1 REVERT JUMPDEST POP POP MLOAD PUSH3 0x461BCD PUSH1 0xE5 SHL DUP2 MSTORE SWAP2 DUP3 ADD MSTORE PUSH1 0x14 PUSH1 0x24 DUP3 ADD MSTORE PUSH20 0x526564204D6F64653A205573652053706F6E6765 PUSH1 0x60 SHL PUSH1 0x44 DUP3 ADD MSTORE PUSH1 0x64 SWAP2 POP REVERT JUMPDEST PUSH1 0x21 DUP6 PUSH4 0x4E487B71 PUSH1 0xE0 SHL PUSH1 0x0 MSTORE MSTORE PUSH1 0x24 PUSH1 0x0 REVERT JUMPDEST PUSH2 0x11DB SWAP2 POP DUP5 RETURNDATASIZE DUP7 GT PUSH2 0x5D2 JUMPI PUSH2 0x5C4 DUP2 DUP4 PUSH2 0xA7E JUMP JUMPDEST CODESIZE PUSH2 0xC5E JUMP JUMPDEST DUP4 MLOAD RETURNDATASIZE PUSH1 0x0 DUP3 RETURNDATACOPY RETURNDATASIZE SWAP1 REVERT JUMPDEST PUSH1 0x1 PUSH1 0x1 PUSH1 0xA0 SHL SUB SWAP1 DUP2 AND PUSH1 0x0 DUP2 DUP2 MSTORE PUSH1 0x5 PUSH1 0x20 SWAP1 DUP2 MSTORE PUSH1 0x40 DUP1 DUP4 KECCAK256 SLOAD PUSH1 0x6 DUP4 MSTORE DUP2 DUP5 KECCAK256 SLOAD SWAP5 SWAP3 SWAP4 SWAP3 SWAP1 DUP6 ISZERO PUSH2 0x1337 JUMPI PUSH1 0x24 DUP6 DUP9 PUSH1 0x4 SLOAD AND DUP6 MLOAD SWAP3 DUP4 DUP1 SWAP3 PUSH4 0x2C68BE3 PUSH1 0xE3 SHL DUP3 MSTORE DUP10 PUSH1 0x4 DUP4 ADD MSTORE GAS STATICCALL SWAP6 DUP7 ISZERO PUSH2 0x3BD JUMPI DUP6 SWAP7 PUSH2 0x1306 JUMPI JUMPDEST POP POP PUSH1 0x60 SWAP1 PUSH2 0x1263 PUSH8 0xDE0B6B3A7640000 SWAP7 DUP8 SWAP3 PUSH2 0xBEB JUMP JUMPDEST DIV SWAP7 PUSH1 0x3 SLOAD AND SWAP2 PUSH1 0x24 DUP5 MLOAD DUP1 SWAP5 DUP2 SWAP4 PUSH4 0x82F01C85 PUSH1 0xE0 SHL DUP4 MSTORE PUSH1 0x4 DUP4 ADD MSTORE GAS STATICCALL SWAP2 DUP3 ISZERO PUSH2 0x12FD JUMPI POP SWAP1 PUSH2 0x129F SWAP2 DUP4 SWAP2 PUSH2 0x12DF JUMPI JUMPDEST POP MLOAD DUP6 PUSH2 0xBEB JUMP JUMPDEST DUP3 DUP2 MUL SWAP3 DUP2 DUP5 DIV EQ SWAP1 ISZERO OR ISZERO PUSH2 0x12CB JUMPI PUSH1 0x64 DUP4 MUL SWAP3 DUP4 DIV PUSH1 0x64 SUB PUSH2 0x12CB JUMPI POP SWAP1 PUSH2 0x12C8 SWAP2 PUSH2 0xBFE JUMP JUMPDEST SWAP2 JUMP JUMPDEST PUSH4 0x4E487B71 PUSH1 0xE0 SHL DUP2 MSTORE PUSH1 0x11 PUSH1 0x4 MSTORE PUSH1 0x24 SWAP1 REVERT JUMPDEST PUSH2 0x12F7 SWAP2 POP PUSH1 0x60 RETURNDATASIZE DUP2 GT PUSH2 0x108E JUMPI PUSH2 0x1080 DUP2 DUP4 PUSH2 0xA7E JUMP JUMPDEST CODESIZE PUSH2 0x1297 JUMP JUMPDEST MLOAD RETURNDATASIZE DUP5 DUP3 RETURNDATACOPY RETURNDATASIZE SWAP1 REVERT JUMPDEST SWAP1 DUP1 SWAP3 SWAP7 POP DUP2 RETURNDATASIZE DUP4 GT PUSH2 0x1330 JUMPI JUMPDEST PUSH2 0x131E DUP2 DUP4 PUSH2 0xA7E JUMP JUMPDEST DUP2 ADD SUB SLT PUSH2 0x3F6 JUMPI MLOAD SWAP4 PUSH1 0x60 CODESIZE PUSH2 0x124A JUMP JUMPDEST POP RETURNDATASIZE PUSH2 0x1314 JUMP JUMPDEST POP POP POP SWAP4 SWAP3 POP POP POP PUSH1 0x0 NOT SWAP2 SWAP1 JUMP JUMPDEST PUSH2 0x1358 PUSH8 0xDE0B6B3A7640000 SWAP2 PUSH2 0x11EC JUMP JUMPDEST POP LT PUSH2 0x1360 JUMPI JUMP JUMPDEST PUSH1 0x40 MLOAD PUSH3 0x461BCD PUSH1 0xE5 SHL DUP2 MSTORE PUSH1 0x20 PUSH1 0x4 DUP3 ADD MSTORE PUSH1 0x13 PUSH1 0x24 DUP3 ADD MSTORE PUSH19 0x4865616C746820466163746F72203C20312E3 PUSH1 0x6C SHL PUSH1 0x44 DUP3 ADD MSTORE PUSH1 0x64 SWAP1 REVERT INVALID LOG2 PUSH5 0x6970667358 0x22 SLT KECCAK256 0xB2 0x5C 0xDA 0xDA PC CODECOPY 0x2B SWAP13 0xEF 0xEF 0x1F GAS PUSH14 0x2B139FADE4B75CDBEE0A5F157432 MUL RETURNDATASIZE DUP7 PUSH13 0x4164736F6C6343000814003300 "},"methodIdentifiers":{"aegisCore()":"49bb4eda","borrowUSDC(uint256)":"7a9fe9ff","depositETH()":"f6326fb3","identityRegistry()":"134e18f4","liquidate(address,uint256)":"bcbaf487","liquidityProviderBalance(address)":"c5c056e0","oracle()":"7dc0d1d0","probationStart(address)":"5370307c","repayUSDC(uint256)":"9236a51d","seizeForBackstop(address,uint256)":"02aaa423","usdcToken()":"11eac855","userCollateralETH(address)":"93fd83a2","userDebtUSDC(address)":"791428ff","withdrawETH(uint256)":"f14210a6","withdrawLiquidity(uint256)":"0a861f2a"}}}}}