{"contracts/mocks/MockVerifier.sol":{"MockVerifier":{"abi":[{"inputs":[{"internalType":"bytes","name":"","type":"bytes"},{"internalType":"bytes32","name":"","type":"bytes32"}],"name":"verify","outputs":[{"internalType":"bool","name":"","type":"bool"}],"stateMutability":"pure","type":"function"}],"evm":{"bytecode":{"linkReferences":{},"object":"608080604052346100155760f3908161001b8239f35b600080fdfe60806004361015600e57600080fd5b600090813560e01c636b40634114602457600080fd5b3460b957604036600319011260b9576004359067ffffffffffffffff9081831160a1573660238401121560a15782600401359180831160a557601f8301601f19908116603f011682019081118282101760a557604052818152366024838501011160a1578160246020940184830137010152602060405160018152f35b8380fd5b634e487b7160e01b85526041600452602485fd5b5080fdfea264697066735822122013263cbed68e158a5f1b84bb440428071f12b64009b011741b77d012c48d76a164736f6c63430008140033","opcodes":"PUSH1 0x80 DUP1 PUSH1 0x40 MSTORE CALLVALUE PUSH2 0x15 JUMPI PUSH1 0xF3 SWAP1 DUP2 PUSH2 0x1B DUP3 CODECOPY RETURN JUMPDEST PUSH1 0x0 DUP1 REVERT INVALID PUSH1 0x80 PUSH1 0x4 CALLDATASIZE LT ISZERO PUSH1 0xE JUMPI PUSH1 0x0 DUP1 REVERT JUMPDEST PUSH1 0x0 SWAP1 DUP2 CALLDATALOAD PUSH1 0xE0 SHR PUSH4 0x6B406341 EQ PUSH1 0x24 JUMPI PUSH1 0x0 DUP1 REVERT JUMPDEST CALLVALUE PUSH1 0xB9 JUMPI PUSH1 0x40 CALLDATASIZE PUSH1 0x3 NOT ADD SLT PUSH1 0xB9 JUMPI PUSH1 0x4 CALLDATALOAD SWAP1 PUSH8 0xFFFFFFFFFFFFFFFF SWAP1 DUP2 DUP4 GT PUSH1 0xA1 JUMPI CALLDATASIZE PUSH1 0x23 DUP5 ADD SLT ISZERO PUSH1 0xA1 JUMPI DUP3 PUSH1 0x4 ADD CALLDATALOAD SWAP2 DUP1 DUP4 GT PUSH1 0xA5 JUMPI PUSH1 0x1F DUP4 ADD PUSH1 0x1F NOT SWAP1 DUP2 AND PUSH1 0x3F ADD AND DUP3 ADD SWAP1 DUP2 GT DUP3 DUP3 LT OR PUSH1 0xA5 JUMPI PUSH1 0x40 MSTORE DUP2 DUP2 MSTORE CALLDATASIZE PUSH1 0x24 DUP4 DUP6 ADD ADD GT PUSH1 0xA1 JUMPI DUP2 PUSH1 0x24 PUSH1 0x20 SWAP5 ADD DUP5 DUP4 ADD CALLDATACOPY ADD ADD MSTORE PUSH1 0x20 PUSH1 0x40 MLOAD PUSH1 0x1 DUP2 MSTORE RETURN JUMPDEST DUP4 DUP1 REVERT JUMPDEST PUSH4 0x4E487B71 PUSH1 0xE0 SHL DUP6 MSTORE PUSH1 0x41 PUSH1 0x4 MSTORE PUSH1 0x24 DUP6 REVERT JUMPDEST POP DUP1 REVERT INVALID LOG2 PUSH5 0x6970667358 0x22 SLT KECCAK256 SGT 0x26 EXTCODECOPY 0xBE 0xD6 DUP15 ISZERO DUP11 PUSH0 SHL DUP5 0xBB PREVRANDAO DIV 0x28 SMOD 0x1F SLT 0xB6 BLOCKHASH MULMOD 0xB0 GT PUSH21 0x1B77D012C48D76A164736F6C634300081400330000 "},"methodIdentifiers":{"verify(bytes,bytes32)":"6b406341"}}}}}