{"contracts/mocks/MockIdentityRegistry.sol":{"MockIdentityRegistry":{"abi":[{"inputs":[{"internalType":"address","name":"user","type":"address"}],"name":"getRiskParameters","outputs":[{"components":[{"internalType":"uint256","name":"ltv","type":"uint256"},{"internalType":"uint256","name":"liquidationPenalty","type":"uint256"},{"internalType":"uint256","name":"gracePeriod","type":"uint256"}],"internalType":"struct IUnstoppable.RiskParams","name":"","type":"tuple"}],"stateMutability":"view","type":"function"},{"inputs":[{"internalType":"address","name":"user","type":"address"}],"name":"reverseNameOf","outputs":[{"internalType":"string","name":"","type":"string"}],"stateMutability":"view","type":"function"},{"inputs":[{"internalType":"address","name":"user","type":"address"},{"internalType":"string","name":"badgeType","type":"string"}],"name":"setMockBadge","outputs":[],"stateMutability":"nonpayable","type":"function"},{"inputs":[{"internalType":"address","name":"user","type":"address"},{"internalType":"string","name":"name","type":"string"}],"name":"setMockName","outputs":[],"stateMutability":"nonpayable","type":"function"},{"inputs":[{"internalType":"address","name":"","type":"address"}],"name":"userBadges","outputs":[{"internalType":"string","name":"","type":"string"}],"stateMutability":"view","type":"function"},{"inputs":[{"internalType":"address","name":"","type":"address"}],"name":"userNames","outputs":[{"internalType":"string","name":"","type":"string"}],"stateMutability":"view","type":"function"}],"evm":{"bytecode":{"linkReferences":{},"object":"60808060405234610016576107ab908161001c8239f35b600080fdfe604060808152600436101561001357600080fd5b600090813560e01c80637f281635146100ac57806382f01c8514610351578063856e610f1461022657806387b55885146100e6578063bebec6b4146100ac5763f5474e121461006157600080fd5b346100a85760203660031901126100a8576100a4916100999082906001600160a01b0361008c610391565b1681528060205220610456565b9051918291826104fc565b0390f35b5080fd5b50346100a85760203660031901126100a8576100a4916100999082906001600160a01b036100d8610391565b168152600160205220610456565b50346100a8576100f536610545565b9060018060a01b0316835260019060209282845284209281519167ffffffffffffffff83116102125761012885546103ac565b601f81116101cc575b5081601f841160011461016b57509282939183928794610160575b50501b916000199060031b1c191617905580f35b01519250388061014c565b919083601f1981168789528489209489905b888383106101b25750505010610199575b505050811b01905580f35b015160001960f88460031b161c1916905538808061018e565b85870151885590960195948501948793509081019061017d565b858752828720601f850160051c810191848610610208575b601f0160051c019085905b8281106101fd575050610131565b8881550185906101ef565b90915081906101e4565b634e487b7160e01b86526041600452602486fd5b50903461034e5761023636610545565b6001600160a01b03909116825260208281529282208151919390919067ffffffffffffffff821161033a5761026b83546103ac565b601f81116102f7575b5080601f83116001146102af57508394829394926102a4575b50508160011b916000199060031b1c191617905580f35b01519050388061028d565b90601f198316958486528286209286905b8882106102df5750508360019596971061019957505050811b01905580f35b806001859682949686015181550195019301906102c0565b838552818520601f840160051c810191838510610330575b601f0160051c01905b8181106103255750610274565b858155600101610318565b909150819061030f565b634e487b7160e01b84526041600452602484fd5b80fd5b50346100a85760203660031901126100a857606090610376610371610391565b6105cb565b90808051928051845260208101516020850152015190820152f35b600435906001600160a01b03821682036103a757565b600080fd5b90600182811c921680156103dc575b60208310146103c657565b634e487b7160e01b600052602260045260246000fd5b91607f16916103bb565b6060810190811067ffffffffffffffff82111761040257604052565b634e487b7160e01b600052604160045260246000fd5b6040810190811067ffffffffffffffff82111761040257604052565b90601f8019910116810190811067ffffffffffffffff82111761040257604052565b906040519182600082549261046a846103ac565b9081845260019485811690816000146104d95750600114610496575b505061049492500383610434565b565b9093915060005260209081600020936000915b8183106104c157505061049493508201013880610486565b855488840185015294850194879450918301916104a9565b91505061049494506020925060ff191682840152151560051b8201013880610486565b6020808252825181830181905290939260005b82811061053157505060409293506000838284010152601f8019910116010190565b81810186015184820160400152850161050f565b9060406003198301126103a7576004356001600160a01b03811681036103a7579167ffffffffffffffff6024358181116103a757826023820112156103a757806004013591821161040257604051926105a8601f8401601f191660200185610434565b828452602483830101116103a75781600092602460209301838601378301015290565b6040908151916105da836103e6565b60009182845282826020958287820152015260018060a01b03168252818352610604818320610456565b805115610766578051907fdf1bc121578ae56f6dc11a313fe95038647c2df7329befecfab9ee74a1f0ed428582019283206a416e6369656e74204f6e6560a81b87865161065081610418565b600b8152015214610744577ff4ca62760601ab0f07b42f747c9e5dc6df32bae8d8252b33f626de9d2d0d36bf81518320645768616c6560d81b87865161069581610418565b6005815201521461072257907f352837afe4672d70d0d70cb4b09f66e583c8abfbb40ff25fbfa6fefc287234ed915190206a10db19585b8814da19595d60aa1b8584516106e181610418565b600b815201521461070757600a8151936106fa856103e6565b604b855284015282015290565b600a815193610715856103e6565b604d855284015282015290565b505061070891506005815193610737856103e6565b6052855284015282015290565b505061038491506008815193610759856103e6565b6050855284015282015290565b50600a8151936106fa856103e656fea2646970667358221220fc05c7d7ace7c6733c5abe2f7e51d98be52b15a4bfff5e7caa4f93d80798c4f264736f6c63430008140033","opcodes":"PUSH1 0x80 DUP1 PUSH1 0x40 MSTORE CALLVALUE PUSH2 0x16 JUMPI PUSH2 0x7AB SWAP1 DUP2 PUSH2 0x1C DUP3 CODECOPY RETURN JUMPDEST PUSH1 0x0 DUP1 REVERT INVALID PUSH1 0x40 PUSH1 0x80 DUP2 MSTORE PUSH1 0x4 CALLDATASIZE LT ISZERO PUSH2 0x13 JUMPI PUSH1 0x0 DUP1 REVERT JUMPDEST PUSH1 0x0 SWAP1 DUP2 CALLDATALOAD PUSH1 0xE0 SHR DUP1 PUSH4 0x7F281635 EQ PUSH2 0xAC JUMPI DUP1 PUSH4 0x82F01C85 EQ PUSH2 0x351 JUMPI DUP1 PUSH4 0x856E610F EQ PUSH2 0x226 JUMPI DUP1 PUSH4 0x87B55885 EQ PUSH2 0xE6 JUMPI DUP1 PUSH4 0xBEBEC6B4 EQ PUSH2 0xAC JUMPI PUSH4 0xF5474E12 EQ PUSH2 0x61 JUMPI PUSH1 0x0 DUP1 REVERT JUMPDEST CALLVALUE PUSH2 0xA8 JUMPI PUSH1 0x20 CALLDATASIZE PUSH1 0x3 NOT ADD SLT PUSH2 0xA8 JUMPI PUSH2 0xA4 SWAP2 PUSH2 0x99 SWAP1 DUP3 SWAP1 PUSH1 0x1 PUSH1 0x1 PUSH1 0xA0 SHL SUB PUSH2 0x8C PUSH2 0x391 JUMP JUMPDEST AND DUP2 MSTORE DUP1 PUSH1 0x20 MSTORE KECCAK256 PUSH2 0x456 JUMP JUMPDEST SWAP1 MLOAD SWAP2 DUP3 SWAP2 DUP3 PUSH2 0x4FC JUMP JUMPDEST SUB SWAP1 RETURN JUMPDEST POP DUP1 REVERT JUMPDEST POP CALLVALUE PUSH2 0xA8 JUMPI PUSH1 0x20 CALLDATASIZE PUSH1 0x3 NOT ADD SLT PUSH2 0xA8 JUMPI PUSH2 0xA4 SWAP2 PUSH2 0x99 SWAP1 DUP3 SWAP1 PUSH1 0x1 PUSH1 0x1 PUSH1 0xA0 SHL SUB PUSH2 0xD8 PUSH2 0x391 JUMP JUMPDEST AND DUP2 MSTORE PUSH1 0x1 PUSH1 0x20 MSTORE KECCAK256 PUSH2 0x456 JUMP JUMPDEST POP CALLVALUE PUSH2 0xA8 JUMPI PUSH2 0xF5 CALLDATASIZE PUSH2 0x545 JUMP JUMPDEST SWAP1 PUSH1 0x1 DUP1 PUSH1 0xA0 SHL SUB AND DUP4 MSTORE PUSH1 0x1 SWAP1 PUSH1 0x20 SWAP3 DUP3 DUP5 MSTORE DUP5 KECCAK256 SWAP3 DUP2 MLOAD SWAP2 PUSH8 0xFFFFFFFFFFFFFFFF DUP4 GT PUSH2 0x212 JUMPI PUSH2 0x128 DUP6 SLOAD PUSH2 0x3AC JUMP JUMPDEST PUSH1 0x1F DUP2 GT PUSH2 0x1CC JUMPI JUMPDEST POP DUP2 PUSH1 0x1F DUP5 GT PUSH1 0x1 EQ PUSH2 0x16B JUMPI POP SWAP3 DUP3 SWAP4 SWAP2 DUP4 SWAP3 DUP8 SWAP5 PUSH2 0x160 JUMPI JUMPDEST POP POP SHL SWAP2 PUSH1 0x0 NOT SWAP1 PUSH1 0x3 SHL SHR NOT AND OR SWAP1 SSTORE DUP1 RETURN JUMPDEST ADD MLOAD SWAP3 POP CODESIZE DUP1 PUSH2 0x14C JUMP JUMPDEST SWAP2 SWAP1 DUP4 PUSH1 0x1F NOT DUP2 AND DUP8 DUP10 MSTORE DUP5 DUP10 KECCAK256 SWAP5 DUP10 SWAP1 JUMPDEST DUP9 DUP4 DUP4 LT PUSH2 0x1B2 JUMPI POP POP POP LT PUSH2 0x199 JUMPI JUMPDEST POP POP POP DUP2 SHL ADD SWAP1 SSTORE DUP1 RETURN JUMPDEST ADD MLOAD PUSH1 0x0 NOT PUSH1 0xF8 DUP5 PUSH1 0x3 SHL AND SHR NOT AND SWAP1 SSTORE CODESIZE DUP1 DUP1 PUSH2 0x18E JUMP JUMPDEST DUP6 DUP8 ADD MLOAD DUP9 SSTORE SWAP1 SWAP7 ADD SWAP6 SWAP5 DUP6 ADD SWAP5 DUP8 SWAP4 POP SWAP1 DUP2 ADD SWAP1 PUSH2 0x17D JUMP JUMPDEST DUP6 DUP8 MSTORE DUP3 DUP8 KECCAK256 PUSH1 0x1F DUP6 ADD PUSH1 0x5 SHR DUP2 ADD SWAP2 DUP5 DUP7 LT PUSH2 0x208 JUMPI JUMPDEST PUSH1 0x1F ADD PUSH1 0x5 SHR ADD SWAP1 DUP6 SWAP1 JUMPDEST DUP3 DUP2 LT PUSH2 0x1FD JUMPI POP POP PUSH2 0x131 JUMP JUMPDEST DUP9 DUP2 SSTORE ADD DUP6 SWAP1 PUSH2 0x1EF JUMP JUMPDEST SWAP1 SWAP2 POP DUP2 SWAP1 PUSH2 0x1E4 JUMP JUMPDEST PUSH4 0x4E487B71 PUSH1 0xE0 SHL DUP7 MSTORE PUSH1 0x41 PUSH1 0x4 MSTORE PUSH1 0x24 DUP7 REVERT JUMPDEST POP SWAP1 CALLVALUE PUSH2 0x34E JUMPI PUSH2 0x236 CALLDATASIZE PUSH2 0x545 JUMP JUMPDEST PUSH1 0x1 PUSH1 0x1 PUSH1 0xA0 SHL SUB SWAP1 SWAP2 AND DUP3 MSTORE PUSH1 0x20 DUP3 DUP2 MSTORE SWAP3 DUP3 KECCAK256 DUP2 MLOAD SWAP2 SWAP4 SWAP1 SWAP2 SWAP1 PUSH8 0xFFFFFFFFFFFFFFFF DUP3 GT PUSH2 0x33A JUMPI PUSH2 0x26B DUP4 SLOAD PUSH2 0x3AC JUMP JUMPDEST PUSH1 0x1F DUP2 GT PUSH2 0x2F7 JUMPI JUMPDEST POP DUP1 PUSH1 0x1F DUP4 GT PUSH1 0x1 EQ PUSH2 0x2AF JUMPI POP DUP4 SWAP5 DUP3 SWAP4 SWAP5 SWAP3 PUSH2 0x2A4 JUMPI JUMPDEST POP POP DUP2 PUSH1 0x1 SHL SWAP2 PUSH1 0x0 NOT SWAP1 PUSH1 0x3 SHL SHR NOT AND OR SWAP1 SSTORE DUP1 RETURN JUMPDEST ADD MLOAD SWAP1 POP CODESIZE DUP1 PUSH2 0x28D JUMP JUMPDEST SWAP1 PUSH1 0x1F NOT DUP4 AND SWAP6 DUP5 DUP7 MSTORE DUP3 DUP7 KECCAK256 SWAP3 DUP7 SWAP1 JUMPDEST DUP9 DUP3 LT PUSH2 0x2DF JUMPI POP POP DUP4 PUSH1 0x1 SWAP6 SWAP7 SWAP8 LT PUSH2 0x199 JUMPI POP POP POP DUP2 SHL ADD SWAP1 SSTORE DUP1 RETURN JUMPDEST DUP1 PUSH1 0x1 DUP6 SWAP7 DUP3 SWAP5 SWAP7 DUP7 ADD MLOAD DUP2 SSTORE ADD SWAP6 ADD SWAP4 ADD SWAP1 PUSH2 0x2C0 JUMP JUMPDEST DUP4 DUP6 MSTORE DUP2 DUP6 KECCAK256 PUSH1 0x1F DUP5 ADD PUSH1 0x5 SHR DUP2 ADD SWAP2 DUP4 DUP6 LT PUSH2 0x330 JUMPI JUMPDEST PUSH1 0x1F ADD PUSH1 0x5 SHR ADD SWAP1 JUMPDEST DUP2 DUP2 LT PUSH2 0x325 JUMPI POP PUSH2 0x274 JUMP JUMPDEST DUP6 DUP2 SSTORE PUSH1 0x1 ADD PUSH2 0x318 JUMP JUMPDEST SWAP1 SWAP2 POP DUP2 SWAP1 PUSH2 0x30F JUMP JUMPDEST PUSH4 0x4E487B71 PUSH1 0xE0 SHL DUP5 MSTORE PUSH1 0x41 PUSH1 0x4 MSTORE PUSH1 0x24 DUP5 REVERT JUMPDEST DUP1 REVERT JUMPDEST POP CALLVALUE PUSH2 0xA8 JUMPI PUSH1 0x20 CALLDATASIZE PUSH1 0x3 NOT ADD SLT PUSH2 0xA8 JUMPI PUSH1 0x60 SWAP1 PUSH2 0x376 PUSH2 0x371 PUSH2 0x391 JUMP JUMPDEST PUSH2 0x5CB JUMP JUMPDEST SWAP1 DUP1 DUP1 MLOAD SWAP3 DUP1 MLOAD DUP5 MSTORE PUSH1 0x20 DUP2 ADD MLOAD PUSH1 0x20 DUP6 ADD MSTORE ADD MLOAD SWAP1 DUP3 ADD MSTORE RETURN JUMPDEST PUSH1 0x4 CALLDATALOAD SWAP1 PUSH1 0x1 PUSH1 0x1 PUSH1 0xA0 SHL SUB DUP3 AND DUP3 SUB PUSH2 0x3A7 JUMPI JUMP JUMPDEST PUSH1 0x0 DUP1 REVERT JUMPDEST SWAP1 PUSH1 0x1 DUP3 DUP2 SHR SWAP3 AND DUP1 ISZERO PUSH2 0x3DC JUMPI JUMPDEST PUSH1 0x20 DUP4 LT EQ PUSH2 0x3C6 JUMPI JUMP JUMPDEST PUSH4 0x4E487B71 PUSH1 0xE0 SHL PUSH1 0x0 MSTORE PUSH1 0x22 PUSH1 0x4 MSTORE PUSH1 0x24 PUSH1 0x0 REVERT JUMPDEST SWAP2 PUSH1 0x7F AND SWAP2 PUSH2 0x3BB JUMP JUMPDEST PUSH1 0x60 DUP2 ADD SWAP1 DUP2 LT PUSH8 0xFFFFFFFFFFFFFFFF DUP3 GT OR PUSH2 0x402 JUMPI PUSH1 0x40 MSTORE JUMP JUMPDEST PUSH4 0x4E487B71 PUSH1 0xE0 SHL PUSH1 0x0 MSTORE PUSH1 0x41 PUSH1 0x4 MSTORE PUSH1 0x24 PUSH1 0x0 REVERT JUMPDEST PUSH1 0x40 DUP2 ADD SWAP1 DUP2 LT PUSH8 0xFFFFFFFFFFFFFFFF DUP3 GT OR PUSH2 0x402 JUMPI PUSH1 0x40 MSTORE JUMP JUMPDEST SWAP1 PUSH1 0x1F DUP1 NOT SWAP2 ADD AND DUP2 ADD SWAP1 DUP2 LT PUSH8 0xFFFFFFFFFFFFFFFF DUP3 GT OR PUSH2 0x402 JUMPI PUSH1 0x40 MSTORE JUMP JUMPDEST SWAP1 PUSH1 0x40 MLOAD SWAP2 DUP3 PUSH1 0x0 DUP3 SLOAD SWAP3 PUSH2 0x46A DUP5 PUSH2 0x3AC JUMP JUMPDEST SWAP1 DUP2 DUP5 MSTORE PUSH1 0x1 SWAP5 DUP6 DUP2 AND SWAP1 DUP2 PUSH1 0x0 EQ PUSH2 0x4D9 JUMPI POP PUSH1 0x1 EQ PUSH2 0x496 JUMPI JUMPDEST POP POP PUSH2 0x494 SWAP3 POP SUB DUP4 PUSH2 0x434 JUMP JUMPDEST JUMP JUMPDEST SWAP1 SWAP4 SWAP2 POP PUSH1 0x0 MSTORE PUSH1 0x20 SWAP1 DUP2 PUSH1 0x0 KECCAK256 SWAP4 PUSH1 0x0 SWAP2 JUMPDEST DUP2 DUP4 LT PUSH2 0x4C1 JUMPI POP POP PUSH2 0x494 SWAP4 POP DUP3 ADD ADD CODESIZE DUP1 PUSH2 0x486 JUMP JUMPDEST DUP6 SLOAD DUP9 DUP5 ADD DUP6 ADD MSTORE SWAP5 DUP6 ADD SWAP5 DUP8 SWAP5 POP SWAP2 DUP4 ADD SWAP2 PUSH2 0x4A9 JUMP JUMPDEST SWAP2 POP POP PUSH2 0x494 SWAP5 POP PUSH1 0x20 SWAP3 POP PUSH1 0xFF NOT AND DUP3 DUP5 ADD MSTORE ISZERO ISZERO PUSH1 0x5 SHL DUP3 ADD ADD CODESIZE DUP1 PUSH2 0x486 JUMP JUMPDEST PUSH1 0x20 DUP1 DUP3 MSTORE DUP3 MLOAD DUP2 DUP4 ADD DUP2 SWAP1 MSTORE SWAP1 SWAP4 SWAP3 PUSH1 0x0 JUMPDEST DUP3 DUP2 LT PUSH2 0x531 JUMPI POP POP PUSH1 0x40 SWAP3 SWAP4 POP PUSH1 0x0 DUP4 DUP3 DUP5 ADD ADD MSTORE PUSH1 0x1F DUP1 NOT SWAP2 ADD AND ADD ADD SWAP1 JUMP JUMPDEST DUP2 DUP2 ADD DUP7 ADD MLOAD DUP5 DUP3 ADD PUSH1 0x40 ADD MSTORE DUP6 ADD PUSH2 0x50F JUMP JUMPDEST SWAP1 PUSH1 0x40 PUSH1 0x3 NOT DUP4 ADD SLT PUSH2 0x3A7 JUMPI PUSH1 0x4 CALLDATALOAD PUSH1 0x1 PUSH1 0x1 PUSH1 0xA0 SHL SUB DUP2 AND DUP2 SUB PUSH2 0x3A7 JUMPI SWAP2 PUSH8 0xFFFFFFFFFFFFFFFF PUSH1 0x24 CALLDATALOAD DUP2 DUP2 GT PUSH2 0x3A7 JUMPI DUP3 PUSH1 0x23 DUP3 ADD SLT ISZERO PUSH2 0x3A7 JUMPI DUP1 PUSH1 0x4 ADD CALLDATALOAD SWAP2 DUP3 GT PUSH2 0x402 JUMPI PUSH1 0x40 MLOAD SWAP3 PUSH2 0x5A8 PUSH1 0x1F DUP5 ADD PUSH1 0x1F NOT AND PUSH1 0x20 ADD DUP6 PUSH2 0x434 JUMP JUMPDEST DUP3 DUP5 MSTORE PUSH1 0x24 DUP4 DUP4 ADD ADD GT PUSH2 0x3A7 JUMPI DUP2 PUSH1 0x0 SWAP3 PUSH1 0x24 PUSH1 0x20 SWAP4 ADD DUP4 DUP7 ADD CALLDATACOPY DUP4 ADD ADD MSTORE SWAP1 JUMP JUMPDEST PUSH1 0x40 SWAP1 DUP2 MLOAD SWAP2 PUSH2 0x5DA DUP4 PUSH2 0x3E6 JUMP JUMPDEST PUSH1 0x0 SWAP2 DUP3 DUP5 MSTORE DUP3 DUP3 PUSH1 0x20 SWAP6 DUP3 DUP8 DUP3 ADD MSTORE ADD MSTORE PUSH1 0x1 DUP1 PUSH1 0xA0 SHL SUB AND DUP3 MSTORE DUP2 DUP4 MSTORE PUSH2 0x604 DUP2 DUP4 KECCAK256 PUSH2 0x456 JUMP JUMPDEST DUP1 MLOAD ISZERO PUSH2 0x766 JUMPI DUP1 MLOAD SWAP1 PUSH32 0xDF1BC121578AE56F6DC11A313FE95038647C2DF7329BEFECFAB9EE74A1F0ED42 DUP6 DUP3 ADD SWAP3 DUP4 KECCAK256 PUSH11 0x416E6369656E74204F6E65 PUSH1 0xA8 SHL DUP8 DUP7 MLOAD PUSH2 0x650 DUP2 PUSH2 0x418 JUMP JUMPDEST PUSH1 0xB DUP2 MSTORE ADD MSTORE EQ PUSH2 0x744 JUMPI PUSH32 0xF4CA62760601AB0F07B42F747C9E5DC6DF32BAE8D8252B33F626DE9D2D0D36BF DUP2 MLOAD DUP4 KECCAK256 PUSH5 0x5768616C65 PUSH1 0xD8 SHL DUP8 DUP7 MLOAD PUSH2 0x695 DUP2 PUSH2 0x418 JUMP JUMPDEST PUSH1 0x5 DUP2 MSTORE ADD MSTORE EQ PUSH2 0x722 JUMPI SWAP1 PUSH32 0x352837AFE4672D70D0D70CB4B09F66E583C8ABFBB40FF25FBFA6FEFC287234ED SWAP2 MLOAD SWAP1 KECCAK256 PUSH11 0x10DB19585B8814DA19595D PUSH1 0xAA SHL DUP6 DUP5 MLOAD PUSH2 0x6E1 DUP2 PUSH2 0x418 JUMP JUMPDEST PUSH1 0xB DUP2 MSTORE ADD MSTORE EQ PUSH2 0x707 JUMPI PUSH1 0xA DUP2 MLOAD SWAP4 PUSH2 0x6FA DUP6 PUSH2 0x3E6 JUMP JUMPDEST PUSH1 0x4B DUP6 MSTORE DUP5 ADD MSTORE DUP3 ADD MSTORE SWAP1 JUMP JUMPDEST PUSH1 0xA DUP2 MLOAD SWAP4 PUSH2 0x715 DUP6 PUSH2 0x3E6 JUMP JUMPDEST PUSH1 0x4D DUP6 MSTORE DUP5 ADD MSTORE DUP3 ADD MSTORE SWAP1 JUMP JUMPDEST POP POP PUSH2 0x708 SWAP2 POP PUSH1 0x5 DUP2 MLOAD SWAP4 PUSH2 0x737 DUP6 PUSH2 0x3E6 JUMP JUMPDEST PUSH1 0x52 DUP6 MSTORE DUP5 ADD MSTORE DUP3 ADD MSTORE SWAP1 JUMP JUMPDEST POP POP PUSH2 0x384 SWAP2 POP PUSH1 0x8 DUP2 MLOAD SWAP4 PUSH2 0x759 DUP6 PUSH2 0x3E6 JUMP JUMPDEST PUSH1 0x50 DUP6 MSTORE DUP5 ADD MSTORE DUP3 ADD MSTORE SWAP1 JUMP JUMPDEST POP PUSH1 0xA DUP2 MLOAD SWAP4 PUSH2 0x6FA DUP6 PUSH2 0x3E6 JUMP INVALID LOG2 PUSH5 0x6970667358 0x22 SLT KECCAK256 0xFC SDIV 0xC7 0xD7 0xAC 0xE7 0xC6 PUSH20 0x3C5ABE2F7E51D98BE52B15A4BFFF5E7CAA4F93D8 SMOD SWAP9 0xC4 CALLCODE PUSH5 0x736F6C6343 STOP ADDMOD EQ STOP CALLER "},"methodIdentifiers":{"getRiskParameters(address)":"82f01c85","reverseNameOf(address)":"bebec6b4","setMockBadge(address,string)":"856e610f","setMockName(address,string)":"87b55885","userBadges(address)":"f5474e12","userNames(address)":"7f281635"}}}}}