{"contracts/mocks/MockOracle.sol":{"MockOracle":{"abi":[{"inputs":[{"internalType":"address","name":"","type":"address"}],"name":"getLatestPrice","outputs":[{"internalType":"uint256","name":"","type":"uint256"}],"stateMutability":"view","type":"function"},{"inputs":[],"name":"getRiskScore","outputs":[{"internalType":"uint256","name":"","type":"uint256"}],"stateMutability":"view","type":"function"},{"inputs":[],"name":"price","outputs":[{"internalType":"uint256","name":"","type":"uint256"}],"stateMutability":"view","type":"function"},{"inputs":[],"name":"risk","outputs":[{"internalType":"uint256","name":"","type":"uint256"}],"stateMutability":"view","type":"function"},{"inputs":[{"internalType":"uint256","name":"_price","type":"uint256"}],"name":"setPrice","outputs":[],"stateMutability":"nonpayable","type":"function"},{"inputs":[{"internalType":"uint256","name":"_risk","type":"uint256"}],"name":"setRisk","outputs":[],"stateMutability":"nonpayable","type":"function"}],"evm":{"bytecode":{"linkReferences":{},"object":"608080604052346100285768878678326eac900000600055600060015561012a908161002e8239f35b600080fdfe6080806040526004361015601257600080fd5b600090813560e01c90816316345f181460c6575080632b35f7391460aa578063426a0c881460aa57806391b7f5ed146092578063a035b1fe1460775763eeb1191a14605c57600080fd5b34607457602036600319011260745760043560015580f35b80fd5b50346074578060031936011260745760209054604051908152f35b50346074576020366003190112607457600435815580f35b5034607457806003193601126074576020600154604051908152f35b90503460f057602036600319011260f0576004356001600160a01b0381160360f057602091548152f35b5080fdfea2646970667358221220d7e4d6a2b4a6d4afdc96a0fda18f54d8fa1a3f217c12823fbe625496d70778de64736f6c63430008140033","opcodes":"PUSH1 0x80 DUP1 PUSH1 0x40 MSTORE CALLVALUE PUSH2 0x28 JUMPI PUSH9 0x878678326EAC900000 PUSH1 0x0 SSTORE PUSH1 0x0 PUSH1 0x1 SSTORE PUSH2 0x12A SWAP1 DUP2 PUSH2 0x2E DUP3 CODECOPY RETURN JUMPDEST PUSH1 0x0 DUP1 REVERT INVALID PUSH1 0x80 DUP1 PUSH1 0x40 MSTORE PUSH1 0x4 CALLDATASIZE LT ISZERO PUSH1 0x12 JUMPI PUSH1 0x0 DUP1 REVERT JUMPDEST PUSH1 0x0 SWAP1 DUP2 CALLDATALOAD PUSH1 0xE0 SHR SWAP1 DUP2 PUSH4 0x16345F18 EQ PUSH1 0xC6 JUMPI POP DUP1 PUSH4 0x2B35F739 EQ PUSH1 0xAA JUMPI DUP1 PUSH4 0x426A0C88 EQ PUSH1 0xAA JUMPI DUP1 PUSH4 0x91B7F5ED EQ PUSH1 0x92 JUMPI DUP1 PUSH4 0xA035B1FE EQ PUSH1 0x77 JUMPI PUSH4 0xEEB1191A EQ PUSH1 0x5C JUMPI PUSH1 0x0 DUP1 REVERT JUMPDEST CALLVALUE PUSH1 0x74 JUMPI PUSH1 0x20 CALLDATASIZE PUSH1 0x3 NOT ADD SLT PUSH1 0x74 JUMPI PUSH1 0x4 CALLDATALOAD PUSH1 0x1 SSTORE DUP1 RETURN JUMPDEST DUP1 REVERT JUMPDEST POP CALLVALUE PUSH1 0x74 JUMPI DUP1 PUSH1 0x3 NOT CALLDATASIZE ADD SLT PUSH1 0x74 JUMPI PUSH1 0x20 SWAP1 SLOAD PUSH1 0x40 MLOAD SWAP1 DUP2 MSTORE RETURN JUMPDEST POP CALLVALUE PUSH1 0x74 JUMPI PUSH1 0x20 CALLDATASIZE PUSH1 0x3 NOT ADD SLT PUSH1 0x74 JUMPI PUSH1 0x4 CALLDATALOAD DUP2 SSTORE DUP1 RETURN JUMPDEST POP CALLVALUE PUSH1 0x74 JUMPI DUP1 PUSH1 0x3 NOT CALLDATASIZE ADD SLT PUSH1 0x74 JUMPI PUSH1 0x20 PUSH1 0x1 SLOAD PUSH1 0x40 MLOAD SWAP1 DUP2 MSTORE RETURN JUMPDEST SWAP1 POP CALLVALUE PUSH1 0xF0 JUMPI PUSH1 0x20 CALLDATASIZE PUSH1 0x3 NOT ADD SLT PUSH1 0xF0 JUMPI PUSH1 0x4 CALLDATALOAD PUSH1 0x1 PUSH1 0x1 PUSH1 0xA0 SHL SUB DUP2 AND SUB PUSH1 0xF0 JUMPI PUSH1 0x20 SWAP2 SLOAD DUP2 MSTORE RETURN JUMPDEST POP DUP1 REVERT INVALID LOG2 PUSH5 0x6970667358 0x22 SLT KECCAK256 0xD7 0xE4 0xD6 LOG2 0xB4 0xA6 0xD4 0xAF 0xDC SWAP7 LOG0 REVERT LOG1 DUP16 SLOAD 0xD8 STATICCALL BYTE EXTCODEHASH 0x21 PUSH29 0x12823FBE625496D70778DE64736F6C6343000814003300000000000000 "},"methodIdentifiers":{"getLatestPrice(address)":"16345f18","getRiskScore()":"2b35f739","price()":"a035b1fe","risk()":"426a0c88","setPrice(uint256)":"91b7f5ed","setRisk(uint256)":"eeb1191a"}}}}}