{"contracts/core/BackstopPool.sol":{"BackstopPool":{"abi":[{"inputs":[{"internalType":"address","name":"_usdcToken","type":"address"},{"internalType":"address","name":"_cowSwap","type":"address"},{"internalType":"address","name":"_identityRegistry","type":"address"}],"stateMutability":"nonpayable","type":"constructor"},{"inputs":[],"name":"ReentrancyGuardReentrantCall","type":"error"},{"anonymous":false,"inputs":[{"indexed":true,"internalType":"address","name":"borrower","type":"address"},{"indexed":false,"internalType":"uint256","name":"collateralAmount","type":"uint256"},{"indexed":false,"internalType":"uint256","name":"debtAbsorbed","type":"uint256"}],"name":"CollateralSeized","type":"event"},{"anonymous":false,"inputs":[{"indexed":true,"internalType":"address","name":"borrower","type":"address"},{"indexed":false,"internalType":"uint256","name":"amount","type":"uint256"}],"name":"DarkPoolRouteActive","type":"event"},{"anonymous":false,"inputs":[{"indexed":true,"internalType":"address","name":"borrower","type":"address"},{"indexed":false,"internalType":"uint256","name":"timestamp","type":"uint256"}],"name":"ProbationStarted","type":"event"},{"inputs":[{"internalType":"address","name":"borrower","type":"address"},{"internalType":"uint256","name":"collateralAmount","type":"uint256"},{"internalType":"uint256","name":"debtAmount","type":"uint256"}],"name":"absorbPosition","outputs":[],"stateMutability":"nonpayable","type":"function"},{"inputs":[],"name":"aegisCore","outputs":[{"internalType":"address","name":"","type":"address"}],"stateMutability":"view","type":"function"},{"inputs":[],"name":"cowSwap","outputs":[{"internalType":"contract ICoWSwap","name":"","type":"address"}],"stateMutability":"view","type":"function"},{"inputs":[],"name":"identityRegistry","outputs":[{"internalType":"contract IUnstoppable","name":"","type":"address"}],"stateMutability":"view","type":"function"},{"inputs":[{"internalType":"bytes32","name":"_hash","type":"bytes32"},{"internalType":"bytes","name":"_signature","type":"bytes"}],"name":"isValidSignature","outputs":[{"internalType":"bytes4","name":"","type":"bytes4"}],"stateMutability":"view","type":"function"},{"inputs":[{"internalType":"address","name":"","type":"address"}],"name":"probationStart","outputs":[{"internalType":"uint256","name":"","type":"uint256"}],"stateMutability":"view","type":"function"},{"inputs":[{"internalType":"address","name":"_aegisCore","type":"address"}],"name":"setAegisCore","outputs":[],"stateMutability":"nonpayable","type":"function"},{"inputs":[{"internalType":"address","name":"borrower","type":"address"}],"name":"triggerProbation","outputs":[],"stateMutability":"nonpayable","type":"function"},{"inputs":[],"name":"usdcToken","outputs":[{"internalType":"contract IERC20","name":"","type":"address"}],"stateMutability":"view","type":"function"}],"evm":{"bytecode":{"linkReferences":{},"object":"6080346100a557601f610ba438819003918201601f19168301916001600160401b038311848410176100aa578084926060946040528339810103126100a557610047816100c0565b906100606040610059602084016100c0565b92016100c0565b600160005560018060a01b0380928160018060a01b031995168560025416176002551683600354161760035516906004541617600455604051610acf90816100d58239f35b600080fd5b634e487b7160e01b600052604160045260246000fd5b51906001600160a01b03821682036100a55756fe608060408181526004908136101561001657600080fd5b600092833560e01c90816311eac8551461088a57508063134e18f4146108625780631626ba7e146107e957806349bb4eda146107c05780635370307c14610788578063653a91231461075b578063bd9aa77c146106db578063f004ea9d146104655763f02ae5f21461008757600080fd5b346102bf5760603660031901126102bf576100a061091f565b90602492833590604490813591600288541461045657600288556001546001600160a01b039290831633036104065782606081835416988a8951809481936382f01c8560e01b8352169b8c878301525afa9081156103fc578a916103ce575b5080518087029087820414871517156103bc576064860290868204606414871517156103aa57101561036957860180516102d4575b5088836002541693875180956370a0823160e01b82523085830152818c60209889935afa9081156102ca579087918491610295575b501061020d579184939161dead9360025416878a519c8d96879563a9059cbb60e01b87528601528401525af1958615610203577f6f23af14d6a710456375aa91b4f1fcced2632f9c42da2fb1825440b70b20ab1495966101d6575b508351928352820152a25b6001815580f35b6101f590823d84116101fc575b6101ed81836108e1565b810190610a81565b50386101c4565b503d6101e3565b84513d89823e3d90fd5b849795509080939291600354168787519b8c96879563164bc5cd60e31b87528601528401525af194851561028b577fa512f48cf7edcf071e05fffa47294d8e203bb3a8fc426d47e9308bfaf2de6651949561026e575b5051908152a26101cf565b61028490843d86116101fc576101ed81836108e1565b5038610263565b81513d88823e3d90fd5b809250878092503d83116102c3575b6102ae81836108e1565b810103126102bf5786905138610169565b8280fd5b503d6102a4565b89513d85823e3d90fd5b878a526005602052868a205490811561033057516102f1916109a3565b4211156102fe5738610134565b6e125b8811dc9858d94814195c9a5bd9608a1b606492600f8a60208a519562461bcd60e51b8752860152840152820152fd5b875162461bcd60e51b81526020818501526015818c015274141c9bd8985d1a5bdb881b9bdd081cdd185c9d1959605a1b81860152606490fd5b507f5573657220697320536f6c7661626c6520284846203e3d20312e302900000000606492601c8a60208a519562461bcd60e51b8752860152840152820152fd5b634e487b7160e01b8c52601184528a8cfd5b634e487b7160e01b8b5260118352898bfd5b6103ef915060603d81116103f5575b6103e781836108e1565b81019061093a565b386100ff565b503d6103dd565b87513d8c823e3d90fd5b7f4f6e6c7920416567697320436f72652063616e20696e6974696174652061627360849260278a60208a519562461bcd60e51b87528601528401528201526637b9383a34b7b760c91b6064820152fd5b508351633ee5aeb560e01b8152fd5b50346102bf57602090816003193601126106d75761048161091f565b83548251632fafb1ad60e21b815233818701526001600160a01b0391821695929087816024818a5afa9081156106cd578891610634575b506104de85516104c7816108af565b60058152641859d95b9d60da1b88820152826109d7565b908115610607575b50156105c45760609060248551809481936382f01c8560e01b8352169889878301525afa9081156105ba57908391879161059c575b5001511561055b5750907f26cebf317338e2cf649fcda3377df64eba66cfff88183b6e6af43e6ab676405c9183855260058252428186205551428152a280f35b82606492519162461bcd60e51b8352820152601860248201527f4e6f20677261636520706572696f6420666f72207573657200000000000000006044820152fd5b6105b4915060603d81116103f5576103e781836108e1565b3861051b565b83513d88823e3d90fd5b835162461bcd60e51b8152808401869052601e60248201527f43616c6c6572206973206e6f742061205665726966696564204167656e7400006044820152606490fd5b61062e9150855190610618826108af565b60058252641059d95b9d60da1b888301526109d7565b386104e6565b90503d8089833e61064581836108e1565b81019086818303126106c95780519067ffffffffffffffff82116106c5570181601f820112156106c95780519061067b82610903565b92610688885194856108e1565b8284528883830101116106c55789918891835b8281106106ae57505083010152386104b8565b8181018401518682018501528c94508a930161069b565b8980fd5b8880fd5b85513d8a823e3d90fd5b8380fd5b50346102bf5760203660031901126102bf576106f561091f565b600154926001600160a01b039283851661072557505016906bffffffffffffffffffffffff60a01b161760015580f35b906020606492519162461bcd60e51b8352820152601060248201526f10dbdc9948185b1c9958591e481cd95d60821b6044820152fd5b83823461078457816003193601126107845760035490516001600160a01b039091168152602090f35b5080fd5b8382346107845760203660031901126107845760209181906001600160a01b036107b061091f565b1681526005845220549051908152f35b83823461078457816003193601126107845760015490516001600160a01b039091168152602090f35b50823461085f578160031936011261085f576024359267ffffffffffffffff841161078457366023850112156107845783013561082581610903565b93610832845195866108e1565b81855236602483830101116102bf57906020948160248794018483013701015251630b135d3f60e11b8152f35b80fd5b5090346102bf57826003193601126102bf575490516001600160a01b03909116815260209150f35b8490346107845781600319360112610784576002546001600160a01b03168152602090f35b6040810190811067ffffffffffffffff8211176108cb57604052565b634e487b7160e01b600052604160045260246000fd5b90601f8019910116810190811067ffffffffffffffff8211176108cb57604052565b67ffffffffffffffff81116108cb57601f01601f191660200190565b600435906001600160a01b038216820361093557565b600080fd5b908160609103126109355760405190606082019082821067ffffffffffffffff8311176108cb57604091825280518352602081015160208401520151604082015290565b600019811461098d5760010190565b634e487b7160e01b600052601160045260246000fd5b9190820180921161098d57565b9081518110156109c1570160200190565b634e487b7160e01b600052603260045260246000fd5b908051825110610a7a576000905b82518151810390811161098d578211610a725760019260005b8251811015610a68576001600160f81b031980610a24610a1e84886109a3565b856109b0565b511690610a3183866109b0565b511603610a4657610a419061097e565b6109fe565b5092509060005b610a6057610a5a9061097e565b906109e5565b505050600190565b5092919091610a4d565b505050600090565b5050600090565b9081602091031261093557518015158103610935579056fea2646970667358221220c649b58af1fd157f1ad69bdba35982581b479df2de57acd62d7a1cd8268345cf64736f6c63430008140033","opcodes":"PUSH1 0x80 CALLVALUE PUSH2 0xA5 JUMPI PUSH1 0x1F PUSH2 0xBA4 CODESIZE DUP2 SWAP1 SUB SWAP2 DUP3 ADD PUSH1 0x1F NOT AND DUP4 ADD SWAP2 PUSH1 0x1 PUSH1 0x1 PUSH1 0x40 SHL SUB DUP4 GT DUP5 DUP5 LT OR PUSH2 0xAA JUMPI DUP1 DUP5 SWAP3 PUSH1 0x60 SWAP5 PUSH1 0x40 MSTORE DUP4 CODECOPY DUP2 ADD SUB SLT PUSH2 0xA5 JUMPI PUSH2 0x47 DUP2 PUSH2 0xC0 JUMP JUMPDEST SWAP1 PUSH2 0x60 PUSH1 0x40 PUSH2 0x59 PUSH1 0x20 DUP5 ADD PUSH2 0xC0 JUMP JUMPDEST SWAP3 ADD PUSH2 0xC0 JUMP JUMPDEST PUSH1 0x1 PUSH1 0x0 SSTORE PUSH1 0x1 DUP1 PUSH1 0xA0 SHL SUB DUP1 SWAP3 DUP2 PUSH1 0x1 DUP1 PUSH1 0xA0 SHL SUB NOT SWAP6 AND DUP6 PUSH1 0x2 SLOAD AND OR PUSH1 0x2 SSTORE AND DUP4 PUSH1 0x3 SLOAD AND OR PUSH1 0x3 SSTORE AND SWAP1 PUSH1 0x4 SLOAD AND OR PUSH1 0x4 SSTORE PUSH1 0x40 MLOAD PUSH2 0xACF SWAP1 DUP2 PUSH2 0xD5 DUP3 CODECOPY RETURN JUMPDEST PUSH1 0x0 DUP1 REVERT JUMPDEST PUSH4 0x4E487B71 PUSH1 0xE0 SHL PUSH1 0x0 MSTORE PUSH1 0x41 PUSH1 0x4 MSTORE PUSH1 0x24 PUSH1 0x0 REVERT JUMPDEST MLOAD SWAP1 PUSH1 0x1 PUSH1 0x1 PUSH1 0xA0 SHL SUB DUP3 AND DUP3 SUB PUSH2 0xA5 JUMPI JUMP INVALID PUSH1 0x80 PUSH1 0x40 DUP2 DUP2 MSTORE PUSH1 0x4 SWAP1 DUP2 CALLDATASIZE LT ISZERO PUSH2 0x16 JUMPI PUSH1 0x0 DUP1 REVERT JUMPDEST PUSH1 0x0 SWAP3 DUP4 CALLDATALOAD PUSH1 0xE0 SHR SWAP1 DUP2 PUSH4 0x11EAC855 EQ PUSH2 0x88A JUMPI POP DUP1 PUSH4 0x134E18F4 EQ PUSH2 0x862 JUMPI DUP1 PUSH4 0x1626BA7E EQ PUSH2 0x7E9 JUMPI DUP1 PUSH4 0x49BB4EDA EQ PUSH2 0x7C0 JUMPI DUP1 PUSH4 0x5370307C EQ PUSH2 0x788 JUMPI DUP1 PUSH4 0x653A9123 EQ PUSH2 0x75B JUMPI DUP1 PUSH4 0xBD9AA77C EQ PUSH2 0x6DB JUMPI DUP1 PUSH4 0xF004EA9D EQ PUSH2 0x465 JUMPI PUSH4 0xF02AE5F2 EQ PUSH2 0x87 JUMPI PUSH1 0x0 DUP1 REVERT JUMPDEST CALLVALUE PUSH2 0x2BF JUMPI PUSH1 0x60 CALLDATASIZE PUSH1 0x3 NOT ADD SLT PUSH2 0x2BF JUMPI PUSH2 0xA0 PUSH2 0x91F JUMP JUMPDEST SWAP1 PUSH1 0x24 SWAP3 DUP4 CALLDATALOAD SWAP1 PUSH1 0x44 SWAP1 DUP2 CALLDATALOAD SWAP2 PUSH1 0x2 DUP9 SLOAD EQ PUSH2 0x456 JUMPI PUSH1 0x2 DUP9 SSTORE PUSH1 0x1 SLOAD PUSH1 0x1 PUSH1 0x1 PUSH1 0xA0 SHL SUB SWAP3 SWAP1 DUP4 AND CALLER SUB PUSH2 0x406 JUMPI DUP3 PUSH1 0x60 DUP2 DUP4 SLOAD AND SWAP9 DUP11 DUP10 MLOAD DUP1 SWAP5 DUP2 SWAP4 PUSH4 0x82F01C85 PUSH1 0xE0 SHL DUP4 MSTORE AND SWAP12 DUP13 DUP8 DUP4 ADD MSTORE GAS STATICCALL SWAP1 DUP2 ISZERO PUSH2 0x3FC JUMPI DUP11 SWAP2 PUSH2 0x3CE JUMPI JUMPDEST POP DUP1 MLOAD DUP1 DUP8 MUL SWAP1 DUP8 DUP3 DIV EQ DUP8 ISZERO OR ISZERO PUSH2 0x3BC JUMPI PUSH1 0x64 DUP7 MUL SWAP1 DUP7 DUP3 DIV PUSH1 0x64 EQ DUP8 ISZERO OR ISZERO PUSH2 0x3AA JUMPI LT ISZERO PUSH2 0x369 JUMPI DUP7 ADD DUP1 MLOAD PUSH2 0x2D4 JUMPI JUMPDEST POP DUP9 DUP4 PUSH1 0x2 SLOAD AND SWAP4 DUP8 MLOAD DUP1 SWAP6 PUSH4 0x70A08231 PUSH1 0xE0 SHL DUP3 MSTORE ADDRESS DUP6 DUP4 ADD MSTORE DUP2 DUP13 PUSH1 0x20 SWAP9 DUP10 SWAP4 GAS STATICCALL SWAP1 DUP2 ISZERO PUSH2 0x2CA JUMPI SWAP1 DUP8 SWAP2 DUP5 SWAP2 PUSH2 0x295 JUMPI JUMPDEST POP LT PUSH2 0x20D JUMPI SWAP2 DUP5 SWAP4 SWAP2 PUSH2 0xDEAD SWAP4 PUSH1 0x2 SLOAD AND DUP8 DUP11 MLOAD SWAP13 DUP14 SWAP7 DUP8 SWAP6 PUSH4 0xA9059CBB PUSH1 0xE0 SHL DUP8 MSTORE DUP7 ADD MSTORE DUP5 ADD MSTORE GAS CALL SWAP6 DUP7 ISZERO PUSH2 0x203 JUMPI PUSH32 0x6F23AF14D6A710456375AA91B4F1FCCED2632F9C42DA2FB1825440B70B20AB14 SWAP6 SWAP7 PUSH2 0x1D6 JUMPI JUMPDEST POP DUP4 MLOAD SWAP3 DUP4 MSTORE DUP3 ADD MSTORE LOG2 JUMPDEST PUSH1 0x1 DUP2 SSTORE DUP1 RETURN JUMPDEST PUSH2 0x1F5 SWAP1 DUP3 RETURNDATASIZE DUP5 GT PUSH2 0x1FC JUMPI JUMPDEST PUSH2 0x1ED DUP2 DUP4 PUSH2 0x8E1 JUMP JUMPDEST DUP2 ADD SWAP1 PUSH2 0xA81 JUMP JUMPDEST POP CODESIZE PUSH2 0x1C4 JUMP JUMPDEST POP RETURNDATASIZE PUSH2 0x1E3 JUMP JUMPDEST DUP5 MLOAD RETURNDATASIZE DUP10 DUP3 RETURNDATACOPY RETURNDATASIZE SWAP1 REVERT JUMPDEST DUP5 SWAP8 SWAP6 POP SWAP1 DUP1 SWAP4 SWAP3 SWAP2 PUSH1 0x3 SLOAD AND DUP8 DUP8 MLOAD SWAP12 DUP13 SWAP7 DUP8 SWAP6 PUSH4 0x164BC5CD PUSH1 0xE3 SHL DUP8 MSTORE DUP7 ADD MSTORE DUP5 ADD MSTORE GAS CALL SWAP5 DUP6 ISZERO PUSH2 0x28B JUMPI PUSH32 0xA512F48CF7EDCF071E05FFFA47294D8E203BB3A8FC426D47E9308BFAF2DE6651 SWAP5 SWAP6 PUSH2 0x26E JUMPI JUMPDEST POP MLOAD SWAP1 DUP2 MSTORE LOG2 PUSH2 0x1CF JUMP JUMPDEST PUSH2 0x284 SWAP1 DUP5 RETURNDATASIZE DUP7 GT PUSH2 0x1FC JUMPI PUSH2 0x1ED DUP2 DUP4 PUSH2 0x8E1 JUMP JUMPDEST POP CODESIZE PUSH2 0x263 JUMP JUMPDEST DUP2 MLOAD RETURNDATASIZE DUP9 DUP3 RETURNDATACOPY RETURNDATASIZE SWAP1 REVERT JUMPDEST DUP1 SWAP3 POP DUP8 DUP1 SWAP3 POP RETURNDATASIZE DUP4 GT PUSH2 0x2C3 JUMPI JUMPDEST PUSH2 0x2AE DUP2 DUP4 PUSH2 0x8E1 JUMP JUMPDEST DUP2 ADD SUB SLT PUSH2 0x2BF JUMPI DUP7 SWAP1 MLOAD CODESIZE PUSH2 0x169 JUMP JUMPDEST DUP3 DUP1 REVERT JUMPDEST POP RETURNDATASIZE PUSH2 0x2A4 JUMP JUMPDEST DUP10 MLOAD RETURNDATASIZE DUP6 DUP3 RETURNDATACOPY RETURNDATASIZE SWAP1 REVERT JUMPDEST DUP8 DUP11 MSTORE PUSH1 0x5 PUSH1 0x20 MSTORE DUP7 DUP11 KECCAK256 SLOAD SWAP1 DUP2 ISZERO PUSH2 0x330 JUMPI MLOAD PUSH2 0x2F1 SWAP2 PUSH2 0x9A3 JUMP JUMPDEST TIMESTAMP GT ISZERO PUSH2 0x2FE JUMPI CODESIZE PUSH2 0x134 JUMP JUMPDEST PUSH15 0x125B8811DC9858D94814195C9A5BD9 PUSH1 0x8A SHL PUSH1 0x64 SWAP3 PUSH1 0xF DUP11 PUSH1 0x20 DUP11 MLOAD SWAP6 PUSH3 0x461BCD PUSH1 0xE5 SHL DUP8 MSTORE DUP7 ADD MSTORE DUP5 ADD MSTORE DUP3 ADD MSTORE REVERT JUMPDEST DUP8 MLOAD PUSH3 0x461BCD PUSH1 0xE5 SHL DUP2 MSTORE PUSH1 0x20 DUP2 DUP6 ADD MSTORE PUSH1 0x15 DUP2 DUP13 ADD MSTORE PUSH21 0x141C9BD8985D1A5BDB881B9BDD081CDD185C9D1959 PUSH1 0x5A SHL DUP2 DUP7 ADD MSTORE PUSH1 0x64 SWAP1 REVERT JUMPDEST POP PUSH32 0x5573657220697320536F6C7661626C6520284846203E3D20312E302900000000 PUSH1 0x64 SWAP3 PUSH1 0x1C DUP11 PUSH1 0x20 DUP11 MLOAD SWAP6 PUSH3 0x461BCD PUSH1 0xE5 SHL DUP8 MSTORE DUP7 ADD MSTORE DUP5 ADD MSTORE DUP3 ADD MSTORE REVERT JUMPDEST PUSH4 0x4E487B71 PUSH1 0xE0 SHL DUP13 MSTORE PUSH1 0x11 DUP5 MSTORE DUP11 DUP13 REVERT JUMPDEST PUSH4 0x4E487B71 PUSH1 0xE0 SHL DUP12 MSTORE PUSH1 0x11 DUP4 MSTORE DUP10 DUP12 REVERT JUMPDEST PUSH2 0x3EF SWAP2 POP PUSH1 0x60 RETURNDATASIZE DUP2 GT PUSH2 0x3F5 JUMPI JUMPDEST PUSH2 0x3E7 DUP2 DUP4 PUSH2 0x8E1 JUMP JUMPDEST DUP2 ADD SWAP1 PUSH2 0x93A JUMP JUMPDEST CODESIZE PUSH2 0xFF JUMP JUMPDEST POP RETURNDATASIZE PUSH2 0x3DD JUMP JUMPDEST DUP8 MLOAD RETURNDATASIZE DUP13 DUP3 RETURNDATACOPY RETURNDATASIZE SWAP1 REVERT JUMPDEST PUSH32 0x4F6E6C7920416567697320436F72652063616E20696E69746961746520616273 PUSH1 0x84 SWAP3 PUSH1 0x27 DUP11 PUSH1 0x20 DUP11 MLOAD SWAP6 PUSH3 0x461BCD PUSH1 0xE5 SHL DUP8 MSTORE DUP7 ADD MSTORE DUP5 ADD MSTORE DUP3 ADD MSTORE PUSH7 0x37B9383A34B7B7 PUSH1 0xC9 SHL PUSH1 0x64 DUP3 ADD MSTORE REVERT JUMPDEST POP DUP4 MLOAD PUSH4 0x3EE5AEB5 PUSH1 0xE0 SHL DUP2 MSTORE REVERT JUMPDEST POP CALLVALUE PUSH2 0x2BF JUMPI PUSH1 0x20 SWAP1 DUP2 PUSH1 0x3 NOT CALLDATASIZE ADD SLT PUSH2 0x6D7 JUMPI PUSH2 0x481 PUSH2 0x91F JUMP JUMPDEST DUP4 SLOAD DUP3 MLOAD PUSH4 0x2FAFB1AD PUSH1 0xE2 SHL DUP2 MSTORE CALLER DUP2 DUP8 ADD MSTORE PUSH1 0x1 PUSH1 0x1 PUSH1 0xA0 SHL SUB SWAP2 DUP3 AND SWAP6 SWAP3 SWAP1 DUP8 DUP2 PUSH1 0x24 DUP2 DUP11 GAS STATICCALL SWAP1 DUP2 ISZERO PUSH2 0x6CD JUMPI DUP9 SWAP2 PUSH2 0x634 JUMPI JUMPDEST POP PUSH2 0x4DE DUP6 MLOAD PUSH2 0x4C7 DUP2 PUSH2 0x8AF JUMP JUMPDEST PUSH1 0x5 DUP2 MSTORE PUSH5 0x1859D95B9D PUSH1 0xDA SHL DUP9 DUP3 ADD MSTORE DUP3 PUSH2 0x9D7 JUMP JUMPDEST SWAP1 DUP2 ISZERO PUSH2 0x607 JUMPI JUMPDEST POP ISZERO PUSH2 0x5C4 JUMPI PUSH1 0x60 SWAP1 PUSH1 0x24 DUP6 MLOAD DUP1 SWAP5 DUP2 SWAP4 PUSH4 0x82F01C85 PUSH1 0xE0 SHL DUP4 MSTORE AND SWAP9 DUP10 DUP8 DUP4 ADD MSTORE GAS STATICCALL SWAP1 DUP2 ISZERO PUSH2 0x5BA JUMPI SWAP1 DUP4 SWAP2 DUP8 SWAP2 PUSH2 0x59C JUMPI JUMPDEST POP ADD MLOAD ISZERO PUSH2 0x55B JUMPI POP SWAP1 PUSH32 0x26CEBF317338E2CF649FCDA3377DF64EBA66CFFF88183B6E6AF43E6AB676405C SWAP2 DUP4 DUP6 MSTORE PUSH1 0x5 DUP3 MSTORE TIMESTAMP DUP2 DUP7 KECCAK256 SSTORE MLOAD TIMESTAMP DUP2 MSTORE LOG2 DUP1 RETURN JUMPDEST DUP3 PUSH1 0x64 SWAP3 MLOAD SWAP2 PUSH3 0x461BCD PUSH1 0xE5 SHL DUP4 MSTORE DUP3 ADD MSTORE PUSH1 0x18 PUSH1 0x24 DUP3 ADD MSTORE PUSH32 0x4E6F20677261636520706572696F6420666F7220757365720000000000000000 PUSH1 0x44 DUP3 ADD MSTORE REVERT JUMPDEST PUSH2 0x5B4 SWAP2 POP PUSH1 0x60 RETURNDATASIZE DUP2 GT PUSH2 0x3F5 JUMPI PUSH2 0x3E7 DUP2 DUP4 PUSH2 0x8E1 JUMP JUMPDEST CODESIZE PUSH2 0x51B JUMP JUMPDEST DUP4 MLOAD RETURNDATASIZE DUP9 DUP3 RETURNDATACOPY RETURNDATASIZE SWAP1 REVERT JUMPDEST DUP4 MLOAD PUSH3 0x461BCD PUSH1 0xE5 SHL DUP2 MSTORE DUP1 DUP5 ADD DUP7 SWAP1 MSTORE PUSH1 0x1E PUSH1 0x24 DUP3 ADD MSTORE PUSH32 0x43616C6C6572206973206E6F742061205665726966696564204167656E740000 PUSH1 0x44 DUP3 ADD MSTORE PUSH1 0x64 SWAP1 REVERT JUMPDEST PUSH2 0x62E SWAP2 POP DUP6 MLOAD SWAP1 PUSH2 0x618 DUP3 PUSH2 0x8AF JUMP JUMPDEST PUSH1 0x5 DUP3 MSTORE PUSH5 0x1059D95B9D PUSH1 0xDA SHL DUP9 DUP4 ADD MSTORE PUSH2 0x9D7 JUMP JUMPDEST CODESIZE PUSH2 0x4E6 JUMP JUMPDEST SWAP1 POP RETURNDATASIZE DUP1 DUP10 DUP4 RETURNDATACOPY PUSH2 0x645 DUP2 DUP4 PUSH2 0x8E1 JUMP JUMPDEST DUP2 ADD SWAP1 DUP7 DUP2 DUP4 SUB SLT PUSH2 0x6C9 JUMPI DUP1 MLOAD SWAP1 PUSH8 0xFFFFFFFFFFFFFFFF DUP3 GT PUSH2 0x6C5 JUMPI ADD DUP2 PUSH1 0x1F DUP3 ADD SLT ISZERO PUSH2 0x6C9 JUMPI DUP1 MLOAD SWAP1 PUSH2 0x67B DUP3 PUSH2 0x903 JUMP JUMPDEST SWAP3 PUSH2 0x688 DUP9 MLOAD SWAP5 DUP6 PUSH2 0x8E1 JUMP JUMPDEST DUP3 DUP5 MSTORE DUP9 DUP4 DUP4 ADD ADD GT PUSH2 0x6C5 JUMPI DUP10 SWAP2 DUP9 SWAP2 DUP4 JUMPDEST DUP3 DUP2 LT PUSH2 0x6AE JUMPI POP POP DUP4 ADD ADD MSTORE CODESIZE PUSH2 0x4B8 JUMP JUMPDEST DUP2 DUP2 ADD DUP5 ADD MLOAD DUP7 DUP3 ADD DUP6 ADD MSTORE DUP13 SWAP5 POP DUP11 SWAP4 ADD PUSH2 0x69B JUMP JUMPDEST DUP10 DUP1 REVERT JUMPDEST DUP9 DUP1 REVERT JUMPDEST DUP6 MLOAD RETURNDATASIZE DUP11 DUP3 RETURNDATACOPY RETURNDATASIZE SWAP1 REVERT JUMPDEST DUP4 DUP1 REVERT JUMPDEST POP CALLVALUE PUSH2 0x2BF JUMPI PUSH1 0x20 CALLDATASIZE PUSH1 0x3 NOT ADD SLT PUSH2 0x2BF JUMPI PUSH2 0x6F5 PUSH2 0x91F JUMP JUMPDEST PUSH1 0x1 SLOAD SWAP3 PUSH1 0x1 PUSH1 0x1 PUSH1 0xA0 SHL SUB SWAP3 DUP4 DUP6 AND PUSH2 0x725 JUMPI POP POP AND SWAP1 PUSH12 0xFFFFFFFFFFFFFFFFFFFFFFFF PUSH1 0xA0 SHL AND OR PUSH1 0x1 SSTORE DUP1 RETURN JUMPDEST SWAP1 PUSH1 0x20 PUSH1 0x64 SWAP3 MLOAD SWAP2 PUSH3 0x461BCD PUSH1 0xE5 SHL DUP4 MSTORE DUP3 ADD MSTORE PUSH1 0x10 PUSH1 0x24 DUP3 ADD MSTORE PUSH16 0x10DBDC9948185B1C9958591E481CD95D PUSH1 0x82 SHL PUSH1 0x44 DUP3 ADD MSTORE REVERT JUMPDEST DUP4 DUP3 CALLVALUE PUSH2 0x784 JUMPI DUP2 PUSH1 0x3 NOT CALLDATASIZE ADD SLT PUSH2 0x784 JUMPI PUSH1 0x3 SLOAD SWAP1 MLOAD PUSH1 0x1 PUSH1 0x1 PUSH1 0xA0 SHL SUB SWAP1 SWAP2 AND DUP2 MSTORE PUSH1 0x20 SWAP1 RETURN JUMPDEST POP DUP1 REVERT JUMPDEST DUP4 DUP3 CALLVALUE PUSH2 0x784 JUMPI PUSH1 0x20 CALLDATASIZE PUSH1 0x3 NOT ADD SLT PUSH2 0x784 JUMPI PUSH1 0x20 SWAP2 DUP2 SWAP1 PUSH1 0x1 PUSH1 0x1 PUSH1 0xA0 SHL SUB PUSH2 0x7B0 PUSH2 0x91F JUMP JUMPDEST AND DUP2 MSTORE PUSH1 0x5 DUP5 MSTORE KECCAK256 SLOAD SWAP1 MLOAD SWAP1 DUP2 MSTORE RETURN JUMPDEST DUP4 DUP3 CALLVALUE PUSH2 0x784 JUMPI DUP2 PUSH1 0x3 NOT CALLDATASIZE ADD SLT PUSH2 0x784 JUMPI PUSH1 0x1 SLOAD SWAP1 MLOAD PUSH1 0x1 PUSH1 0x1 PUSH1 0xA0 SHL SUB SWAP1 SWAP2 AND DUP2 MSTORE PUSH1 0x20 SWAP1 RETURN JUMPDEST POP DUP3 CALLVALUE PUSH2 0x85F JUMPI DUP2 PUSH1 0x3 NOT CALLDATASIZE ADD SLT PUSH2 0x85F JUMPI PUSH1 0x24 CALLDATALOAD SWAP3 PUSH8 0xFFFFFFFFFFFFFFFF DUP5 GT PUSH2 0x784 JUMPI CALLDATASIZE PUSH1 0x23 DUP6 ADD SLT ISZERO PUSH2 0x784 JUMPI DUP4 ADD CALLDATALOAD PUSH2 0x825 DUP2 PUSH2 0x903 JUMP JUMPDEST SWAP4 PUSH2 0x832 DUP5 MLOAD SWAP6 DUP7 PUSH2 0x8E1 JUMP JUMPDEST DUP2 DUP6 MSTORE CALLDATASIZE PUSH1 0x24 DUP4 DUP4 ADD ADD GT PUSH2 0x2BF JUMPI SWAP1 PUSH1 0x20 SWAP5 DUP2 PUSH1 0x24 DUP8 SWAP5 ADD DUP5 DUP4 ADD CALLDATACOPY ADD ADD MSTORE MLOAD PUSH4 0xB135D3F PUSH1 0xE1 SHL DUP2 MSTORE RETURN JUMPDEST DUP1 REVERT JUMPDEST POP SWAP1 CALLVALUE PUSH2 0x2BF JUMPI DUP3 PUSH1 0x3 NOT CALLDATASIZE ADD SLT PUSH2 0x2BF JUMPI SLOAD SWAP1 MLOAD PUSH1 0x1 PUSH1 0x1 PUSH1 0xA0 SHL SUB SWAP1 SWAP2 AND DUP2 MSTORE PUSH1 0x20 SWAP2 POP RETURN JUMPDEST DUP5 SWAP1 CALLVALUE PUSH2 0x784 JUMPI DUP2 PUSH1 0x3 NOT CALLDATASIZE ADD SLT PUSH2 0x784 JUMPI PUSH1 0x2 SLOAD PUSH1 0x1 PUSH1 0x1 PUSH1 0xA0 SHL SUB AND DUP2 MSTORE PUSH1 0x20 SWAP1 RETURN JUMPDEST PUSH1 0x40 DUP2 ADD SWAP1 DUP2 LT PUSH8 0xFFFFFFFFFFFFFFFF DUP3 GT OR PUSH2 0x8CB JUMPI PUSH1 0x40 MSTORE JUMP JUMPDEST PUSH4 0x4E487B71 PUSH1 0xE0 SHL PUSH1 0x0 MSTORE PUSH1 0x41 PUSH1 0x4 MSTORE PUSH1 0x24 PUSH1 0x0 REVERT JUMPDEST SWAP1 PUSH1 0x1F DUP1 NOT SWAP2 ADD AND DUP2 ADD SWAP1 DUP2 LT PUSH8 0xFFFFFFFFFFFFFFFF DUP3 GT OR PUSH2 0x8CB JUMPI PUSH1 0x40 MSTORE JUMP JUMPDEST PUSH8 0xFFFFFFFFFFFFFFFF DUP2 GT PUSH2 0x8CB JUMPI PUSH1 0x1F ADD PUSH1 0x1F NOT AND PUSH1 0x20 ADD SWAP1 JUMP JUMPDEST PUSH1 0x4 CALLDATALOAD SWAP1 PUSH1 0x1 PUSH1 0x1 PUSH1 0xA0 SHL SUB DUP3 AND DUP3 SUB PUSH2 0x935 JUMPI JUMP JUMPDEST PUSH1 0x0 DUP1 REVERT JUMPDEST SWAP1 DUP2 PUSH1 0x60 SWAP2 SUB SLT PUSH2 0x935 JUMPI PUSH1 0x40 MLOAD SWAP1 PUSH1 0x60 DUP3 ADD SWAP1 DUP3 DUP3 LT PUSH8 0xFFFFFFFFFFFFFFFF DUP4 GT OR PUSH2 0x8CB JUMPI PUSH1 0x40 SWAP2 DUP3 MSTORE DUP1 MLOAD DUP4 MSTORE PUSH1 0x20 DUP2 ADD MLOAD PUSH1 0x20 DUP5 ADD MSTORE ADD MLOAD PUSH1 0x40 DUP3 ADD MSTORE SWAP1 JUMP JUMPDEST PUSH1 0x0 NOT DUP2 EQ PUSH2 0x98D JUMPI PUSH1 0x1 ADD SWAP1 JUMP JUMPDEST PUSH4 0x4E487B71 PUSH1 0xE0 SHL PUSH1 0x0 MSTORE PUSH1 0x11 PUSH1 0x4 MSTORE PUSH1 0x24 PUSH1 0x0 REVERT JUMPDEST SWAP2 SWAP1 DUP3 ADD DUP1 SWAP3 GT PUSH2 0x98D JUMPI JUMP JUMPDEST SWAP1 DUP2 MLOAD DUP2 LT ISZERO PUSH2 0x9C1 JUMPI ADD PUSH1 0x20 ADD SWAP1 JUMP JUMPDEST PUSH4 0x4E487B71 PUSH1 0xE0 SHL PUSH1 0x0 MSTORE PUSH1 0x32 PUSH1 0x4 MSTORE PUSH1 0x24 PUSH1 0x0 REVERT JUMPDEST SWAP1 DUP1 MLOAD DUP3 MLOAD LT PUSH2 0xA7A JUMPI PUSH1 0x0 SWAP1 JUMPDEST DUP3 MLOAD DUP2 MLOAD DUP2 SUB SWAP1 DUP2 GT PUSH2 0x98D JUMPI DUP3 GT PUSH2 0xA72 JUMPI PUSH1 0x1 SWAP3 PUSH1 0x0 JUMPDEST DUP3 MLOAD DUP2 LT ISZERO PUSH2 0xA68 JUMPI PUSH1 0x1 PUSH1 0x1 PUSH1 0xF8 SHL SUB NOT DUP1 PUSH2 0xA24 PUSH2 0xA1E DUP5 DUP9 PUSH2 0x9A3 JUMP JUMPDEST DUP6 PUSH2 0x9B0 JUMP JUMPDEST MLOAD AND SWAP1 PUSH2 0xA31 DUP4 DUP7 PUSH2 0x9B0 JUMP JUMPDEST MLOAD AND SUB PUSH2 0xA46 JUMPI PUSH2 0xA41 SWAP1 PUSH2 0x97E JUMP JUMPDEST PUSH2 0x9FE JUMP JUMPDEST POP SWAP3 POP SWAP1 PUSH1 0x0 JUMPDEST PUSH2 0xA60 JUMPI PUSH2 0xA5A SWAP1 PUSH2 0x97E JUMP JUMPDEST SWAP1 PUSH2 0x9E5 JUMP JUMPDEST POP POP POP PUSH1 0x1 SWAP1 JUMP JUMPDEST POP SWAP3 SWAP2 SWAP1 SWAP2 PUSH2 0xA4D JUMP JUMPDEST POP POP POP PUSH1 0x0 SWAP1 JUMP JUMPDEST POP POP PUSH1 0x0 SWAP1 JUMP JUMPDEST SWAP1 DUP2 PUSH1 0x20 SWAP2 SUB SLT PUSH2 0x935 JUMPI MLOAD DUP1 ISZERO ISZERO DUP2 SUB PUSH2 0x935 JUMPI SWAP1 JUMP INVALID LOG2 PUSH5 0x6970667358 0x22 SLT KECCAK256 0xC6 0x49 0xB5 DUP11 CALL REVERT ISZERO PUSH32 0x1AD69BDBA35982581B479DF2DE57ACD62D7A1CD8268345CF64736F6C63430008 EQ STOP CALLER "},"methodIdentifiers":{"absorbPosition(address,uint256,uint256)":"f02ae5f2","aegisCore()":"49bb4eda","cowSwap()":"653a9123","identityRegistry()":"134e18f4","isValidSignature(bytes32,bytes)":"1626ba7e","probationStart(address)":"5370307c","setAegisCore(address)":"bd9aa77c","triggerProbation(address)":"f004ea9d","usdcToken()":"11eac855"}}}}}