{"contracts/core/IdentityRegistry.sol":{"IdentityRegistry":{"abi":[{"inputs":[{"internalType":"address","name":"_udRegistry","type":"address"}],"stateMutability":"nonpayable","type":"constructor"},{"inputs":[{"internalType":"address","name":"user","type":"address"}],"name":"getRiskParameters","outputs":[{"components":[{"internalType":"uint256","name":"ltv","type":"uint256"},{"internalType":"uint256","name":"liquidationPenalty","type":"uint256"},{"internalType":"uint256","name":"gracePeriod","type":"uint256"}],"internalType":"struct IUnstoppable.RiskParams","name":"","type":"tuple"}],"stateMutability":"view","type":"function"},{"inputs":[{"internalType":"address","name":"user","type":"address"}],"name":"reverseNameOf","outputs":[{"internalType":"string","name":"","type":"string"}],"stateMutability":"view","type":"function"},{"inputs":[],"name":"udRegistry","outputs":[{"internalType":"contract IUDRegistry","name":"","type":"address"}],"stateMutability":"view","type":"function"}],"evm":{"bytecode":{"linkReferences":{},"object":"60803461007457601f61066c38819003918201601f19168301916001600160401b038311848410176100795780849260209460405283398101031261007457516001600160a01b0381169081900361007457600080546001600160a01b0319169190911790556040516105dc90816100908239f35b600080fd5b634e487b7160e01b600052604160045260246000fdfe6080604090808252600436101561001557600080fd5b600090813560e01c908163729c922e146100f85750806382f01c85146100a65763bebec6b41461004457600080fd5b346100a35760203660031901126100a357600435906001600160a01b03821682036100a357506100739061023c565b908051809260208252610095815180928160208601526020868601910161011c565b601f01601f19168101030190f35b80fd5b5090346100f45760203660031901126100f457600435916001600160a01b03831683036100a357506100d96060926102cc565b90808051928051845260208101516020850152015190820152f35b5080fd5b9050346100f457816003193601126100f45790546001600160a01b03168152602090f35b60005b83811061012f5750506000910152565b818101518382015260200161011f565b6060810190811067ffffffffffffffff82111761015b57604052565b634e487b7160e01b600052604160045260246000fd5b6020810190811067ffffffffffffffff82111761015b57604052565b6040810190811067ffffffffffffffff82111761015b57604052565b90601f8019910116810190811067ffffffffffffffff82111761015b57604052565b60208183031261023757805167ffffffffffffffff9182821161023757019082601f8301121561023757815190811161015b5760405192610216601f8301601f1916602001856101a9565b8184526020828401011161023757610234916020808501910161011c565b90565b600080fd5b60008054604051632fafb1ad60e21b81526001600160a01b0393841660048201529283916024918391165afa6000918161028a575b50610234575060405161028381610171565b6000815290565b6102a691923d8091833e61029e81836101a9565b8101906101cb565b9038610271565b604051906102ba8261013f565b60006040838281528260208201520152565b6102d46102ad565b506040908151906102e482610171565b60009182905281548351632fafb1ad60e21b81526001600160a01b03928316600482015291839183916024918391165afa829181610560575b5061032d5750505061023461057c565b9182516020809401206a616e6369656e742d6f6e6560a81b8483516103518161018d565b600b815201527f0b288947c05d037b20d8aa090b0ac398aee8349956132aed39d7e8fcd8807cd681148015610516575b6104f557647768616c6560d81b84835161039a8161018d565b6005815201527ff5d86c997aaf65164e90efe396b77695cd92cbe1d51296b16c486e23f5bcd710811480156104b1575b610490576a18db19585b8b5cda19595d60aa1b8483516103e98161018d565b600b815201527ff1846f38f2e8892da7f22aced9d539cadb76f6941a176e9e2f7ab08f4ea0ce2f8114908115610445575b5061042a5750505061023461057c565b600a8151936104388561013f565b604d855284015282015290565b7f352837afe4672d70d0d70cb4b09f66e583c8abfbb40ff25fbfa6fefc287234ed91506a10db19585b8814da19595d60aa1b8584516104838161018d565b600b81520152143861041a565b50610708915060058151936104a48561013f565b6052855284015282015290565b50645768616c6560d81b8483516104c78161018d565b6005815201527ff4ca62760601ab0f07b42f747c9e5dc6df32bae8d8252b33f626de9d2d0d36bf81146103ca565b50610384915060088151936105098561013f565b6050855284015282015290565b506a416e6369656e74204f6e6560a81b8483516105328161018d565b600b815201527fdf1bc121578ae56f6dc11a313fe95038647c2df7329befecfab9ee74a1f0ed428114610381565b6105759192503d8085833e61029e81836101a9565b903861031d565b6105846102ad565b506040516105918161013f565b604b8152600a6020820152600060408201529056fea264697066735822122079e2c44b259f93366c5f5cf3c0f3f12002d6a17db123fa8f4f5711b1facc001664736f6c63430008140033","opcodes":"PUSH1 0x80 CALLVALUE PUSH2 0x74 JUMPI PUSH1 0x1F PUSH2 0x66C CODESIZE DUP2 SWAP1 SUB SWAP2 DUP3 ADD PUSH1 0x1F NOT AND DUP4 ADD SWAP2 PUSH1 0x1 PUSH1 0x1 PUSH1 0x40 SHL SUB DUP4 GT DUP5 DUP5 LT OR PUSH2 0x79 JUMPI DUP1 DUP5 SWAP3 PUSH1 0x20 SWAP5 PUSH1 0x40 MSTORE DUP4 CODECOPY DUP2 ADD SUB SLT PUSH2 0x74 JUMPI MLOAD PUSH1 0x1 PUSH1 0x1 PUSH1 0xA0 SHL SUB DUP2 AND SWAP1 DUP2 SWAP1 SUB PUSH2 0x74 JUMPI PUSH1 0x0 DUP1 SLOAD PUSH1 0x1 PUSH1 0x1 PUSH1 0xA0 SHL SUB NOT AND SWAP2 SWAP1 SWAP2 OR SWAP1 SSTORE PUSH1 0x40 MLOAD PUSH2 0x5DC SWAP1 DUP2 PUSH2 0x90 DUP3 CODECOPY RETURN JUMPDEST PUSH1 0x0 DUP1 REVERT JUMPDEST PUSH4 0x4E487B71 PUSH1 0xE0 SHL PUSH1 0x0 MSTORE PUSH1 0x41 PUSH1 0x4 MSTORE PUSH1 0x24 PUSH1 0x0 REVERT INVALID PUSH1 0x80 PUSH1 0x40 SWAP1 DUP1 DUP3 MSTORE PUSH1 0x4 CALLDATASIZE LT ISZERO PUSH2 0x15 JUMPI PUSH1 0x0 DUP1 REVERT JUMPDEST PUSH1 0x0 SWAP1 DUP2 CALLDATALOAD PUSH1 0xE0 SHR SWAP1 DUP2 PUSH4 0x729C922E EQ PUSH2 0xF8 JUMPI POP DUP1 PUSH4 0x82F01C85 EQ PUSH2 0xA6 JUMPI PUSH4 0xBEBEC6B4 EQ PUSH2 0x44 JUMPI PUSH1 0x0 DUP1 REVERT JUMPDEST CALLVALUE PUSH2 0xA3 JUMPI PUSH1 0x20 CALLDATASIZE PUSH1 0x3 NOT ADD SLT PUSH2 0xA3 JUMPI PUSH1 0x4 CALLDATALOAD SWAP1 PUSH1 0x1 PUSH1 0x1 PUSH1 0xA0 SHL SUB DUP3 AND DUP3 SUB PUSH2 0xA3 JUMPI POP PUSH2 0x73 SWAP1 PUSH2 0x23C JUMP JUMPDEST SWAP1 DUP1 MLOAD DUP1 SWAP3 PUSH1 0x20 DUP3 MSTORE PUSH2 0x95 DUP2 MLOAD DUP1 SWAP3 DUP2 PUSH1 0x20 DUP7 ADD MSTORE PUSH1 0x20 DUP7 DUP7 ADD SWAP2 ADD PUSH2 0x11C JUMP JUMPDEST PUSH1 0x1F ADD PUSH1 0x1F NOT AND DUP2 ADD SUB ADD SWAP1 RETURN JUMPDEST DUP1 REVERT JUMPDEST POP SWAP1 CALLVALUE PUSH2 0xF4 JUMPI PUSH1 0x20 CALLDATASIZE PUSH1 0x3 NOT ADD SLT PUSH2 0xF4 JUMPI PUSH1 0x4 CALLDATALOAD SWAP2 PUSH1 0x1 PUSH1 0x1 PUSH1 0xA0 SHL SUB DUP4 AND DUP4 SUB PUSH2 0xA3 JUMPI POP PUSH2 0xD9 PUSH1 0x60 SWAP3 PUSH2 0x2CC JUMP JUMPDEST SWAP1 DUP1 DUP1 MLOAD SWAP3 DUP1 MLOAD DUP5 MSTORE PUSH1 0x20 DUP2 ADD MLOAD PUSH1 0x20 DUP6 ADD MSTORE ADD MLOAD SWAP1 DUP3 ADD MSTORE RETURN JUMPDEST POP DUP1 REVERT JUMPDEST SWAP1 POP CALLVALUE PUSH2 0xF4 JUMPI DUP2 PUSH1 0x3 NOT CALLDATASIZE ADD SLT PUSH2 0xF4 JUMPI SWAP1 SLOAD PUSH1 0x1 PUSH1 0x1 PUSH1 0xA0 SHL SUB AND DUP2 MSTORE PUSH1 0x20 SWAP1 RETURN JUMPDEST PUSH1 0x0 JUMPDEST DUP4 DUP2 LT PUSH2 0x12F JUMPI POP POP PUSH1 0x0 SWAP2 ADD MSTORE JUMP JUMPDEST DUP2 DUP2 ADD MLOAD DUP4 DUP3 ADD MSTORE PUSH1 0x20 ADD PUSH2 0x11F JUMP JUMPDEST PUSH1 0x60 DUP2 ADD SWAP1 DUP2 LT PUSH8 0xFFFFFFFFFFFFFFFF DUP3 GT OR PUSH2 0x15B JUMPI PUSH1 0x40 MSTORE JUMP JUMPDEST PUSH4 0x4E487B71 PUSH1 0xE0 SHL PUSH1 0x0 MSTORE PUSH1 0x41 PUSH1 0x4 MSTORE PUSH1 0x24 PUSH1 0x0 REVERT JUMPDEST PUSH1 0x20 DUP2 ADD SWAP1 DUP2 LT PUSH8 0xFFFFFFFFFFFFFFFF DUP3 GT OR PUSH2 0x15B JUMPI PUSH1 0x40 MSTORE JUMP JUMPDEST PUSH1 0x40 DUP2 ADD SWAP1 DUP2 LT PUSH8 0xFFFFFFFFFFFFFFFF DUP3 GT OR PUSH2 0x15B JUMPI PUSH1 0x40 MSTORE JUMP JUMPDEST SWAP1 PUSH1 0x1F DUP1 NOT SWAP2 ADD AND DUP2 ADD SWAP1 DUP2 LT PUSH8 0xFFFFFFFFFFFFFFFF DUP3 GT OR PUSH2 0x15B JUMPI PUSH1 0x40 MSTORE JUMP JUMPDEST PUSH1 0x20 DUP2 DUP4 SUB SLT PUSH2 0x237 JUMPI DUP1 MLOAD PUSH8 0xFFFFFFFFFFFFFFFF SWAP2 DUP3 DUP3 GT PUSH2 0x237 JUMPI ADD SWAP1 DUP3 PUSH1 0x1F DUP4 ADD SLT ISZERO PUSH2 0x237 JUMPI DUP2 MLOAD SWAP1 DUP2 GT PUSH2 0x15B JUMPI PUSH1 0x40 MLOAD SWAP3 PUSH2 0x216 PUSH1 0x1F DUP4 ADD PUSH1 0x1F NOT AND PUSH1 0x20 ADD DUP6 PUSH2 0x1A9 JUMP JUMPDEST DUP2 DUP5 MSTORE PUSH1 0x20 DUP3 DUP5 ADD ADD GT PUSH2 0x237 JUMPI PUSH2 0x234 SWAP2 PUSH1 0x20 DUP1 DUP6 ADD SWAP2 ADD PUSH2 0x11C JUMP JUMPDEST SWAP1 JUMP JUMPDEST PUSH1 0x0 DUP1 REVERT JUMPDEST PUSH1 0x0 DUP1 SLOAD PUSH1 0x40 MLOAD PUSH4 0x2FAFB1AD PUSH1 0xE2 SHL DUP2 MSTORE PUSH1 0x1 PUSH1 0x1 PUSH1 0xA0 SHL SUB SWAP4 DUP5 AND PUSH1 0x4 DUP3 ADD MSTORE SWAP3 DUP4 SWAP2 PUSH1 0x24 SWAP2 DUP4 SWAP2 AND GAS STATICCALL PUSH1 0x0 SWAP2 DUP2 PUSH2 0x28A JUMPI JUMPDEST POP PUSH2 0x234 JUMPI POP PUSH1 0x40 MLOAD PUSH2 0x283 DUP2 PUSH2 0x171 JUMP JUMPDEST PUSH1 0x0 DUP2 MSTORE SWAP1 JUMP JUMPDEST PUSH2 0x2A6 SWAP2 SWAP3 RETURNDATASIZE DUP1 SWAP2 DUP4 RETURNDATACOPY PUSH2 0x29E DUP2 DUP4 PUSH2 0x1A9 JUMP JUMPDEST DUP2 ADD SWAP1 PUSH2 0x1CB JUMP JUMPDEST SWAP1 CODESIZE PUSH2 0x271 JUMP JUMPDEST PUSH1 0x40 MLOAD SWAP1 PUSH2 0x2BA DUP3 PUSH2 0x13F JUMP JUMPDEST PUSH1 0x0 PUSH1 0x40 DUP4 DUP3 DUP2 MSTORE DUP3 PUSH1 0x20 DUP3 ADD MSTORE ADD MSTORE JUMP JUMPDEST PUSH2 0x2D4 PUSH2 0x2AD JUMP JUMPDEST POP PUSH1 0x40 SWAP1 DUP2 MLOAD SWAP1 PUSH2 0x2E4 DUP3 PUSH2 0x171 JUMP JUMPDEST PUSH1 0x0 SWAP2 DUP3 SWAP1 MSTORE DUP2 SLOAD DUP4 MLOAD PUSH4 0x2FAFB1AD PUSH1 0xE2 SHL DUP2 MSTORE PUSH1 0x1 PUSH1 0x1 PUSH1 0xA0 SHL SUB SWAP3 DUP4 AND PUSH1 0x4 DUP3 ADD MSTORE SWAP2 DUP4 SWAP2 DUP4 SWAP2 PUSH1 0x24 SWAP2 DUP4 SWAP2 AND GAS STATICCALL DUP3 SWAP2 DUP2 PUSH2 0x560 JUMPI JUMPDEST POP PUSH2 0x32D JUMPI POP POP POP PUSH2 0x234 PUSH2 0x57C JUMP JUMPDEST SWAP2 DUP3 MLOAD PUSH1 0x20 DUP1 SWAP5 ADD KECCAK256 PUSH11 0x616E6369656E742D6F6E65 PUSH1 0xA8 SHL DUP5 DUP4 MLOAD PUSH2 0x351 DUP2 PUSH2 0x18D JUMP JUMPDEST PUSH1 0xB DUP2 MSTORE ADD MSTORE PUSH32 0xB288947C05D037B20D8AA090B0AC398AEE8349956132AED39D7E8FCD8807CD6 DUP2 EQ DUP1 ISZERO PUSH2 0x516 JUMPI JUMPDEST PUSH2 0x4F5 JUMPI PUSH5 0x7768616C65 PUSH1 0xD8 SHL DUP5 DUP4 MLOAD PUSH2 0x39A DUP2 PUSH2 0x18D JUMP JUMPDEST PUSH1 0x5 DUP2 MSTORE ADD MSTORE PUSH32 0xF5D86C997AAF65164E90EFE396B77695CD92CBE1D51296B16C486E23F5BCD710 DUP2 EQ DUP1 ISZERO PUSH2 0x4B1 JUMPI JUMPDEST PUSH2 0x490 JUMPI PUSH11 0x18DB19585B8B5CDA19595D PUSH1 0xAA SHL DUP5 DUP4 MLOAD PUSH2 0x3E9 DUP2 PUSH2 0x18D JUMP JUMPDEST PUSH1 0xB DUP2 MSTORE ADD MSTORE PUSH32 0xF1846F38F2E8892DA7F22ACED9D539CADB76F6941A176E9E2F7AB08F4EA0CE2F DUP2 EQ SWAP1 DUP2 ISZERO PUSH2 0x445 JUMPI JUMPDEST POP PUSH2 0x42A JUMPI POP POP POP PUSH2 0x234 PUSH2 0x57C JUMP JUMPDEST PUSH1 0xA DUP2 MLOAD SWAP4 PUSH2 0x438 DUP6 PUSH2 0x13F JUMP JUMPDEST PUSH1 0x4D DUP6 MSTORE DUP5 ADD MSTORE DUP3 ADD MSTORE SWAP1 JUMP JUMPDEST PUSH32 0x352837AFE4672D70D0D70CB4B09F66E583C8ABFBB40FF25FBFA6FEFC287234ED SWAP2 POP PUSH11 0x10DB19585B8814DA19595D PUSH1 0xAA SHL DUP6 DUP5 MLOAD PUSH2 0x483 DUP2 PUSH2 0x18D JUMP JUMPDEST PUSH1 0xB DUP2 MSTORE ADD MSTORE EQ CODESIZE PUSH2 0x41A JUMP JUMPDEST POP PUSH2 0x708 SWAP2 POP PUSH1 0x5 DUP2 MLOAD SWAP4 PUSH2 0x4A4 DUP6 PUSH2 0x13F JUMP JUMPDEST PUSH1 0x52 DUP6 MSTORE DUP5 ADD MSTORE DUP3 ADD MSTORE SWAP1 JUMP JUMPDEST POP PUSH5 0x5768616C65 PUSH1 0xD8 SHL DUP5 DUP4 MLOAD PUSH2 0x4C7 DUP2 PUSH2 0x18D JUMP JUMPDEST PUSH1 0x5 DUP2 MSTORE ADD MSTORE PUSH32 0xF4CA62760601AB0F07B42F747C9E5DC6DF32BAE8D8252B33F626DE9D2D0D36BF DUP2 EQ PUSH2 0x3CA JUMP JUMPDEST POP PUSH2 0x384 SWAP2 POP PUSH1 0x8 DUP2 MLOAD SWAP4 PUSH2 0x509 DUP6 PUSH2 0x13F JUMP JUMPDEST PUSH1 0x50 DUP6 MSTORE DUP5 ADD MSTORE DUP3 ADD MSTORE SWAP1 JUMP JUMPDEST POP PUSH11 0x416E6369656E74204F6E65 PUSH1 0xA8 SHL DUP5 DUP4 MLOAD PUSH2 0x532 DUP2 PUSH2 0x18D JUMP JUMPDEST PUSH1 0xB DUP2 MSTORE ADD MSTORE PUSH32 0xDF1BC121578AE56F6DC11A313FE95038647C2DF7329BEFECFAB9EE74A1F0ED42 DUP2 EQ PUSH2 0x381 JUMP JUMPDEST PUSH2 0x575 SWAP2 SWAP3 POP RETURNDATASIZE DUP1 DUP6 DUP4 RETURNDATACOPY PUSH2 0x29E DUP2 DUP4 PUSH2 0x1A9 JUMP JUMPDEST SWAP1 CODESIZE PUSH2 0x31D JUMP JUMPDEST PUSH2 0x584 PUSH2 0x2AD JUMP JUMPDEST POP PUSH1 0x40 MLOAD PUSH2 0x591 DUP2 PUSH2 0x13F JUMP JUMPDEST PUSH1 0x4B DUP2 MSTORE PUSH1 0xA PUSH1 0x20 DUP3 ADD MSTORE PUSH1 0x0 PUSH1 0x40 DUP3 ADD MSTORE SWAP1 JUMP INVALID LOG2 PUSH5 0x6970667358 0x22 SLT KECCAK256 PUSH26 0xE2C44B259F93366C5F5CF3C0F3F12002D6A17DB123FA8F4F5711 0xB1 STATICCALL 0xCC STOP AND PUSH5 0x736F6C6343 STOP ADDMOD EQ STOP CALLER "},"methodIdentifiers":{"getRiskParameters(address)":"82f01c85","reverseNameOf(address)":"bebec6b4","udRegistry()":"729c922e"}}}}}