{
  "_format": "hh-sol-artifact-1",
  "contractName": "MockOracle",
  "sourceName": "contracts/mocks/MockOracle.sol",
  "abi": [
    {
      "inputs": [
        {
          "internalType": "address",
          "name": "",
          "type": "address"
        }
      ],
      "name": "getLatestPrice",
      "outputs": [
        {
          "internalType": "uint256",
          "name": "",
          "type": "uint256"
        }
      ],
      "stateMutability": "view",
      "type": "function"
    },
    {
      "inputs": [],
      "name": "getRiskScore",
      "outputs": [
        {
          "internalType": "uint256",
          "name": "",
          "type": "uint256"
        }
      ],
      "stateMutability": "view",
      "type": "function"
    },
    {
      "inputs": [],
      "name": "price",
      "outputs": [
        {
          "internalType": "uint256",
          "name": "",
          "type": "uint256"
        }
      ],
      "stateMutability": "view",
      "type": "function"
    },
    {
      "inputs": [],
      "name": "risk",
      "outputs": [
        {
          "internalType": "uint256",
          "name": "",
          "type": "uint256"
        }
      ],
      "stateMutability": "view",
      "type": "function"
    },
    {
      "inputs": [
        {
          "internalType": "uint256",
          "name": "_price",
          "type": "uint256"
        }
      ],
      "name": "setPrice",
      "outputs": [],
      "stateMutability": "nonpayable",
      "type": "function"
    },
    {
      "inputs": [
        {
          "internalType": "uint256",
          "name": "_risk",
          "type": "uint256"
        }
      ],
      "name": "setRisk",
      "outputs": [],
      "stateMutability": "nonpayable",
      "type": "function"
    }
  ],
  "bytecode": "0x608080604052346100285768878678326eac900000600055600060015561012a908161002e8239f35b600080fdfe6080806040526004361015601257600080fd5b600090813560e01c90816316345f181460c6575080632b35f7391460aa578063426a0c881460aa57806391b7f5ed146092578063a035b1fe1460775763eeb1191a14605c57600080fd5b34607457602036600319011260745760043560015580f35b80fd5b50346074578060031936011260745760209054604051908152f35b50346074576020366003190112607457600435815580f35b5034607457806003193601126074576020600154604051908152f35b90503460f057602036600319011260f0576004356001600160a01b0381160360f057602091548152f35b5080fdfea2646970667358221220d7e4d6a2b4a6d4afdc96a0fda18f54d8fa1a3f217c12823fbe625496d70778de64736f6c63430008140033",
  "linkReferences": {},
  "deployedLinkReferences": {}
}