{
  "_format": "hh-sol-artifact-1",
  "contractName": "Verifier",
  "sourceName": "contracts/security/Verifier.sol",
  "abi": [
    {
      "anonymous": false,
      "inputs": [
        {
          "indexed": false,
          "internalType": "uint256",
          "name": "riskScore",
          "type": "uint256"
        },
        {
          "indexed": false,
          "internalType": "uint256",
          "name": "timestamp",
          "type": "uint256"
        },
        {
          "indexed": false,
          "internalType": "string",
          "name": "severity",
          "type": "string"
        }
      ],
      "name": "CrashAlert",
      "type": "event"
    },
    {
      "anonymous": false,
      "inputs": [
        {
          "indexed": false,
          "internalType": "bool",
          "name": "success",
          "type": "bool"
        },
        {
          "indexed": false,
          "internalType": "uint256",
          "name": "riskScore",
          "type": "uint256"
        },
        {
          "indexed": false,
          "internalType": "bytes32",
          "name": "proofHash",
          "type": "bytes32"
        },
        {
          "indexed": false,
          "internalType": "uint256",
          "name": "timestamp",
          "type": "uint256"
        }
      ],
      "name": "ProofVerified",
      "type": "event"
    },
    {
      "inputs": [],
      "name": "CRITICAL_THRESHOLD",
      "outputs": [
        {
          "internalType": "uint256",
          "name": "",
          "type": "uint256"
        }
      ],
      "stateMutability": "view",
      "type": "function"
    },
    {
      "inputs": [],
      "name": "LSTM_IMAGE_ID",
      "outputs": [
        {
          "internalType": "bytes32",
          "name": "",
          "type": "bytes32"
        }
      ],
      "stateMutability": "view",
      "type": "function"
    },
    {
      "inputs": [],
      "name": "WARNING_THRESHOLD",
      "outputs": [
        {
          "internalType": "uint256",
          "name": "",
          "type": "uint256"
        }
      ],
      "stateMutability": "view",
      "type": "function"
    },
    {
      "inputs": [
        {
          "internalType": "bytes",
          "name": "journal",
          "type": "bytes"
        }
      ],
      "name": "decodeRiskScore",
      "outputs": [
        {
          "internalType": "uint256",
          "name": "riskScore",
          "type": "uint256"
        }
      ],
      "stateMutability": "pure",
      "type": "function"
    },
    {
      "inputs": [
        {
          "internalType": "bytes32",
          "name": "proofHash",
          "type": "bytes32"
        }
      ],
      "name": "isProofUsed",
      "outputs": [
        {
          "internalType": "bool",
          "name": "",
          "type": "bool"
        }
      ],
      "stateMutability": "view",
      "type": "function"
    },
    {
      "inputs": [
        {
          "internalType": "bytes32",
          "name": "",
          "type": "bytes32"
        }
      ],
      "name": "usedProofs",
      "outputs": [
        {
          "internalType": "bool",
          "name": "",
          "type": "bool"
        }
      ],
      "stateMutability": "view",
      "type": "function"
    },
    {
      "inputs": [
        {
          "internalType": "bytes",
          "name": "proof",
          "type": "bytes"
        },
        {
          "internalType": "bytes32",
          "name": "inputHash",
          "type": "bytes32"
        }
      ],
      "name": "verify",
      "outputs": [
        {
          "internalType": "bool",
          "name": "",
          "type": "bool"
        }
      ],
      "stateMutability": "nonpayable",
      "type": "function"
    },
    {
      "inputs": [
        {
          "internalType": "bytes",
          "name": "proofData",
          "type": "bytes"
        },
        {
          "internalType": "uint256",
          "name": "riskScoreInput",
          "type": "uint256"
        }
      ],
      "name": "verifyMockProof",
      "outputs": [
        {
          "internalType": "bool",
          "name": "success",
          "type": "bool"
        }
      ],
      "stateMutability": "nonpayable",
      "type": "function"
    },
    {
      "inputs": [
        {
          "internalType": "bytes",
          "name": "seal",
          "type": "bytes"
        },
        {
          "internalType": "bytes32",
          "name": "imageId",
          "type": "bytes32"
        },
        {
          "internalType": "bytes",
          "name": "journal",
          "type": "bytes"
        }
      ],
      "name": "verifyProof",
      "outputs": [
        {
          "internalType": "bool",
          "name": "success",
          "type": "bool"
        },
        {
          "internalType": "uint256",
          "name": "riskScore",
          "type": "uint256"
        }
      ],
      "stateMutability": "nonpayable",
      "type": "function"
    },
    {
      "inputs": [],
      "name": "version",
      "outputs": [
        {
          "internalType": "string",
          "name": "",
          "type": "string"
        }
      ],
      "stateMutability": "pure",
      "type": "function"
    }
  ],
  "bytecode": "0x60808060405234610016576107a7908161001c8239f35b600080fdfe6040608081526004908136101561001557600080fd5b6000803560e01c806340db210b1461038957806354fd4d50146103d1578063557bbf7f146102b55780636b406341146103895780637f14c6d01461036c578063a43c80cd146102e1578063c30a0f25146102b5578063df08f57f14610298578063e345d3f4146102795763f7cf9cd81461008e57600080fd5b346102765760603660031901126102765767ffffffffffffffff8335818111610272576100be9036908601610519565b909160443590811161026e576100d79036908701610519565b92909160243561023857859691849161011997519788916020998a958287938484019788378201818a8d86840190815237018a83820152038084520182610485565b5190209384865285825261013360ff898820541615610547565b106101fc57507f56020cb8bbb48e09ae6efc110e769b6fa9659df29c810596623fd4865d9b9a2c9185608092359461016f612710871115610588565b82815280875220600160ff1982541617905585519060018252848683015286820152426060820152a1611f4081106101ce576000805160206107528339815191528351806101be4285836105f7565b0390a15b82519160018352820152f35b61177081106101c2576000805160206107528339815191528351806101f44285836105c9565b0390a16101c2565b855162461bcd60e51b81529081018590526016602482015275092dcecc2d8d2c840d4deeae4dcc2d840d8cadccee8d60531b6044820152606490fd5b855162461bcd60e51b8152602081890152601060248201526f125b9d985b1a59081a5b5859d948125160821b6044820152606490fd5b8380fd5b8280fd5b80fd5b50903461029457816003193601126102945751908152602090f35b5080fd5b509034610294578160031936011261029457602090516117708152f35b509134610272576020366003190112610272578160209360ff9235815280855220541690519015158152f35b50346102765760203660031901126102765782359067ffffffffffffffff8211610276575061031560209136908501610519565b9190911061033757602092503590610331612710831115610588565b51908152f35b815162461bcd60e51b8152602081850152600f60248201526e125b9d985b1a59081a9bdd5c9b985b608a1b6044820152606490fd5b50903461029457816003193601126102945760209051611f408152f35b503461027657816003193601126102765782359067ffffffffffffffff821161027657506103bf6020936103c8923691016104bd565b60243590610626565b90519015158152f35b5091346102725782600319360112610272578151908282019082821067ffffffffffffffff83111761047257508252601d81526020907f41656769732052697363205a65726f2056657269666965722076312e300000008282015282519382859384528251928382860152825b84811061045c57505050828201840152601f01601f19168101030190f35b818101830151888201880152879550820161043e565b634e487b7160e01b855260419052602484fd5b90601f8019910116810190811067ffffffffffffffff8211176104a757604052565b634e487b7160e01b600052604160045260246000fd5b81601f820112156105145780359067ffffffffffffffff82116104a757604051926104f2601f8401601f191660200185610485565b8284526020838301011161051457816000926020809301838601378301015290565b600080fd5b9181601f840112156105145782359167ffffffffffffffff8311610514576020838186019501011161051457565b1561054e57565b60405162461bcd60e51b8152602060048201526012602482015271141c9bdbd988185b1c9958591e481d5cd95960721b6044820152606490fd5b1561058f57565b60405162461bcd60e51b8152602060048201526012602482015271496e76616c6964207269736b2073636f726560701b6044820152606490fd5b909160a092825260208201526060604082015260076060820152665741524e494e4760c81b60808201520190565b909160a0928252602082015260606040820152600860608201526710d492551250d05360c21b60808201520190565b610634612710831115610588565b80511561071957602081519101207f56020cb8bbb48e09ae6efc110e769b6fa9659df29c810596623fd4865d9b9a2c60806000928084528360205260408461068360ff83809820541615610547565b8281528060205220600160ff198254161790558351906001825285602083015284820152426060820152a1611f4082106106de57516000805160206107528339815191529181906106d6904290836105f7565b0390a1600190565b6117708210156106f0575b5050600190565b5160008051602061075283398151915291819061070f904290836105c9565b0390a138806106e9565b60405162461bcd60e51b815260206004820152601060248201526f456d7074792070726f6f66206461746160801b6044820152606490fdfedd4ed7ea401a659f14f0ecb24bbcff55a8547e7b4ed363202677389a137c2387a26469706673582212200d102e38ae7a3a2d71aa19709c8af5317bae432081ab3f2e30eb62a2c89b545d64736f6c63430008140033",
  "linkReferences": {},
  "deployedLinkReferences": {}
}