{
  "_format": "hh-sol-artifact-1",
  "contractName": "MockVerifier",
  "sourceName": "contracts/mocks/MockVerifier.sol",
  "abi": [
    {
      "inputs": [
        {
          "internalType": "bytes",
          "name": "",
          "type": "bytes"
        },
        {
          "internalType": "bytes32",
          "name": "",
          "type": "bytes32"
        }
      ],
      "name": "verify",
      "outputs": [
        {
          "internalType": "bool",
          "name": "",
          "type": "bool"
        }
      ],
      "stateMutability": "pure",
      "type": "function"
    }
  ],
  "bytecode": "0x608080604052346100155760f3908161001b8239f35b600080fdfe60806004361015600e57600080fd5b600090813560e01c636b40634114602457600080fd5b3460b957604036600319011260b9576004359067ffffffffffffffff9081831160a1573660238401121560a15782600401359180831160a557601f8301601f19908116603f011682019081118282101760a557604052818152366024838501011160a1578160246020940184830137010152602060405160018152f35b8380fd5b634e487b7160e01b85526041600452602485fd5b5080fdfea264697066735822122013263cbed68e158a5f1b84bb440428071f12b64009b011741b77d012c48d76a164736f6c63430008140033",
  "linkReferences": {},
  "deployedLinkReferences": {}
}