{
  "_format": "hh-sol-artifact-1",
  "contractName": "IdentityRegistry",
  "sourceName": "contracts/core/IdentityRegistry.sol",
  "abi": [
    {
      "inputs": [
        {
          "internalType": "address",
          "name": "_udRegistry",
          "type": "address"
        }
      ],
      "stateMutability": "nonpayable",
      "type": "constructor"
    },
    {
      "inputs": [
        {
          "internalType": "address",
          "name": "user",
          "type": "address"
        }
      ],
      "name": "getRiskParameters",
      "outputs": [
        {
          "components": [
            {
              "internalType": "uint256",
              "name": "ltv",
              "type": "uint256"
            },
            {
              "internalType": "uint256",
              "name": "liquidationPenalty",
              "type": "uint256"
            },
            {
              "internalType": "uint256",
              "name": "gracePeriod",
              "type": "uint256"
            }
          ],
          "internalType": "struct IUnstoppable.RiskParams",
          "name": "",
          "type": "tuple"
        }
      ],
      "stateMutability": "view",
      "type": "function"
    },
    {
      "inputs": [
        {
          "internalType": "address",
          "name": "user",
          "type": "address"
        }
      ],
      "name": "reverseNameOf",
      "outputs": [
        {
          "internalType": "string",
          "name": "",
          "type": "string"
        }
      ],
      "stateMutability": "view",
      "type": "function"
    },
    {
      "inputs": [],
      "name": "udRegistry",
      "outputs": [
        {
          "internalType": "contract IUDRegistry",
          "name": "",
          "type": "address"
        }
      ],
      "stateMutability": "view",
      "type": "function"
    }
  ],
  "bytecode": "0x60803461007457601f61066c38819003918201601f19168301916001600160401b038311848410176100795780849260209460405283398101031261007457516001600160a01b0381169081900361007457600080546001600160a01b0319169190911790556040516105dc90816100908239f35b600080fd5b634e487b7160e01b600052604160045260246000fdfe6080604090808252600436101561001557600080fd5b600090813560e01c908163729c922e146100f85750806382f01c85146100a65763bebec6b41461004457600080fd5b346100a35760203660031901126100a357600435906001600160a01b03821682036100a357506100739061023c565b908051809260208252610095815180928160208601526020868601910161011c565b601f01601f19168101030190f35b80fd5b5090346100f45760203660031901126100f457600435916001600160a01b03831683036100a357506100d96060926102cc565b90808051928051845260208101516020850152015190820152f35b5080fd5b9050346100f457816003193601126100f45790546001600160a01b03168152602090f35b60005b83811061012f5750506000910152565b818101518382015260200161011f565b6060810190811067ffffffffffffffff82111761015b57604052565b634e487b7160e01b600052604160045260246000fd5b6020810190811067ffffffffffffffff82111761015b57604052565b6040810190811067ffffffffffffffff82111761015b57604052565b90601f8019910116810190811067ffffffffffffffff82111761015b57604052565b60208183031261023757805167ffffffffffffffff9182821161023757019082601f8301121561023757815190811161015b5760405192610216601f8301601f1916602001856101a9565b8184526020828401011161023757610234916020808501910161011c565b90565b600080fd5b60008054604051632fafb1ad60e21b81526001600160a01b0393841660048201529283916024918391165afa6000918161028a575b50610234575060405161028381610171565b6000815290565b6102a691923d8091833e61029e81836101a9565b8101906101cb565b9038610271565b604051906102ba8261013f565b60006040838281528260208201520152565b6102d46102ad565b506040908151906102e482610171565b60009182905281548351632fafb1ad60e21b81526001600160a01b03928316600482015291839183916024918391165afa829181610560575b5061032d5750505061023461057c565b9182516020809401206a616e6369656e742d6f6e6560a81b8483516103518161018d565b600b815201527f0b288947c05d037b20d8aa090b0ac398aee8349956132aed39d7e8fcd8807cd681148015610516575b6104f557647768616c6560d81b84835161039a8161018d565b6005815201527ff5d86c997aaf65164e90efe396b77695cd92cbe1d51296b16c486e23f5bcd710811480156104b1575b610490576a18db19585b8b5cda19595d60aa1b8483516103e98161018d565b600b815201527ff1846f38f2e8892da7f22aced9d539cadb76f6941a176e9e2f7ab08f4ea0ce2f8114908115610445575b5061042a5750505061023461057c565b600a8151936104388561013f565b604d855284015282015290565b7f352837afe4672d70d0d70cb4b09f66e583c8abfbb40ff25fbfa6fefc287234ed91506a10db19585b8814da19595d60aa1b8584516104838161018d565b600b81520152143861041a565b50610708915060058151936104a48561013f565b6052855284015282015290565b50645768616c6560d81b8483516104c78161018d565b6005815201527ff4ca62760601ab0f07b42f747c9e5dc6df32bae8d8252b33f626de9d2d0d36bf81146103ca565b50610384915060088151936105098561013f565b6050855284015282015290565b506a416e6369656e74204f6e6560a81b8483516105328161018d565b600b815201527fdf1bc121578ae56f6dc11a313fe95038647c2df7329befecfab9ee74a1f0ed428114610381565b6105759192503d8085833e61029e81836101a9565b903861031d565b6105846102ad565b506040516105918161013f565b604b8152600a6020820152600060408201529056fea264697066735822122079e2c44b259f93366c5f5cf3c0f3f12002d6a17db123fa8f4f5711b1facc001664736f6c63430008140033",
  "linkReferences": {},
  "deployedLinkReferences": {}
}